:1000000000800020BD0100002D1000002D10000018
:100010002D1000002D1000002D100000F90F000021
:10002000F90F0000F90F0000F90F00002D1000007B
:100030002D100000F90F00002D100000E90F000046
:100040002D1000002D1000002D1000002D100000BC
:100050002D1000002D1000002D1000002D100000AC
:100060002D1000002D1000002D1000002D1000009C
:100070002D1000002D1000002D1000002D1000008C
:100080002D1000002D1000002D1000002D1000007C
:100090002D1000002D1000002D1000002D1000006C
:1000A000613A0000553A00002D1000002D100000AC
:1000B0002D1000002D1000002D1000002D1000004C
:1000C0002D1000002D1000002D1000002D1000003C
:1000D0002D1000002D1000002D1000002D1000002C
:1000E0002D1000002D1000002D1000002D1000001C
:1000F0002D100000811D00002D100000F9200000CF
:100100002D100000BD2300002D1000002D10000058
:100110002D1000002D1000002D1000002D100000EB
:100120002D1000002D1000002D1000002D100000DB
:100130002D1000002D1000002D1000002D100000CB
:100140002D1000002D1000002D1000002D100000BB
:10015000713B0000893B0000A13B0000B93B00005F
:100160002D1000007D2600002D1000002D10000035
:100170002D1000002D1000002D1000002D1000008B
:100180002D1000002D1000002D1000002D1000007B
:100190002D1000002D1000002D1000000512000091
:1001A00055120000DD120000991300001D1400001C
:1001B0002D1000002D1000002D1000004F4B4CF2B0
:1001C000205210B51A804DF628121A8000BF00BFC9
:1001D00000F02FFF4A4B4FF010621A60494A9A60B4
:1001E000494ADA60494B1A6812F4807204D14849CE
:1001F0000A604FF4A8521A60464B1A7802F00802BF
:10020000D2B21AB11A7842F008021A700023424A98
:100210004248434C02E019599950043399188142DD
:10022000F9D3404B404A002101E043F8041B9342BC
:10023000FBD33E4B00221A603D4B3E4A802103F81F
:10024000011B9342FBD13C4B0A221A703B4B2422E8
:100250001A70A02203F8012C394A137803F0020324
:10026000DBB2002BF9D0364A137803F01003DBB26F
:10027000002BF9D1324A137803F00C03082BFAD182
:10028000304B03221A7040225A702D4A137803F023
:100290002003DBB2002BF9D0294A137803F0400386
:1002A000DBB2002BF9D0284A284B1A60284B2022B9
:1002B0001A70234A137803F00C030C2BFAD1254B48
:1002C00002221A60244A43F8442C244B4BF67F3216
:1002D0001A60072243F8042C62B601F018FB0C4B9D
:1002E0001B68DC0702D51E4801F0B6F805F0FAFEDF
:1002F00000F0A6FE03F016FDFEE700BF0E2005404D
:1003000030800440823F04000100002B10D00340E5
:1003100014D0034002D007400084FF1F388FFF1F16
:10032000F0C20000388FFF1F6496FF1F08ED00E049
:1003300000E400E05FE400E00050064001400640B9
:10034000064006400440064000000311448004407B
:100350000040064048800440C010050014E000E062
:1003600000DD6850FFFFFFFFFFFFFFFFFFFFFFFF04
:10037000FFFFFFFFFFFFFFFFFFFFFFFFFFFFFFFF8D
:10038000FFFFFFFFFFFFFFFFFFFFFFFFFFFFFFFF7D
:10039000FFFFFFFFFFFFFFFFFFFFFFFFFFFFFFFF6D
:1003A000FFFFFFFFFFFFFFFFFFFFFFFFFFFFFFFF5D
:1003B000FFFFFFFFFFFFFFFFFFFFFFFFFFFFFFFF4D
:1003C000FFFFFFFFFFFFFFFFFFFFFFFFFFFFFFFF3D
:1003D000FFFFFFFFFFFFFFFFFFFFFFFFFFFFFFFF2D
:1003E000FFFFFFFFFFFFFFFFFFFFFFFFFFFFFFFF1D
:1003F000FFFFFFFFFFFFFFFFFFFFFFFFFFFFFFFF0D
:10040000FFFFFFFFFFFFFFFFFFFFFFFFFEFFFFFFFD
:1004100008B548F63870074BC1F6FF701B1A062B5B
:1004200000D808BD40F20003C0F20003002BF8D052
:100430009847F6E73B8FFF1F08B548F6387048F637
:100440003873C1F6FF70C1F6FF731B1A9B1003EBE4
:10045000D373591000D108BD40F20002C0F200026F
:10046000002AF8D09047F6E710B548F63874C1F680
:10047000FF74237873B9FFF7CBFF40F20003C0F29B
:1004800000032BB14CF2F020C0F20000AFF300806B
:100490000123237010BD00BF08B540F20003C0F275
:1004A00000034BB14CF2F02048F63C71C0F2000062
:1004B000C1F6FF71AFF3008048F63870C1F6FF70E7
:1004C00003682BB140F20003C0F2000303B1984768
:1004D000BDE80840FFF7B0BFF0B5304830490368C9
:1004E0001B06FCD40B6813F08002F8D172B62D4BBA
:1004F0001978002950D02C4908684F688E68CD685B
:100500000C6938181431801909684019001940180D
:10051000C0F34E00254940F400400860C86A0F6BE4
:100520004E6B8D6BCC6B38184031801909684019BF
:1005300000194018C0F34E001D4940F40040086007
:1005400001F10811143151F8140C51F8107C51F8D4
:100550000C6C51F8085C51F8044C09683818801983
:10056000401900194018C0F34E00124940F40040F1
:100570000860C86A0F6B4E6B8D6BCC6B38184031BE
:1005800080190968401900194018C0F34E000A4943
:1005900040F4004008601A7062B6F0BD24B0034019
:1005A00024B00B40548FFF1F38B003402CB00340E1
:1005B00030B003402CB00B4030B00B40224B6022D7
:1005C0001A70E1225A70214B214A1978214B0829CF
:1005D00001D1012102E00A2907D13921116013223A
:1005E0001A601D4B19605A600BE00C291A4901D1A1
:1005F000352000E03D20106012221A60174B086081
:100600001A60174B17495B78174A03B101230B6037
:1006100013600E4B154A5978154B012901D88021DA
:100620000CE0042901D8842108E0082901D885219B
:1006300004E0102901D8862100E0872111601960AB
:10064000074B01221A707047004007400484FF1FC7
:1006500008B003400CB0034008B00B400CB00B4096
:10066000548FFF1F20B0034020B00B4024B0034044
:1006700024B00B400D4B5A7858B1AAB901215970DA
:100680001B7823B10A4B1A6003F500231A60FFF7A9
:1006900095BF4AB158701B78002BF8D0044B1860F6
:1006A00003F500231860F2E7704700BF548FFF1F67
:1006B00024B003400C2810B503D91023102807D804
:1006C00009E00A2806D8082894BF08230A2302E074
:1006D000184600E00C23DCB2084A0949201A907041
:1006E0000878834209D013780C7013B1054B0022AF
:1006F0001A60BDE81040FFF761BF10BD548FFF1FA7
:100700000484FF1F24B0034010B5114B1B7804462E
:100710000BB1FFF7E1FE012C0E4A01D8002302E0E5
:10072000042C02D8042313600EE0082C03D8052300
:100730001360082308E0102C03D80623136010234D
:1007400002E0072313602023034A537010BD00BF4B
:10075000548FFF1F24B003400484FF1F0D282DE990
:10076000F0410FD9172801D80E380AE0A0F11A037A
:10077000052B01D8093804E0A0F12203062B50D83C
:100780001838C0B2284B1C5C284B1B780BB1FFF704
:10079000A3FE72B6220617D4254D244E01272C60E5
:1007A000F77062B672B62B6813F0800F1F4B04D03F
:1007B000204A10680022DA7026E0F378002BEED091
:1007C00062B602F059FCEDE704F040071A4D174EEF
:1007D000FFB204F03F044FF00108184B1A6817B13C
:1007E00022F0100201E042F010021A602C6086F83C
:1007F000048062B672B62B6813F0800F0B4B09D0E1
:100800000F4A106800221A7162B69B7840FA03F012
:10081000BDE8F0813379002BDFD062B602F02CFC0A
:10082000E8E70020BDE8F08188BA0000548FFF1F80
:1008300000B0034010B0034000B00B400CB00B40C0
:1008400010B00B400B4B1A6842F480521A600A4BEE
:100850005A780A4B0AB1802200E0C0221A7040F692
:10086000FF739842A8BF1846054B20EAE070188035
:10087000704700BF2C800440548FFF1F21C00C40E4
:1008800000C00C4010B5441E01E002F0ABFB14F8B0
:10089000010F0028F9D110BD08B540F6C41001F0D1
:1008A000C5F8002001F004F901F04EFA0220012100
:1008B00000F08EFE014B01221A6008BDC4F00F400B
:1008C00030B5074C9DF80C506072A17220460E2185
:1008D000E27223736573BDE8304001F0A2B900BF36
:1008E0000684FF1F034BD874197503F10E0007210E
:1008F00001F097B90684FF1F70B5094E0023C55C4F
:10090000084AF4180133062B6571F8D182F82010DB
:1009100002F115000C21BDE8704001F082B900BF62
:100920001B84FF1F0684FF1F044B10B501241C60AD
:10093000032000F0D7FF024B1C6010BDC8F00F4031
:10094000C4F00F402DE9F0418AB001F0CDF9C0B2FA
:1009500002F048FB01F0C8F9042840F3CF8001F011
:10096000CDF9074601F0CAF95FFA80F801F0C6F93F
:10097000064601F0C3F9002504460DE001F0BEF97A
:1009800002AB58550135202D06D117F0FF0507D0D1
:10099000802D40F0AD804DE0EBB24345EED3F4E75F
:1009A0005848FFF76FFFF0B2022814D0062825D070
:1009B000002840F0A380E4B20A2C40F09F809DF80C
:1009C00008309DF809201A424F4B02D101221A70BB
:1009D00094E0187092E014F0FF0440F08F804B48D0
:1009E000FFF750FF9DF808309DF809201A42464B4A
:1009F00002D101225A7081E05C707FE0E4B2012CE8
:100A00007CD14348FFF73EFF9DF808309DF8092050
:100A10001A423D4B0BD13E489C70FFF733FF30200C
:100A20000090014602460346FFF74AFF66E09D70CC
:100A300038485EE03848FFF725FFF0B2022813D0AF
:100A400003283CD0002859D13448FFF71BFF14F08D
:100A5000FF0F53D13248FFF715FF022001460AB0BD
:100A6000BDE8F041FFF73EBF14F0FF0F46D12D481F
:100A70002D4CFFF707FF244B9DF80F000122DA7081
:100A800084F8210002F0AEFA9DF8100084F82200EC
:100A900002F0A8FA9DF8110084F8230002F0A2FAEF
:100AA0009DF8120084F8240002F09CFA9DF81300CF
:100AB00084F825000AB0BDE8F04102F093BA14F0C2
:100AC000FF0402D0042C19D106E01848FFF7DAFE23
:100AD0000D4B01221A7111E01548FFF7D3FE0220D9
:100AE0000146FFF7FFFE084B00221A719A7005E0DD
:100AF00010480AB0BDE8F041FFF7C4BE0AB0BDE837
:100B0000F08100BF9FBA0000598FFF1FAABA0000F2
:100B1000B1BA0000BBBA0000C9BA0000D1BA0000E7
:100B2000DBBA0000E3BA00000684FF1FEEBA000043
:100B3000F9BA000007BB000000F0E8BF30B5A1B073
:100B4000044601F0ADFA242806D068463B49052248
:100B500006F090FA68B14BE00DF1FF3505E001F0C9
:100B60009FFA431C18BF05F8010F2B780A2BF6D10A
:100B7000EBE79DF806302C2B56D09DF81130532B07
:100B80000AD12D2323709DF8073063709DF808303B
:100B9000A3700023E37001E03023F3E700A8C1183D
:100BA000E218097A0133072B5172F7D1002323741D
:100BB0009DF81F30452B0DD12D2323719DF8133047
:100BC00063719DF81430A3719DF81530E371002313
:100BD000237201E03023F0E700A8C118E218897DF4
:100BE0000133072B5174F7D100232376012022E033
:100BF00068461349052206F03DFAC0B99DF80C304D
:100C00002C2B16D09DF81430A07763769DF8153004
:100C1000A3769DF81630E3769DF8173023779DF87C
:100C200018300220637706E04FF0FF3003E0002029
:100C300001E06FF0010021B030BD00BF50BB0000EB
:100C400056BB000030B5094B85B06C4603F110056A
:100C500018685968224603C20833AB421446F7D1DC
:100C60006846102101F0FCF905B030BD10BB000052
:100C700030B5094B85B06C4603F11005186859680A
:100C8000224603C20833AB421446F7D1684610210E
:100C900001F0E6F905B030BD20BB000007B5124AEF
:100CA00052F8200F51686B4603C342F2107001F0F6
:100CB0000BF9002001F040F9FFF7DAFF19210B488A
:100CC00001F0CEF919210A4801F0CAF919210948A1
:100CD00001F0C6F91921084801F0C2F96846082157
:100CE00001F0BEF90EBD00BF10BB00005CBB0000F0
:100CF00076BB000090BB0000AABB00001FB5074AEE
:100D000052F8280F516801AB03C390680C2118609A
:100D100001A801F0A5F905B000BD00BF10BB00009F
:100D20001FB5074A52F8340F516801AB03C39068EE
:100D30000C21186001A801F093F905B000BD00BFB7
:100D400010BB000008B5FFF77DFFBDE8084001F0CB
:100D500021B91FB50B460431009103F11101019136
:100D600003F119010291039203491A46093306F06F
:100D70006BF805B000BD00BFC4BB000001F06CBA49
:100D800083784F2B02D1C3784B2B28E0232B0FD134
:100D9000C3784D2B01D0002070470379572BFAD12F
:100DA0004379492BF7D183793A2BF4D1C37915E0F4
:100DB0003E2B01D1C37811E02B2BECD1C378432B10
:100DC000E9D103794D2BE6D14379472BE3D18379E0
:100DD000532BE0D1C3793A2BDDD1037A202BDAD122
:100DE0000120704710B5441E01E002F0FBF814F832
:100DF000010F0028F9D110BD2DE9F04701F1C3031F
:100E0000A8B023F0070302AFADEB030D8B1D23F059
:100E1000070302ADADEB030D804601F1FF3A02AED0
:100E20000C4601F1BC0901F0C3FA42465146304676
:100E300005F0B0FF4046214601F074FA4FF00B0870
:100E400001F07BFA03E04FF47A7000F04BFD01F003
:100E50007FFA20B908F1FF3818F0FF08F3D101F04C
:100E600077FA8046A8B928464946224A334605F013
:100E700091FF2846FFF7B6FF28E001F073FA3B1C0C
:100E8000C2B21D4903EB080005F0DEFF08F10108BE
:100E900001E04FF0000801F05BFA10B1B8F1960FD5
:100EA000EBD13846FFF76CFF3B1C80460093284689
:100EB000B8F1000F0CD104F1BA01104A334605F025
:100EC00069FF2846FFF78EFF01F072FA40460BE0FB
:100ED00004F1AF010A4A334605F05CFF2846FFF7EC
:100EE00081FF01F065FA012040B207F19807BD4685
:100EF000BDE8F0871BBC000045BC000048BC0000FA
:100F000071BC000030B5C9B003460C46144A182124
:100F1000684606AD05F03EFF234628464FF4837130
:100F2000104A05F037FF002400E00134635D002B18
:100F3000FBD1B4F5827FF8DC0B210B48FFF75CFF97
:100F4000002809DD17216846FFF756FF002803DD5A
:100F500028462146FFF750FF40B249B030BD00BFE0
:100F60008FBC00009EBC0000A2BC000010B540F287
:100F700041301B4C01F00AF9002000F099FD4FF4BC
:100F80007A7000F0AFFC0421204601F0CBF94FF459
:100F9000FA7000F0A7FC0421204601F0C3F94FF4D9
:100FA000FA7000F09FFC0421204601F0BBF94FF4D9
:100FB000FA7000F097FC2046042101F0B3F90621F5
:100FC000084801F0AFF901F0B8F940F6B83000F088
:100FD00089FC20460421BDE81040FFF70DBF00BF8B
:100FE000AEBC0000B3BC0000024B1A6801321A60AC
:100FF000704700BFE88FFF1F38B50B4C25462368AC
:10100000580301D501F03AFB2B68590501D500F0D2
:10101000B7FE2B681A0501D501F06EF82368DB04D2
:10102000EDD501F0CBF9EAE73480044008B5FFF7CD
:10103000E3FF024B10221A80704700BF00200540DA
:101040007047034A1368181810601846704700BFAD
:101050003484FF1F002070474FF0FF3070474FF47B
:1010600000534B6000207047012070474FF0FF3065
:101070007047FEE7FEE7012070477047EFF31383E8
:101080009BB9EFF3108098B9EFF3058323B10F2BD1
:1010900004D9084A985C01E04FF48070EFF31183A3
:1010A0003BB1984228BF184670474FF0FF30704759
:1010B00018467047F0E300E0002300E00133C25C13
:1010C000002AFBD11846704710B50023B0FBF2F49C
:1010D00002FB1400092801D8303000E03730C85432
:1010E00020460CB10133F1E7CA185470224605E0DE
:1010F000885CCC5C8C54C8540132013B9A42F7DBCB
:10110000084610BD031E10B50C4603DBBDE81040B9
:10111000FFF7DABF2D2001F8010B5842FFF7D4FF8B
:10112000204610BDF0B50F4687B016461C463A461D
:1011300033460546074901A805F086FE284604F017
:1011400081F902460B46204601A905F07DFE2046A6
:1011500007B0F0BDBABC0000084B4FF400021A60A3
:101160004FF080721A604FF000721A604FF0806288
:101170001A604FF000621A60704700BF08E100E09B
:10118000212830B521D8042A1FD8DFE802F007094A
:10119000050B03000B2306E00A2304E0082302E00A
:1011A0000C2300E00923094A02EBC002526872B620
:1011B0001468074D24F47024146044F0807444EAE9
:1011C000034345F82010136062B630BDC4BC000074
:1011D000608FFF1F094B03EBC0035B6872B61A6890
:1011E00022F0877222F4803242F080721A60044B3F
:1011F000002243F8202062B6704700BFC4BC000044
:10120000608FFF1F114B10B51C68E0041C6004D5F3
:101210000F4BDA680AB1DB689847A10404D50C4B80
:101220001A690AB11B699847A20604D5084B1A6EC1
:101230000AB11B6E9847E30606D5054BD3F8842008
:1012400012B1D3F88430984710BD00BFA09004407D
:10125000608FFF1F1F4B10B51C68E0031C6004D596
:101260001D4B1A680AB11B689847A10304D51A4B95
:101270005A680AB15B689847E20704D5164B1A6CA6
:101280000AB11B6C9847A30704D5134B5A6C0AB1DB
:101290005B6C9847200704D50F4B9A6C0AB19B6C86
:1012A0009847610704D50C4BDA6C0AB1DB6C9847A0
:1012B000220304D5084B5A6E0AB15B6E984763034C
:1012C00006D5054BD3F8802012B1D3F8803098476B
:1012D00010BD00BFA0A00440608FFF1F2C4B10B5B5
:1012E0001C6820071C6004D52A4B5A6A0AB15B6A45
:1012F0009847E10604D5274B9A6A0AB19B6A98473A
:10130000620604D5234BDA6A0AB1DB6A98472306E2
:1013100004D5204B1A6B0AB11B6B9847A00604D565
:101320001C4B5A6B0AB15B6B9847E10704D5194B0C
:10133000DA6B0AB1DB6B9847A20704D5154B9A6D9F
:101340000AB19B6D9847630704D5124BDA6D0AB159
:10135000DB6D9847A00504D50E4BDA6E0AB1DB6E43
:101360009847E10504D50B4B1A6F0AB11B6F9847DC
:10137000620504D5074B5A6F0AB15B6F9847230586
:1013800004D5044B9A6F0AB19B6F984710BD00BFFC
:10139000A0B00440608FFF1F1E4B10B51C68E00713
:1013A0001C6004D51C4B9A680AB19B6898472106BB
:1013B00004D5194B5A690AB15B699847E20604D50E
:1013C000154B9A690AB19B699847630704D5124B7C
:1013D000DA690AB1DB699847200704D50E4B1A6A0F
:1013E0000AB11B6A9847A10704D50B4B9A6B0AB147
:1013F0009B6B9847A20604D5074B1A6D0AB11B6D6B
:101400009847630604D5044B5A6D0AB15B6D984743
:1014100010BD00BFA0C00440608FFF1F094B10B576
:101420001C68A2071C6004D5074B9A6E0AB19B6E1C
:101430009847E30704D5044BDA6F0AB1DB6F98478E
:1014400010BD00BFA0D00440608FFF1F014B186883
:10145000704700BF00D00340044B054900221A60CA
:101460000A60044A106010221A60704714D00340CA
:1014700004D0034000D00340002810B50FDB020267
:101480004FF4807347F6FF7400E00A46A24204D985
:10149000013B012BC0EB0201F7D1120A11E04042DF
:1014A00002024FF4807348F2FF0400E00A46A242B1
:1014B00004D9013B012BC0EB0201F7D1120AC2F59E
:1014C0008072013B024942EA03220A6010BD00BF5C
:1014D0000CD0034018B1102828BF102000E00120D4
:1014E000014B1870704700BF3884FF1F10B50023F0
:1014F0004FF4377242FA03F4A14202D80133072BAA
:10150000F8D1164A42FA03F202EB5102B2FBF1F1B2
:1015100001394FF6FF72914228BF1146C21E012ABF
:1015200006D80F4A0F4C0020106020600E480FE0D4
:10153000421F012A06D9092804D00A2802D01438EB
:10154000032809D8094A0A4C002010602060094885
:1015500043F008030160136010BD00BF006CDC02A3
:101560000090034004900340089003400080034033
:101570000480034008800340212810B518D80D4A84
:1015800052F8303093F880423CB1012211B183F817
:10159000802010BD83F8002110BD02EBC00043681D
:1015A0001A6811B142F0030201E022F002021A604F
:1015B00010BD00BFC4BC0000212805D8034B53F860
:1015C000303093F80002704700207047C4BC000020
:1015D000212816D80B4A02EBC00301295B6852F898
:1015E000302004D182F880124FF4A27208E000206B
:1015F00082F8800211B94FF4807201E040F20312C8
:101600001A607047C4BC0000282838B50A46044652
:101610004E4B0FD11B780B2B03D8C3F10C039A4010
:1016200003E00C2B01D00C3B1A411046BDE83840BA
:10163000FFF708B919780125002A05FA01F301DC42
:10164000002102E09A4205D32946FFF795FF204684
:10165000294676E0C31E012B01D83D4B06E0192830
:1016600001D0202801D13B4B00E03B4B1B680133EC
:10167000534323FA01F3E11E1D2959D8DFE801F095
:101680000F151B215858272D585858585858585836
:101690005833393F4558515858585858584B2F4A85
:1016A00013604FF451722E4B40E02E4A13604FF4FA
:1016B00051722D4B3AE02D4A136040F244422C4BBC
:1016C00034E02C4A136040F244422B4B2EE02B4A6C
:1016D000136040F244422A4B28E02A4A136040F249
:1016E0004442294B22E0294A136040F24442284BED
:1016F0001CE0284A136040F24442274B16E0274A78
:10170000136040F24442264B10E0264A136040F238
:101710004442254B0AE0254A13604FF45172244B92
:1017200004E0244A1360244B4FF451721A6038BD10
:101730007F2A2046D4BF00210121FFF71DFF20464C
:101740000121BDE83840FFF743BF00BF3884FF1FC9
:101750000890034008800B4008800340109003402D
:101760003090044018900340349004404880034077
:101770001CC004403080034010C00440208003405F
:101780000CB004402880034010B00440388003406F
:1017900014C004404080034018C00440108003403F
:1017A00004B004401880034008B0044010800B408F
:1017B00048A0044018800B404CA004402DE9F041A3
:1017C00007460E4690460824012505EA08013846DA
:1017D000FFF7D2FE01213046FFF7CEFE0021304652
:1017E0006D00FFF7C9FE013CEDB2EED1BDE8F0811E
:1017F0002DE9F04107460E4690460824802505EA6B
:1018000008013846FFF7B8FE01213046FFF7B4FE65
:1018100000213046FFF7B0FE6D08013CEFD1BDE876
:10182000F08112B91A46FFF7C9BF1A46FFF7E0BFA9
:101830002DE9F04180460F46082400250126384650
:101840000121FFF799FE4046FFF7B6FE00B1354390
:10185000002138467600FFF78FFE013CF6B2EED14C
:101860002846BDE8F0812DE9F04180460F46082466
:101870000025802638460121FFF77EFE4046FFF70F
:101880009BFE00B1354300213846FFF775FE760810
:10189000013CEFD12846BDE8F0810AB9FFF7C8BF87
:1018A000FFF7E1BF72B60C4B0C491A680C4BD3F82A
:1018B0008830096862B6490102D5322A88BF0133EF
:1018C000C2F53B427F323021B2FBF1F24FF47A7025
:1018D00000FB0320704700BF18E000E004ED00E0CB
:1018E000608FFF1F70B50446FFF7DCFF05466CB143
:1018F00040F2E736FFF7D6FF401BB04203D9013C68
:1019000004D005F57A7501F0B7FBF3E770BD10B5AB
:10191000FFF722FC154B164A164C00204BF6FF71C0
:1019200018605960282313609360136193611362F8
:10193000936213639363092222600F4C20606160FD
:10194000A360236144F8042C0C4C20600C48016017
:101950000C490B608B600C4B1A60FEF72FFE0420C5
:10196000FFF7C0FFBDE8104001F0A6B904800340B6
:101970000C800340008003400490034004800B402F
:1019800008800B400C800B4000800B4070B5072492
:1019900005464C4303E0013C01D1002070BD2B788B
:1019A000002BF8D101E0013CF7D02B78002BFAD0C6
:1019B000FFF778FF064601E0013CEED02B78002BC4
:1019C000FAD1FFF76FFF801B70BD70B50724054685
:1019D0004C4303E0013C01D1002070BD2B78002B6B
:1019E000F8D001E0013CF7D02B78002BFAD1FFF7BB
:1019F00059FF064601E0013CEED02B78002BFAD0CF
:101A0000FFF750FF801B70BD21280BD8064B53F801
:101A1000300000F5007011B11146FFF7B7BF114655
:101A2000FFF7D3BF00207047C4BC0000194B1A68F1
:101A300042F480621A60184B00221A705A709A7031
:101A4000DA701A71154B40F213321A604FF451726A
:101A50005A60134BC0F344321A70C0F347125A70E5
:101A600000F01F000F4A9872022104231370517472
:101A7000D3740D4B88221A703C2203F80D2C0B4BAB
:101A800040226FF44A711A705B184FF400521A60CA
:101A9000704700BF34800440EC8FFF1F40A004401B
:101AA00000A0064002A0064010A006402DE400E081
:101AB000134A137800F0030103F0EC030B434107D2
:101AC00048BF43F01003137000F00F03042B04D140
:101AD0000C4B1A7842F040021A700B4A1378C10678
:101AE00003F0EF0348BF43F010031370054A137867
:101AF000800603F0EF0348BF43F0100313707047F4
:101B000002A0064006A0064005A006400D4B1B683B
:101B1000580510B503D410BD01F0AEFA00E00A4C30
:101B20002379094A002BF7D108494FF40050086087
:101B3000074908480B7040F20311016041601370BF
:101B4000537010BD34800440EC8FFF1F84E100E02F
:101B500003A0064040A0044038B5094B04461D7957
:101B6000002DFCD120460121FFF732FD20462946F9
:101B7000FFF702FD034B53F83420014B9A6038BD48
:101B8000EC8FFF1FC4BC00001C4B1B685A052DE9DD
:101B9000F041064630D51A4A93680BB101211970FD
:101BA0009478174D174FDFF8648001343F2C88BFBD
:101BB000002415E0FFF762FA40280DDC3B781B0695
:101BC0000ED5EB7801333F2B88BF0023EA18127B38
:101BD00088F80020EB7003E0FF2801DD01F04CFAEB
:101BE000EA78074BA242E5D01A19167301221A713E
:101BF0009C70054BBC221A70BDE8F0813480044013
:101C0000EC8FFF1F04A0064003A0064007A006407B
:101C100000F00F00092801D8303000E03730FFF71E
:101C2000B3BF2DE9F84F254B1B6807465805894679
:101C300042D5234B9B680BB101221A70204C3E46C3
:101C4000A34632E0A5789BF8038001353F2D88BF7D
:101C50000025A84507D0631916F8012B1A73012334
:101C60002371A57021E0174BDFF860A0BC221A7029
:101C7000FFF704FA402810DC9AF80030190610D556
:101C8000E37801333F2B88BF00230BEB0302117B6A
:101C90000D4A11708BF8033003E0FF2801DD01F0DD
:101CA000EBF9E3784345E3D0D5E707EB09039E4220
:101CB000C8D3044BBC221A70BDE8F88F34800440AE
:101CC000EC8FFF1F03A0064007A0064004A00640BB
:101CD00010B5044C01E001F0CFF92379002BFAD1C3
:101CE00010BD00BFEC8FFF1F034A10785378984255
:101CF00038BF4030C01A7047EC8FFF1F084A117878
:101D00005378994208D001333F2B88BF0023D11864
:101D100091F84C00537070474FF0FF30704700BF90
:101D2000EC8FFF1F074A11785378994207D001338F
:101D30003F2B88BF0023D31893F84C0070474FF017
:101D4000FF307047EC8FFF1F094B1B685B050ED5FA
:101D5000084B1A7802F0CB021A70074A4021117022
:101D60001A7842F034021A70044B5A781A7070478D
:101D70003480044003A0064011A00640EC8FFF1FF2
:101D8000F0B5304B1B7813F0300F21D072B62E4BCC
:101D9000197831B90F3B40221B782C4B1A7062B670
:101DA00016E062B62A4B2B4C1A7858781D46531C05
:101DB0003F2B88BF00238342267803D0EA1882F89D
:101DC0004C601A46013911F0FF01F0D1204B1A7016
:101DD000214B1B7818465BB2002B1EDA19490B7891
:101DE0001B061AD51A4A1B4E97781C4DD378BB4256
:101DF0000AD001333F2B88BF00230C78D418247BF2
:101E000034702C78072CF2D9114AD3700D4B1B7803
:101E10001A0602D5104B7C221A7000F04003DBB288
:101E200073B1084B1B7803F04003DBB243B1084B9E
:101E300000221A719B6803B11A70074B3C221A707A
:101E4000F0BD00BF04A0064016A0064011A0064049
:101E5000EC8FFF1F07A0064003A0064014A0064019
:101E600038B5451E07E00A2C02D10D20FFF78CFE85
:101E70002046FFF789FE15F8014F002CF3D138BD3D
:101E800010B504460009FFF7C3FE2046BDE8104028
:101E9000FFF7BEBE10B50446000AFFF7F1FF20466B
:101EA000BDE81040FFF7ECBF10B50446000EFFF789
:101EB000E7FF200CFFF7E4FF200AFFF7E1FF2046D1
:101EC000BDE81040FFF7DCBF144B1A6842F4006213
:101ED0001A60134A0023137053709370D3701371F8
:101EE000104A40F2133111604FF4517151600E4AA3
:101EF000C0F344311170C0F3471100F01F0051705E
:101F0000907293701374094B2C221A70084B402264
:101F10001A70084B4FF400421A6070473480044036
:101F20007890FF1F0CB0044000B0064003B006409C
:101F30002FE400E004E100E0134A137800F003010D
:101F400003F0EC030B43410748BF43F01003137049
:101F500000F00F03042B04D10C4B1A7842F040021E
:101F60001A700B4A1378C10603F0EF0348BF43F021
:101F700010031370054A1378810603F0EF0348BF7E
:101F800043F010031370704702B0064006B00640DD
:101F900005B006400D4B1B68180510B503D410BDE5
:101FA00001F06AF800E00A4C2379094A002BF7D1C6
:101FB00008494FF400400860074908480B7040F298
:101FC0000311016041601370537010BD34800440F0
:101FD0007890FF1F84E100E003B006400CB004409D
:101FE0001A4B1B681A052DE9F04106462BD5184DF2
:101FF000184FAC78DFF864800134272C88BF0024A8
:1020000015E0FFF73BF840280DDC3B781B060ED5AA
:10201000EB780133272B88BF0023EA18527988F820
:102020000020EB7003E0FF2801DD01F025F8EA78DD
:10203000074BA242E5D01A19567101221A719C7001
:10204000054BAC221A70BDE8F08100BF348004401B
:102050007890FF1F04B0064003B0064007B006406A
:1020600038B54518044603E014F8010BFFF7B8FF34
:10207000AC42F9D138BD10B5034C01E000F0FCFFD3
:102080002379002BFAD110BD7890FF1F034A1078F6
:102090005378984238BF8030C01A70477890FF1F3D
:1020A000084A11785378994208D001337F2B88BFB2
:1020B0000023D11891F82D00537070474FF0FF3076
:1020C000704700BF7890FF1F074A117853789942F4
:1020D00007D001337F2B88BF0023D31893F82D003E
:1020E00070474FF0FF3070477890FF1F014B5A78D0
:1020F0001A7070477890FF1F10B5204B1B7803F0C3
:102100002003DBB273B11E4B1E4A18781378517846
:1021100001337F2B88BF00238B4203D0D11881F875
:102120002D00137018490B7818465BB2002B14DA97
:10213000124B1B781B0610D5124A9478D3789C4218
:1021400002D16C230B7008E00133272B88BF0023DA
:10215000D1184C790A490C70D37000F04003DBB2FF
:102160005BB1064B1B7803F04003DBB22BB1054B90
:1021700000221A71044B2C221A7010BD04B00640C4
:1021800007B006407890FF1F03B00640154B1A6851
:1021900042F480521A60144A0023137053709370F3
:1021A000D3701371114A40F2133111604FF4517121
:1021B00051600F4AC0F344311170C0F3471100F071
:1021C0001F0051709072937013740A4B2C221A7076
:1021D000094B40226FF44B711A705B184FF40032B8
:1021E0001A607047348004402591FF1F08C00440E6
:1021F00000C0064003C0064031E400E0134A1378F3
:1022000000F0030103F0EC030B43410748BF43F028
:102210001003137000F00F03042B04D10C4B1A7839
:1022200042F040021A700B4A1378C10603F0EF0324
:1022300048BF43F010031370054A1378800603F07B
:10224000EF0348BF43F010031370704702C006400D
:1022500006C0064005C006400D4B1B68D80410B5EB
:1022600003D410BD00F008FF00E00A4C2379094AAE
:10227000002BF7D108494FF400300860074908489F
:102280000B7040F20311016041601370537010BD78
:10229000348004402591FF1F84E100E003C0064024
:1022A00008C004401A4B1B68DA042DE9F0410646C9
:1022B0002BD5184D184FAC78DFF864800134272CEB
:1022C00088BF002415E0FEF7D9FE40280DDC3B78DE
:1022D0001B060ED5EB780133272B88BF0023EA18A5
:1022E000527988F80020EB7003E0FF2801DD00F050
:1022F000C3FEEA78074BA242E5D01A1956710122B3
:102300001A719C70054BAC221A70BDE8F08100BFB9
:10231000348004402591FF1F04C0064003C00640DE
:1023200007C0064038B54518044603E014F8010B11
:10233000FFF7B8FFAC42F9D138BD10B5034C01E04E
:1023400000F09AFE2379002BFAD110BD2591FF1FD2
:10235000034A10785378984238BF4030C01A70470B
:102360002591FF1F084A11785378994208D001330C
:102370003F2B88BF0023D11891F82D005370704770
:102380004FF0FF30704700BF2591FF1F074A1178BB
:102390005378994207D001333F2B88BF0023D318CD
:1023A00093F82D0070474FF0FF3070472591FF1FC5
:1023B000014B5A781A7070472591FF1F10B5204BBA
:1023C0001B7803F02003DBB273B11E4B1E4A187852
:1023D0001378517801333F2B88BF00238B4203D001
:1023E000D11881F82D00137018490B7818465BB28C
:1023F000002B14DA124B1B781B0610D5124A947866
:10240000D3789C4202D16C230B7008E00133272B58
:1024100088BF0023D1184C790A490C70D37000F0A2
:102420004003DBB25BB1064B1B7803F04003DBB229
:102430002BB1054B00221A71044B2C221A7010BDCF
:1024400004C0064007C006402591FF1F03C0064098
:102450001FB572B6124B70221A70124A41211170C8
:102460000F2102F8011C80221A701A781206FCD57E
:1024700062B60D4B01A918680A22FEF725FE0B482B
:10248000002301AA9A5C2AB100EB430101330A2B15
:102490004A80F6D10133054A5B00137005B000BDD8
:1024A0000000024007000240080002403A84FF1F7B
:1024B00070B50C4B0C4C1A7842F0020504EBC506C3
:1024C00082F00102706058781A7000280CBF8826CC
:1024D000C82646EA014180F0010044F835105870E2
:1024E00070BD00BF9491FF1F0080FF1F431E032B90
:1024F00010B510D872B6094A02EB8302506808B1D1
:1025000041685160064A018832F81340611A22F886
:10251000131062B610BD002010BD00BF9491FF1FC4
:102520005096FF1F013803280DD8084B03EB80009D
:10253000436972B6002002E01A885B688018002B9D
:10254000FAD162B670470020704700BF9491FF1F18
:10255000013803280CD872B6064B03EB80004369A0
:10256000002001E05B680130002BFBD162B67047B0
:10257000002070479491FF1F70B572B61A4E1B4C25
:1025800001239A1912F8012C02F00802D2B2F2B11A
:102590009900164A54F831502DB902EB4313083014
:1025A0005860134B09E041F0010154F8315075B9FE
:1025B00002EBC103083058600E4B42F831300E4B2D
:1025C00093F82420013A83F8242062B670BD0133C9
:1025D000052BD6D162B6084B002283F82420BDE833
:1025E000704000F0D5BB00BFD4BD00000080FF1FCD
:1025F00088004000C80040009491FF1F421E032A3B
:1026000030B533D840011A4B40F01000181872B69C
:10261000184CA31893F82530032B09D8DFE803F0F2
:10262000130215050830022310E0083004230DE0E2
:102630009200A318586908B9596101E0DB6A596032
:10264000A218D16211E0032300E00523A21810F0C4
:10265000080F82F8253001F108030A8843600CBF97
:102660008823C82343EA0243036062B630BD00BF3B
:102670000080FF1F9491FF1F00BE70472DE9F74FA8
:10268000A94EAA4C357805F00403DBB2BBB1A84BC8
:1026900093F844208AB193F845202AB1013AD2B286
:1026A00083F8452002B900BEA24A13782BB1013B42
:1026B000DBB213700BB900F0C3FC0423337005F0D8
:1026C0000802D2B2002A00F095829B4B1B781D09AC
:1026D0004FEA930940F0008204EBC903596854F8AB
:1026E0003930C3F38303013B0C2B00F2F181DFE8A7
:1026F00013F0A601A601EF01EF01EF01EF01EF01D9
:10270000EF01C401EF01EF01EF010D004B688848B4
:102710000A68C364894B826440F2816592B244F8CE
:10272000393001210023AA4203652361A36141706E
:1027300019D8B2F5D06F80F02881B2F5817F00F012
:10274000E18006D8802A00F0C180822A40F03C81D6
:10275000C1E040F202318A4200F00681B2F5A06F7A
:1027600040F0328134E1B2F5106F10D004D8B2F5E8
:10277000086F40F02981A2E042F221018A4200F074
:102780005B8101F500718A4240F01E8117E190F8EB
:102790004A30664D80F844302B6A180603D5686AC3
:1027A000083800F0F5FA664908358D42F4D1DFF8B3
:1027B000B0B10025A846D9460BF1500A55F80B00D8
:1027C00005E04368009300F0E3FA009B18460028F8
:1027D000F7D15C4B49F8050045F80A00E85807E0D6
:1027E00042680093019200F0D3FA019A009B1046D0
:1027F0000028F5D15851544BE850544B23F8180099
:10280000534B18F80320023A032A08D8DFE802F0F5
:1028100002040204002200E0012203F8082008F16B
:1028200001080435B8F1040FC8D1414BDFF83491E9
:10283000002283F8242001259846464B05EB090227
:10284000EB1812F8012C9B001A7002F00802D2B2A9
:102850003AB300F07FFAAB0038B104EB4512083010
:1028600050603D4A44F8332006E044F8330098F8BD
:102870002430013388F8243000F06CFAAB0043F0C8
:10288000010338B104EBC302083050602B4A44F80E
:10289000332006E044F8330098F82430013388F8F8
:1028A0002430AA0042F00201013542F00302002365
:1028B000052D44F8313044F83230BED188E090F82C
:1028C0004430054605F83C3F0B4686E080F83C3036
:1028D00080F83D307EE0B0F84C20042A00D973E047
:1028E00080F83C3080F83D301C4B9200D3181B78A8
:1028F00003F00203DBB2002B6CD00546022305F87F
:102900003C1F6AE0B0F84C2002F07F03042B5BDC34
:10291000B0F84A3003B157E09100104A8A18117894
:1029200021F002014EE000BF802007400080FF1F21
:102930009491FF1F8992FF1F90200740C80040001C
:102940008080FF1FA891FF1FC091FF1F5096FF1F9F
:10295000B991FF1F30C8011088004000C020074017
:102960009891FF1FD4BD0000B0F84C2002F07F0307
:10297000042B29DCB0F84A3003B125E09100AF4ABE
:102980008A18117841F002011CE0B0F84A20B0F832
:102990004C10AB4B53F8085CA3F10C00A5B133F815
:1029A0000CCC944509D133F80ACC8C4505D1120AD8
:1029B000032A0CBF2B7803890FE00C33EAE790F869
:1029C0004A10A04A117003E09C4B0F221A7033E0AA
:1029D0001D4602E0022300F13C059B4AB2F84E90EE
:1029E0004B4538BF9946B9F1400F34BFC8464FF048
:1029F000400828464146FFF75BFDB9EB080945440E
:102A000003D1B8F1400F07D016E0B9F1400F34BF41
:102A1000C8464FF0400800E0C84628464146FFF748
:102A200047FDB9EB0809454402D1B8F1400F03D185
:102A3000854A1565A2F864900122844B47E0824BD9
:102A4000B3F8482042F221039A4212D1804A00236F
:102A5000C85C98540133072BFAD17D4B1B68862B39
:102A600003D1794B0F2283F8452000200146FFF760
:102A70001FFD784B44F839302AE0DFF8CC91D9F8C3
:102A80005080B8F1000F16D0B9F864A0BAF1400F29
:102A900034BF5546402540462946FFF709FDC5EBA2
:102AA0000A039BB2A9F864300BB9402D01D108EBA1
:102AB0000503654A1365644BB3F84820B2F5A06F6F
:102AC00006D1002283F8492093F84A20624B1A70FD
:102AD0005E4B01221A708AE004EBC90803F0080378
:102AE000D8F80420013DD9B2A2F10800EDB20029C6
:102AF00045D000F04DF9544B03EB8500416921B3FB
:102B00004A68426101F10802C8F804205A1992F893
:102B10002520032A10D8DFE802F00205080B5D1912
:102B2000032307E05D19022304E05D19052301E09A
:102B30005D19042385F8253018F0080F0A880CBFAA
:102B40008823C82343EA02434FE05A1992F825200C
:102B5000032A0BD8DFE802F04B4B02055D19002376
:102B600001E05D19012385F8253040E018F0080FD9
:102B70001D440CBF0222032285F8252037E054F8BB
:102B800039301B0C22F8083C4BB322F8061C42F8E3
:102B9000041C2D4A4FEA850E02EB0E0194464A684A
:102BA0000AB9486001E04A6D50600CEB0E02DFF894
:102BB00098A05065294A32F815105B1822F8153094
:102BC00000F0C8F818B10830C8F8040007E09AF817
:102BD000243044F8390001338AF8243007E01D4BD3
:102BE0001F4A18F0080F08BF134644F8393008236D
:102BF000337047E5E9073DD5134C1448184D21467D
:102C00000223037001F8682B164BA8341D6059602D
:102C10001A619A619D60DC60084B0D2119701249A0
:102C2000FF230B7001F8083C0A74104A1370104B14
:102C30009F221A700123037035E000BFC0200740B7
:102C4000E4BD00008A92FF1F9491FF1F942007406B
:102C50005896FF1FC8004000982007405096FF1F5D
:102C6000880040000080FF1F882007408C2007401C
:102C7000842007402B0605D50C4B0D221A708022AC
:102C800003F8402C05F00203DBB22BB1084B1A7895
:102C90001A70022203F8082C05F01005EDB215B1E8
:102CA000044B10221A70BDE8FE8F00BFC020074001
:102CB000882007408020074008B5FFF7C9FB0023A4
:102CC0001E491A465A50C8180833882B4260F9D159
:102CD0001B4B1A6842F480221A601A4B80221A7029
:102CE0001978184A0906FBD4144B1749C3F3072077
:102CF0000870C3F307401B0E08750B76FF2301F81D
:102D00001C3C01F8143C01F88C3C137843F0400360
:102D100013700021012302F8783C02F80C1C02F821
:102D2000883C0A4B70226FF4507C1A7063444FF455
:102D300000721A60064B10221A7008BD0080FF1F37
:102D4000348004400C2107409C20074049E400E007
:102D50000821074072B60C4A1168B1FA81F30B2BB7
:102D600002D962B6002070474FF0004020FA03F00D
:102D700021EA0001116062B6044948225343C81891
:102D80000022CA5042607047D884FF1FA080FF1FF6
:102D90000C4B4822C31AB3FBF2F30B2B11D80A4A8F
:102DA000127822B1094A12780AB1FFF7E5BB72B670
:102DB000074A4FF0004121FA03F3116819431160EB
:102DC00062B67047A080FF1FB891FF1FD891FF1F08
:102DD000D884FF1F38B5114C23684BB10F4D2868BC
:102DE0004288811801320C7A01888A4212D30CE0A1
:102DF0000B4B1B7813B94FF0FF340CE00320FFF7A7
:102E000075FB20600028E9D1F5E7FFF7C1FF00233B
:102E10002B6000E04280204638BD00BF7C92FF1F3F
:102E2000D891FF1F10B50C4C23681BB10A4B1B68CF
:102E30006BB902E0094B1B7813B94FF0FF3010BD9E
:102E40000320FFF753FB20600028EFD1F5E75A88F5
:102E50009B18187A10BD00BF7C92FF1FD891FF1FEE
:102E6000044B9888044B1B681BB11A885B88D31AE3
:102E7000C01870475096FF1F7C92FF1F2DE9F04746
:102E80000E4681464FF00008DFF868A0184F2AE090
:102E90009AF800304BB33B684BB90320FFF726FB91
:102EA000386010B3038813B9FFF772FFF5E73C6889
:102EB000618825886D1AAE4238BF354608314846CC
:102EC0002A46611803F016FC6388A944A844761BBF
:102ED000ED182388ADB2AB42658004D82046FFF7D9
:102EE00057FF00233B60002ED2D14046BDE8F0875B
:102EF0007C92FF1FD891FF1F10B5094B1B786BB157
:102F0000084C206818B1FFF743FF0023236003201B
:102F1000FFF7ECFA10B1FFF73BFFF8E710BD00BF79
:102F2000D891FF1F7C92FF1F2DE9F8432B4CDFF84F
:102F3000B08001230D462371064647E0A3681BBB02
:102F400047F209574FF0010998F8003013B9234AA6
:102F5000137112E00420FFF7FBFA072806D884F863
:102F60000490FFF7F7FEA06070B92071013F01D017
:102F7000237B33B1194B01221A734FF0FF30BDE8A8
:102F8000F88300F079F8DFE7A1684888C0F14002D3
:102F9000954238BF2A4600F10807002380182373A2
:102FA000CF194880AD1A02E0F05CF8540133934227
:102FB000FAD1F6184B883F2B06D940230B8004200A
:102FC000FFF71CFB0023A36005236373002DB5D11D
:102FD000024B28461D71BDE8F88300BF7C92FF1F9D
:102FE000D891FF1F07B502AB012103F8010D184668
:102FF000FFF79AFF0EBD70B50F4B1B78DBB10F4C7E
:10300000A568012626714DB16B88002666730420E1
:103010002B802946FFF7F2FAA66009E0FFF79AFE37
:10302000014620B104206573FFF7E8FA00E06673FB
:10303000024B00221A7170BDD891FF1F7C92FF1FB6
:1030400038B50C4C25799DB9A16831B14B88042065
:103050000B80FFF7D3FAA56038BDFFF77BFE014672
:1030600020B10420BDE83840FFF7C8BA01236373DC
:1030700038BD00BF7C92FF1F704710B5084614464C
:103080001146FEF7CEFD204610BD084608B5FEF7F6
:103090007BFD012008BDFEF757BEFEF719BEFEF707
:1030A0002DBEFEF73FBEFEF71FBE0846FEF754BD1D
:1030B000FEF72CBD480800F1B76000F55840B0FBA2
:1030C000F1F0FEF7B3BC480800F1B76010B500F5A9
:1030D0005840B0FBF1F01446FEF7A8FC2046BDE8CE
:1030E0001040FEF7E5BCFFFF044B00221A711A7373
:1030F000034A4FF47A7199601A6070478C92FF1FEF
:1031000038BE000010B5084614461146FEF7A8FF69
:10311000204610BD084608B5FEF762FF012008BD35
:10312000FEF7E4BFFEF7A7BFFEF7BABFFEF7CCBFBE
:10313000FEF7ACBFFEF72EBF480800F1B76000F500
:103140005840B0FBF1F0FEF7BFBE480800F1B76091
:1031500010B500F55840B0FBF1F01446FEF7B4FE90
:103160002046BDE81040FEF7E7BEFFFF044B0022FB
:103170001A711A73034A4FF47A7199601A60704792
:103180009C92FF1F70BE000010B508461446114601
:10319000FFF7C8F8204610BD084608B5FFF782F8CB
:1031A000012008BDFFF704B9FFF7C7B8FFF7DAB889
:1031B000FFF7ECB8FFF7CCB8FFF74EB8480800F1BE
:1031C000B76000F55840B0FBF1F0FEF7DFBF4808EC
:1031D00000F1B76010B500F55840B0FBF1F01446AF
:1031E000FEF7D4FF2046BDE81040FFF707B8FFFF09
:1031F000044B00221A711A73034A4FF47A719960D2
:103200001A607047AC92FF1FA8BE0000014B03601C
:10321000704700BFE0BE00000369D3F84422B2F556
:10322000817F09D8D3F844229818013280F83C11E4
:10323000C3F8442201207047012303710020704726
:10324000036930B5D3F84442B4F5817F1CD8D3F874
:103250004442D3F84452C4F5817401345B19A2424C
:1032600003F59E7502D9012303712246002302E073
:10327000CC5CEC5401339342FAD10369D3F8441285
:103280005118C3F8441202E00123037100221046D2
:1032900030BD002202710273064A417310B502600C
:1032A0004FF47A74044A84604FF4187404FB0121CB
:1032B000016110BDE0BE0000DC84FF1FF0B59DF889
:1032C00014409DF818509DF8206029B94C4FD7F84C
:1032D00000C04CF0400C06E0012906D1484FD7F859
:1032E00000C04CF0800CC7F800C0002780F84B727B
:1032F00080F84822476932B920233B7003681A706E
:10330000C3691A7014E0002C0CBF202228223A70E6
:10331000076801D0A34201D25A0000E062003A706F
:10332000C26924B1A34201D2640000E05C001470C1
:103330009DF81C3040F20362002B40F2646440F2BE
:10334000032308BF4FF4197308BF224671B9012D3A
:1033500005D12C4A80F849521360536018E02A4A7C
:1033600080F84912136042F8043C11E001290FD1A2
:10337000032D06D1254B80F849521A6043F8042CDE
:1033800006E0022280F84922214A136004321360C9
:1033900043680A2E1BD8DFE806F01A06080A0C0E4E
:1033A0001012141618001F2212E01D2210E08522B0
:1033B0000EE014220CE045220AE00D2208E00B2268
:1033C00006E0092204E0022202E0002200E02722B7
:1033D0001A70836904221A7090F8482283680AB927
:1033E000802200E0C0221A7011B94FF0807203E011
:1033F000012903D14FF00072064B1A60F0BD00BFE7
:103400003480044000A004400CA0044004D00440D8
:1034100028B0044000E100E02DE9F8431C46C368F1
:103420001B7803F02003DBB207460E469046002BC4
:103430005CD1002C40F2032540F2036340F2646942
:1034400008BF4FF4197518BF994641BB012A11D125
:103450001220002C14BF02210021FEF7B9F813201E
:10346000002C14BF02210021FEF7B2F887F8498230
:10347000214B38E01020002C14BF02210021FEF760
:10348000A7F81120002C14BF02210021FEF7A0F89C
:103490001A4B87F849621D6043F8045C29E0012952
:1034A00027D1002C14BF02240024032A0FD11D2091
:1034B0002146FEF78DF81E202146FEF789F8104BB5
:1034C00087F84982C3F8009043F8049C11E01A2061
:1034D0002146FEF77DF81F202146FEF779F80223EA
:1034E00087F84932074B1D605D6002E00020BDE8AF
:1034F000F8830120BDE8F88300A004400CA004403C
:1035000004D0044028B004400369490083F83C110A
:1035100003690122C3F844220022027183F84B227E
:103520007047D0F8443210B53BB3C36812221A700A
:1035300083681A7802F02002D2B20AB1B42209E0FC
:10354000C468227802F02002D2B2002AF9D180F8B1
:103550004822B0221A70012380F84B320023C0F8B1
:103560004032836880F84A12F0221A70D0F8402264
:103570000369801890F83C211A7010BD30B54AB329
:10358000C0F850220022C0F83421C0F83821C268A7
:10359000122414708268147804F02004E4B20CB190
:1035A000B42409E0C5682C7804F02004E4B2002CAF
:1035B000F9D180F84842B024147080F84A320222CF
:1035C000836880F84B22F0221A704900036941F0A9
:1035D0000101197030BD036993F84B32043B032B92
:1035E00007D8DFE803F004020B0402207047042030
:1035F00070470079003018BF0120704703207047E2
:1036000090F84B326BB190F84B32052B09D090F803
:103610004B32062B05D090F84B02C31F584258413D
:1036200070470120704770B504460D46FEF73AF921
:1036300006462046FFF7E4FFD0B9002DF9D0FEF78B
:1036400031F9801BA842F4D312E094F84B32022BDC
:1036500012D094F84B32032B0ED0A023013B7FF401
:10366000FDAF94F84B02D0F1010038BF002070BDCF
:1036700094F84B32012BE8D1042384F84B32ECE769
:1036800010B504460AB9002010BDFFF777FF2046A9
:103690000299FFF7C8FF0028F5D0D4F8380110BD13
:1036A00038B5044615460069FFF73BFF20692946F7
:1036B000FFF7B9FF2046BDE83840FFF78CBFD0F8D0
:1036C0003411D0F838219142034608D2D0F8342181
:1036D0008118013291F83000C3F8342170474FF05F
:1036E000FF307047D0F83421D0F838319A4205D2F3
:1036F000D0F83431C01890F8300070474FF0FF30E8
:103700007047D0F83411D0F838219142034608D2DE
:10371000D0F834218118013291F83000C3F83421F7
:10372000704700207047D0F83421D0F838319A42E1
:1037300005D2D0F83431C01890F83000704700201E
:10374000704738B5C16883680D781A78044602F06E
:103750002000C0B2002800F0AC8002F01002D2B20B
:10376000002A4DD094F84B22012A1CD115F00105F6
:10377000D4F8402206D002B927E0062284F84B2272
:1037800080220DE10132C4F84022D4F844128A426A
:1037900002D384F84B522CE0D4F840222369A218BB
:1037A00092F83C21FCE094F84B22022A1DD105F04E
:1037B0001002D2B23AB1072284F84B2280221A704A
:1037C000E36812221FE1EA0701D50522D6E70322AA
:1037D00084F84B22D4F85022012A01D1E82200E0DB
:1037E000E0221A7023691B780BE194F84B22042A1B
:1037F000C6D194F84A22012A00D1C1E7B022CFE015
:10380000D4F83811D4F850220231914200F0FD80F2
:1038100094F84B22042A04D194F85522002A00F08F
:10382000F480D4F83821D4F8503201329A4280F032
:10383000EF8094F84B32042B40F0F38094F855322B
:10384000002B40F0E580ECE084F84B32A368B02216
:103850001A7023691978D4F83831B3F5817F07D805
:10386000D4F83831E218013382F83010C4F8383116
:1038700094F84A32012B06D11023013B7FF4FDAFAF
:10388000A36880221A7094F84B3207E0D4F83831DC
:10389000E118013381F83020C4F8383194F84B3204
:1038A000042B40F0AE8094F85532002B00F0C2801B
:1038B000A7E005F01003DBB233B110230B7005F065
:1038C0004003DBB203B99CE015F0400150D094F8FE
:1038D0004B32092B04D1D4F85832002B40F0AE8083
:1038E00015F004051DD0082384F84B320023C4F8DA
:1038F0004432D4F85C3203B19847D4F844320BB95F
:1039000084F83C31A368D0221A7023691A785208CF
:1039100084F84C2294F83C211A700123C4F84032F8
:103920006FE094F8492284F854520AB9122002E058
:10393000012A02D11120454903E0022A03D144495A
:103940001E20032203E0032A03D141491F20FDF773
:1039500017FC092384F84B320023C4F83831A368DC
:10396000C0221A7023691B785B0884F84C3248E047
:1039700012F010021ED015F0010513D1D4F8402228
:10398000D4F844329A4207D2D4F84032E2180133D4
:1039900092F83C51C4F8403223691D70A368D022CC
:1039A0001A702EE0A368C0221A7023691B7884F86D
:1039B0004B1226E084F8542294F849220AB91220C6
:1039C00002E0012A02D11120204903E0022A03D19A
:1039D0001F491E20032203E0032A03D11C491F2094
:1039E000FDF7CEFB23691978D4F83831B3F5817F20
:1039F00007D8D4F83831E218013382F83010C4F80F
:103A00003831E36802221A7038BDE8221A7008E7DC
:103A100094F84B220023042A84F855327FF414AF23
:103A200014E723691A78D4F83831B3F5817F7FF62B
:103A30002DAF33E7012384F85532E2E70022C4F8C2
:103A40003421D4F8380198474AE700BF093B000009
:103A5000FD3A000001480121FFF773BE3C87FF1FBC
:103A600001480021FFF76DBEDC84FF1F10B5C3685D
:103A70001B7813F0200304461ED180F84B3290F8D7
:103A800049320BB912200AE0012B01D1112006E0C6
:103A9000022B01D11E2002E0032B02D11F20FDF7D3
:103AA00099FBD4F85832002B27D00022C4F83421D7
:103AB000D4F83801984710BD90F854320133DBB286
:103AC000012B80F8543213D890F84832012B0FD1D3
:103AD00010BD122008E01120012B05D01E20022B62
:103AE00002D0032B09D11F20BDE81040FDF772BBA7
:103AF00094F84932002BEED1EBE710BD01480121CB
:103B0000FFF7B4BF3C87FF1F01480021FFF7AEBF9E
:103B1000DC84FF1F0369D3F83801D3F83431C01AAD
:103B2000704770470069FFF7CABD0069FFF7DABD4B
:103B300070B50C4C0C4E0D4D00212046FFF7A9FB33
:103B40002A4631462046143402F0B6FA01212046B6
:103B5000FFF79FFB204631462A46BDE8704002F041
:103B6000ABBA00BFBC92FF1F0D3200000084FF1FE4
:103B700008B5034B01221A60024B1B68984708BD29
:103B80000C710340E492FF1F08B5034B01221A6039
:103B9000024B5B68984708BD1C710340E492FF1F0D
:103BA00008B5034B01221A60024B9B68984708BD79
:103BB0002C710340E492FF1F08B5034B01221A60E9
:103BC000024BDB68984708BD3C710340E492FF1F3D
:103BD000054B1A6842F400021A60044B00221A6076
:103BE000034B01221A7470473C800440007003406C
:103BF000E492FF1F054B01221A60054B1A6822F45C
:103C000000021A60034B00221A74704700700340D0
:103C10003C800440E492FF1FF0B54478104D114FF2
:103C200023015A194260104A9E18866004F1440626
:103C30000673066947F8246000249C5059510321FB
:103C40009950037B5A11920002F1604202F56142E1
:103C500003F01F03012101FA03F31360F0BD00BF5D
:103C600000710340E492FF1F08710340F8B50D4B4B
:103C70001B7C06460F460BB9FFF7AAFF0024094D2F
:103C800005F11102A25C42B97470304639462C1914
:103C9000FFF7C2FF01206074F8BD0134042CEED19F
:103CA0000020F8BDE492FF1F037B0122591103F0AD
:103CB0001F0302FA03F3094A42F821308268002305
:103CC00013604178064A511811324B74995C21B93E
:103CD0000133042BFAD1FFF78DBF704780E100E07C
:103CE000E492FF1F037810B504460BB1FFF7DCFF29
:103CF0000023237010BD037870B504460D461646A8
:103D00001BB1FFF7D1FF0023237025612046314608
:103D1000FFF7ACFF10B10123237000E02070207882
:103D200070BD00BFF7B5FCF7B7FD00F0A4FC00F0D4
:103D300023FDFCF7F9FDFA20FDF7D4FDA64CFCF7B6
:103D400001FE04F13405A54FFCF7FCFD3B78012B87
:103D500017D1A34BA3481978A34B90F800E01A7829
:103D6000A248A34BA34E1B780078B37031707270D9
:103D700086F803E03071CDF800E0FCF7A1FD0023E8
:103D80003B702368944E052B00F20181DFE803F0BD
:103D9000030C192375839848FCF774FDFCF7D2FFD8
:103DA000FCF7ECFF012314E09448FCF76BFD914B0A
:103DB0001B78312B01D102233360FA20FDF792FDED
:103DC000E8E08F48FCF75EFD00F0AAFEFCF766FF16
:103DD00003233360DEE0874E8A48FCF753FDB36867
:103DE000002B18DC8848FCF7A9FE0028F06003DDF2
:103DF0000123B360854803E004D000238448B36006
:103E0000FCF740FD7B4B9B68002B04DDFCF776FF45
:103E10008048FCF737FDFA20FDF764FD666A00F084
:103E20002DFE626A7C490023A6190132032A08BFCD
:103E30001A46626286F8280084F82B301A4605E09C
:103E4000505C312801D10133DBB20132022AF7DDA7
:103E5000032B84F82B30E262664B01D131221A74B5
:103E60001A7C312A02D15C4A042111601B78302B64
:103E700040F09080002323608CE06848FCF702FD4E
:103E8000FCF74EFFFDF772F8012802D06448FCF7FA
:103E9000F9FC05239DE76348FCF7F4FC5A48FCF75E
:103EA0004DFE544B0028D86039DD01229A60002372
:103EB000236349490A1D985C58550133032BF8DDEB
:103EC00000230B631646F018E918407A424A4872FC
:103ED0000133072BF7DD00231363161DF018E918D3
:103EE00000793D4A08710133042BF7DD0023136389
:103EF000161DF018E918407C374A48740133072B27
:103F0000F7DD002313630432D018E918407E013333
:103F1000052B4876F8DD304A3C48136303E004D0B3
:103F200000223B489A60FCF7ADFC324E7369B3F552
:103F3000F07F22DB3C48FCF7A5FCB368B3B13B48FB
:103F4000327CA0F11F01FCF704FF3948FCF79AFC12
:103F50003648FCF797FCD4F8543153B10023334969
:103F60003448C4F85431FCF7CDFF02E03248FCF786
:103F700089FC204B00225A6101E0013373611D4B23
:103F80001B78302B7FF419AF0023236015E72B48F3
:103F9000FCF778FCFEF764FF18B1FEF71BFF84F80E
:103FA000580194F85831612B7FF4CDAE114B1A783B
:103FB000312A06D1302222481A701A74FCF762FCAA
:103FC00006E031221F481A70FCF75CFC00F0A8FDE7
:103FD000002384F85831B6E6FC92FF1F5C8FFF1F68
:103FE0002884FF1F2B84FF1F2984FF1F2784FF1FA6
:103FF0002A84FF1F9C89FF1FF8BE000003BF00003A
:1040000033BF000069BF00000093FF1F0FBF000017
:104010000DBF000018BF00002493FF1F31BF000038
:104020003BBF000067BF000070BF00004F93FF1F41
:104030008EBF0000ACBF0000B8BF0000C5BF0000CD
:10404000DEBF0000F0BF000070B50D4C03460D460A
:10405000204619461646FFF757FA29462046FFF72D
:10406000DBF831462046FFF7D7F801212046002231
:10407000FFF716FB20690021BDE87040FFF7D3BAB7
:10408000BC92FF1F2DE9F341174C07460D46204611
:1040900039461E469046FFF737FA29462046FFF775
:1040A000BBF800210A4600252046FFF7F9FA012354
:1040B0003246394600952069FFF7E2FA2069294621
:1040C000FFF7B1FA2369D3F83821D3F834319A4293
:1040D00006D107E02069FFF714FB08F80500013559
:1040E000B542F7DBBDE8FC81BC92FF1F704708B505
:1040F0006B48FCF7C7FB682019210122FFF7A4FFDA
:1041000068201A210322FFF79FFF68201B21082245
:10411000FFF79AFF68201C210822FFF795FF68200F
:104120001D210022FFF790FF68201E210022FFF7CB
:104130008BFF68201F210022FFF786FF202100222D
:104140006820FFF781FF682021210022FFF77CFF14
:10415000682022210022FFF777FF68202321002218
:10416000FFF772FF682024210022FFF76DFF68200F
:1041700025210022FFF768FF682026210022FFF793
:1041800063FF682027210022FFF75EFF68200022DE
:104190002821FFF759FF682029210022FFF754FF4B
:1041A00068202A210022FFF74FFF68202B210022E0
:1041B000FFF74AFF68202C210022FFF745FF682007
:1041C0002D210022FFF740FF68202E210022FFF75B
:1041D0003BFF68202F210022FFF736FF68203021A7
:1041E0000022FFF731FF682031210022FFF72CFF6A
:1041F000682032210022FFF727FF682033210022A8
:10420000FFF722FF682034210022FFF71DFF6820FE
:1042100035210022FFF718FF682037210022FFF721
:1042200013FF682038210022FFF70EFF682063216A
:104230000022FFF709FF682064210022FFF704FF36
:10424000682065210022FFF7FFFE6820662100221A
:10425000FFF7FAFE682067210022FFF7F5FE6820CD
:1042600001460022FFF7F0FE682069210022FFF7D7
:10427000EBFE68206A210022FFF7E6FE68206B2132
:104280000222FFF7E1FE682000226C21FFF7DCFE2E
:10429000682074210022BDE80840FFF7D5BE00BFAA
:1042A000FFBF000007B502AA002302F8013D682005
:1042B00075210123FFF7E6FE9DF80700B0F16803C2
:1042C000584258410EBD37B502AD002305F8013DF7
:1042D0006820192101232A46FFF7D4FE9DF80740E4
:1042E00014F1FF3418BF01242A4668201A21012343
:1042F000FFF7C8FE9DF80730032B18BF01342A468C
:1043000068201B210123FFF7BDFE9DF80730082B15
:1043100018BF01340DF1070268201C210123FFF7AB
:10432000B1FE9DF80730082B18BF01340DF10702CC
:10433000012368201D21FFF7A5FE9DF8073003B17A
:104340000134012368201E210DF10702FFF79AFEB8
:104350009DF8073003B10134012368201F210DF1BE
:104360000702FFF78FFE9DF8073003B101340123E8
:10437000682020210DF10702FFF784FE9DF8073029
:1043800003B101340123682021210DF10702FFF759
:1043900079FE9DF8073003B1013401236820222102
:1043A0000DF10702FFF76EFE9DF8073003B10134EF
:1043B0000123682023210DF10702FFF763FE9DF81A
:1043C000073003B101340123682024210DF10702D5
:1043D000FFF758FE9DF8073003B101340123682030
:1043E00025210DF10702FFF74DFE9DF8073003B1BF
:1043F00001340123682026210DF10702FFF742FE58
:104400009DF8073003B101340123682027210DF105
:104410000702FFF737FE9DF8073003B1013401238F
:10442000682028210DF10702FFF72CFE9DF80730C8
:1044300003B101340123682029210DF10702FFF7A0
:1044400021FE9DF8073003B10134012368202A21A1
:104450000DF10702FFF716FE9DF8073003B1013496
:10446000012368202B210DF10702FFF70BFE9DF8B9
:10447000073003B10134012368202C210DF107021C
:10448000FFF700FE9DF8073003B1013401236820D7
:104490002D210DF10702FFF7F5FD9DF8073003B15F
:1044A0000134012368202E210DF10702FFF7EAFDF8
:1044B0009DF8073003B10134012368202F210DF14D
:1044C0000702FFF7DFFD9DF8073003B10134012338
:1044D000682030210DF10702FFF7D4FD9DF8073069
:1044E00003B101340123682031210DF10702FFF7E8
:1044F000C9FD9DF8073003B1013401236820322142
:104500000DF10702FFF7BEFD9DF8073003B101343E
:104510000123682033210DF10702FFF7B3FD9DF859
:10452000073003B101340123682034210DF1070263
:10453000FFF7A8FD9DF8073003B10134012368207F
:1045400035210DF10702FFF79DFD9DF8073003B1FE
:1045500001340123682037210DF10702FFF792FD96
:104560009DF8073003B101340123682038210DF193
:104570000702FFF787FD9DF8073003B101340123DF
:10458000682063210DF10702FFF77CFD9DF80730DD
:1045900003B101340123682064210DF10702FFF704
:1045A00071FD9DF8073003B10134012368206521B6
:1045B0000DF10702FFF766FD9DF8073003B10134E6
:1045C0000123682066210DF10702FFF75BFD9DF8CE
:1045D000073003B101340123682067210DF1070280
:1045E000FFF750FD9DF8073003B101346820012327
:1045F00001460DF10702FFF745FD9DF8073003B1B5
:1046000001340123682069210DF10702FFF73AFD0B
:104610009DF8073003B10134012368206A210DF1B0
:104620000702FFF72FFD9DF8073003B10134682022
:104630006B2101230DF10702FFF724FD9DF80730E0
:10464000022B18BF01340DF10702012368206C21F1
:10465000FFF718FD9DF8073003B1013401236820EE
:1046600074210DF10702FFF70DFD9DF8073003B12E
:10467000013420463EBD1FB50E4B00220320597B5E
:10468000009201920292039018691346FEF716FEFB
:10469000FFF708FE10B10848FCF7F4F8FFF727FD14
:1046A0000A20FDF71FF9FFF70EFE0028F0D105B034
:1046B00000BD00BFBC92FF1F06C0000070B52D4DAD
:1046C00000232B606B60AB6041F28836294C682078
:1046D0004321012304F10C02FFF7D4FC682044219C
:1046E000012304F10D02FFF7CDFC682045210123D1
:1046F00004F10E02FFF7C6FC68204621012304F1F5
:104700000F02FFF7BFFC68204721012304F11002CC
:10471000FFF7B8FC68204821012304F11102FFF7DC
:10472000B1FC6B7B2A7B43EA02222B689B182B602F
:10473000AA7BEB7B43EA02226B689B186B602A7CA6
:104740006B7C43EA0222AB6801209B18AB60FDF74B
:10475000C9F8013EBAD1226841F2883392FBF3F2E4
:104760006261626892FBF3F2A261A26892FBF3F3CA
:10477000E36170BD5895FF1F08B5FFF79FFF024822
:10478000BDE80840FCF77EB814C0000010B5204C0E
:1047900068203B2104F120020123FFF773FC68200D
:1047A0003C2104F121020123FFF76CFC68203D212C
:1047B00004F122020123FFF765FC68203E2104F189
:1047C00023020123FFF75EFC68203F2104F124024D
:1047D0000123FFF757FC04F1250201236820402143
:1047E000FFF750FC94F8202094F8213043EA02238C
:1047F000A36294F8222094F8233043EA0223E36270
:1048000094F8242094F8253043EA0223236310BD52
:104810005895FF1F2DE9F047DFF80CA1DAF82C00BE
:1048200001F030FA00F00EFE0446DAF830000D46D2
:1048300001F028FA00F006FE0646DAF828000F46D6
:1048400001F020FA00F0FEFD3246804689463B46E4
:104850003046394600F04AFE424606460F464B4671
:104860004046494600F042FE02460B463046394675
:1048700000F08AFC00F03CFB02460B46204629462D
:1048800000F05EFF00F098F925A3D3E9002300F0C3
:104890002DFE01F0EDF8CAF83400DAF828004042A5
:1048A00001F0F0F900F0CEFD0446DAF830000D46D4
:1048B00001F0E8F900F0C6FD0646DAF82C000F46D4
:1048C00001F0E0F900F0BEFD3246804689463B46E5
:1048D0003046394600F00AFE424606460F464B4631
:1048E0004046494600F002FE02460B463046394635
:1048F00000F04AFC00F0FCFA02460B46204629462E
:1049000000F01EFF00F058F905A3D3E9002300F0E2
:10491000EDFD01F0ADF8CAF83800BDE8F08700BF42
:10492000F6285C8FC2A54C405895FF1F2DE9F8432F
:104930004F4E68204321012306F10C02FFF7A2FB32
:1049400068204421012306F10D02FFF79BFB68203C
:104950004521012306F10E02FFF794FB6820462152
:10496000012306F10F02FFF78DFB68204721012389
:1049700006F11002FFF786FB06F1110248216820BC
:104980000123FFF77FFB737B307BB57B347C43EAED
:1049900000207369C01AF37BF06343EA0525B3690D
:1049A000ED1A737C356443EA0424F369E41A7464F1
:1049B00001F068F92F4901F06DFA8146B06428468C
:1049C00001F060F92B4901F065FA8046F064204659
:1049D00001F058F9284901F05DFA07463065706D1D
:1049E00000F030FD044648460D4600F02BFD1EA3A6
:1049F000D3E9002300F07AFD02460B462046294603
:104A000000F0C2FB01F034F87065B06D00F01AFDE3
:104A1000044640460D4600F015FD13A3D3E90023DC
:104A200000F064FD02460B462046294600F0ACFB30
:104A300001F01EF8B065F06D00F004FD0446384644
:104A40000D4600F0FFFC08A3D3E9002300F04EFD63
:104A500002460B462046294600F096FB01F008F876
:104A6000F065BDE8F88300BF7B14AE47E17A643F90
:104A70005895FF1F00008542000083422DE9F04158
:104A8000244CFFF783FEFFF7C5FE616E606BA66BDB
:104A9000256E01F041F8204920F0004001F002FBB2
:104AA00010B13120BDE8F0812946304601F034F8DC
:104AB000194920F0004001F0F5FA0028F1D1FFF784
:104AC00035FF216F606DD4F85880A76EE66DE56EF6
:104AD00001F022F8114920F0004001F0E3FA00282B
:104AE000DFD13946404601F017F80C4920F000406C
:104AF00001F0D8FA0028D4D12946304601F00CF84C
:104B0000064920F0004001F0CDFA0028C9D130203C
:104B1000BDE8F0815895FF1F0000A0410000F04162
:104B200010B50A4CFFF702FF636D2367A36DA36600
:104B3000E36DE366FFF72AFEFFF76CFE636B6366C7
:104B4000A36B2366A36F636710BD00BF5895FF1F5B
:104B500010B50446FFF7C6F8204610BD03480449C7
:104B6000044A002300F8083F01F0A6BAEC95FF1FA5
:104B7000514B00000084FF1F08461146FEF7D4B9D0
:104B80000846FEF72FBAFEF736BAFEF74BB9FEF726
:104B900021B9FEF765B9FFFF044B00221A711A73A1
:104BA000034A4FF47A7199601A6070470C96FF1FA0
:104BB00030C00000FFFFFFFF2DE9F84F89464FF698
:104BC000FF7129F00044C4F20F4180468C424A46EE
:104BD000CA461FDD0023C7F6F0739C4200F3C08075
:104BE00014BF0023012300280CBF002103F00101A2
:104BF000002940F0B58042F2FB1942F618584B46A6
:104C0000CBF6F979C3F6F973C5F24448002AC8BF58
:104C10009946ADE04FF6FF73C3F6DB739C4200F399
:104C2000BA804FF6FF73C3F61F639C4240F3A48023
:104C30004FF0FF3B42464B464046494600F056FC8B
:104C400002460B4606460F4600F050FC8EA3D3E901
:104C5000002304460D4600F049FC8DA3D3E9002350
:104C600000F092FA22462B4600F040FC8AA3D3E9DA
:104C7000002300F089FA22462B4600F037FC88A377
:104C8000D3E9002300F080FA22462B4600F02EFCE8
:104C900085A3D3E9002300F077FA22462B4600F0E3
:104CA00025FC83A3D3E9002300F06EFA32463B468D
:104CB00000F01CFC80A3D3E9002306460F462046E3
:104CC000294600F013FC7EA3D3E9002300F05AFA32
:104CD00022462B4600F00AFC7BA3D3E9002300F018
:104CE00051FA22462B4600F001FC79A3D3E90023B8
:104CF00000F048FA22462B4600F0F8FB76A3D3E9F1
:104D0000002300F03FFA22462B4600F0EFFBBBF1F8
:104D1000FF3F02460B4663D04CF248043046C0F2D7
:104D20000004394604EBCB0B00F02EFA4B4642460A
:104D300000F0DCFBDBE9082300F024FA4B46424696
:104D400000F020FA02460B46DBE9000100F01AFAF7
:104D5000BAF1000F8046B4BF01F10049894607E06F
:104D60004046424649464B4600F00EFA8046894688
:104D700040464946BDE8F88F59A3D3E90023494688
:104D800000F002FA00230022C3F6F07300F03EFEAA
:104D90000028EDD14CE7494600F0A6F84FF6FF7326
:104DA000C3F6F2739C4206460F462ADC4FF6FF73A9
:104DB000C3F6E5739C4258DC02460B4600F0E4F96A
:104DC00000230022C3F6F07300F0DCF94FF0000B73
:104DD00000224FF0804304460D46304639462CE011
:104DE0003046394600F0D0F942464B4600F07EFB93
:104DF00002460B464046494600F0C4F980468946C3
:104E0000B6E747F6FF73C4F203039C4220DC00239D
:104E10000022C3F6F8734FF0020B00F0B3F9002341
:104E20000022C3F6F87304460D463046394600F0BA
:104E30005DFB00230022C3F6F07300F0A5F90246E3
:104E40000B462046294600F07BFC80468946F1E669
:104E500000210020CBF6F07132463B464FF0030BA9
:104E600000F06EFC80468946E4E600230022C3F68B
:104E7000F0734FF0010B00F085F904460D46304603
:104E80003946D6E7AFF3008011DA22E33AAD903F1E
:104E9000EB0D76244B7BA93F513DD0A0660DB13F71
:104EA0006E204CC5CD45B73FFF8300922449C23FD9
:104EB0000D5555555555D53F2F6C6A2C44B4A2BF9E
:104EC0009AFDDE522DDEAD3F6D9A74AFF2B0B33F66
:104ED000711623FEC671BC3FC4EB98999999C93FDE
:104EE0009C7500883CE4377E21F00041704700BF8C
:104EF0002DE9F0478AB004460D4600F04FF848F619
:104F0000B41AC1F6FF7A9AF90030013306460F460B
:104F10000FD02046294600F007F950B14FF00008A5
:104F20004FF000092046294642464B4600F050FD0E
:104F300020B9304639460AB0BDE8F0879AF80060DB
:104F40004CF28803C0F200030122CDE904458DE84C
:104F50000C000023CDE90245089356B9CDE9068936
:104F6000684600F009F970B1089B8BB9DDE9066766
:104F7000DFE74046494642464B4600F0E1FB022E41
:104F8000CDE90601ECD101F0A7F821230360EBE79E
:104F900001F0A2F8089B0360E8E700BF2DE9F843A1
:104FA0000027B946C7F6F077C7F6F0790F404F45AE
:104FB00004460D4602460B460E46804600F0998098
:104FC000002977DD0F1500F0828026F07F43A7F2DD
:104FD000FF3723F47003FA0743F4801344BF4FEA0A
:104FE000D8724FEA48084FF0000C48BF02EB430369
:104FF00060464FEAD8727F1002EB430316244FEA53
:1050000048024FF400114518D60F9D424FEA420264
:10501000DEBFC5EB030368188C444908013C06EB6E
:105020004303F0D12026A0464FF000410EE0814618
:105030001B1A954288BF013B521B64184846D50F86
:1050400049085200013E05EB430315D0984201EB9D
:10505000080503DB954298BF8342F0D105F0004973
:1050600005EB0108B9F1004FE1D1B8F1000FA8BF7D
:1050700000F10109DCDADAE7134312D166084FEADE
:105080006C031CF0010F03F17F5318BF46F000467C
:1050900003F50013344603EB075520462946BDE8C7
:1050A000F883631C08BF0CF1010CE8D004F0010385
:1050B0001C19E3E721F000460643EED041BB0F4642
:1050C0004FEAD826153F4FEA4858002EF8D016F47C
:1050D000801319D176000133F102FBD5C3F1010130
:1050E000C3F1200228FA02F27F18164308FA03F8E7
:1050F0006BE700F0FBF902460B462046294600F01C
:1051000043F804460D46C8E7202201210023E9E7C1
:1051100002460B4600F036F802460B4600F010FB44
:1051200004460D46B9E700BF50EA010201D1022052
:105130007047D0F1010238BF0022B1F1004F08BF23
:105140000028F4D021F000434FF6FF71A3F5801042
:10515000C7F6DF71884201D804207047B3F5801F7D
:1051600001D2032070470020C7F6F070834214BFBD
:10517000002002F0010070470020704781F00041DC
:1051800002E000BF83F0004330B54FEA41044FEA2C
:10519000430594EA050F08BF90EA020F1FBF54EAC7
:1051A000000C55EA020C7FEA645C7FEA655C00F063
:1051B000E2804FEA5454D4EB5555B8BF6D420CDD34
:1051C0002C4480EA020281EA030382EA000083EAB7
:1051D000010180EA020281EA0303362D88BF30BD57
:1051E00011F0004F4FEA01314FF4801C4CEA1131AD
:1051F00002D0404261EB410113F0004F4FEA03330C
:105200004CEA133302D0524263EB430394EA050F96
:1052100000F0A780A4F10104D5F1200E0DDB02FA05
:105220000EFC22FA05F2801841F1000103FA0EF299
:10523000801843FA05F359410EE0A5F120050EF15F
:10524000200E012A03FA0EFC28BF4CF0020C43FA90
:1052500005F3C01851EBE37101F0004507D54FF09D
:10526000000EDCF1000C7EEB00006EEB0101B1F5ED
:10527000801F1BD3B1F5001F0CD349085FEA300033
:105280004FEA3C0C04F101044FEA445212F5800F3E
:1052900080F09A80BCF1004F08BF5FEA500C50F1DB
:1052A000000041EB045141EA050130BD5FEA4C0CBE
:1052B000404141EB010111F4801FA4F10104E9D147
:1052C00091F0000F04BF01460020B1FA81F308BF3E
:1052D0002033A3F10B03B3F120020CDA0C3208DD0A
:1052E00002F1140CC2F10C0201FA0CF021FA02F1E5
:1052F0000CE002F11402D8BFC2F1200C01FA02F155
:1053000020FA0CFCDCBF41EA0C019040E41AA2BF79
:1053100001EB0451294330BD6FEA04041F3C1CDA41
:105320000C340EDC04F11404C4F1200220FA04F061
:1053300001FA02F340EA030021FA04F345EA03010B
:1053400030BDC4F10C04C4F1200220FA02F001FACD
:1053500004F340EA0300294630BD21FA04F029464F
:1053600030BD94F0000F83F4801306BF81F48011E8
:105370000134013D4EE77FEA645C18BF7FEA655C5B
:1053800029D094EA050F08BF90EA020F05D054EA2D
:10539000000C04BF1946104630BD91EA030F1EBF32
:1053A0000021002030BD5FEA545C05D14000494136
:1053B00028BF41F0004130BD14F580043CBF01F529
:1053C000801130BD01F0004545F0FE4141F470010F
:1053D0004FF0000030BD7FEA645C1ABF19461046EA
:1053E0007FEA655C1CBF0B46024650EA013406BFEB
:1053F00052EA033591EA030F41F4002130BD00BFAA
:1054000090F0000F04BF0021704730B54FF4806466
:1054100004F132044FF000054FF0000150E700BFE7
:1054200090F0000F04BF0021704730B54FF4806446
:1054300004F1320410F0004548BF40424FF0000133
:105440003EE700BF42004FEAE2014FEA31014FEA76
:1054500002701FBF12F07F4393F07F4F81F06051C5
:10546000704792F0000F14BF93F07F4F704730B534
:105470004FF4607401F0004521F0004120E700BFC7
:1054800050EA010208BF704730B54FF000050AE04E
:1054900050EA010208BF704730B511F0004502D54F
:1054A000404261EB41014FF4806404F132045FEA51
:1054B000915C3FF4DCAE4FF003025FEADC0C18BFF6
:1054C00003325FEADC0C18BF033202EBDC02C2F1EC
:1054D000200300FA03FC20FA02F001FA03FE40EA7E
:1054E0000E0021FA02F11444C1E600BF70B54FF07E
:1054F000FF0C4CF4E06C1CEA11541DBF1CEA135560
:1055000094EA0C0F95EA0C0F00F0DEF82C4481EAC7
:10551000030621EA4C5123EA4C5350EA013518BFE7
:1055200052EA033541F4801143F4801338D0A0FBD4
:1055300002CE4FF00005E1FB02E506F00042E0FB81
:1055400003E54FF00006E1FB03569CF0000F18BF87
:105550004EF0010EA4F1FF04B6F5007F64F540742F
:1055600004D25FEA4E0E6D4146EB060642EAC621C2
:1055700041EA55514FEAC52040EA5E504FEACE2E2F
:10558000B4F1FD0C88BFBCF5E06F1ED8BEF1004F32
:1055900008BF5FEA500E50F1000041EB045170BDAE
:1055A00006F0004646EA010140EA020081EA0301F2
:1055B000B4EB5C04C2BFD4EB0C0541EA045170BDEE
:1055C00041F480114FF0000E013C00F3AB8014F168
:1055D000360FDEBF002001F0004170BDC4F10004B1
:1055E000203C35DA0C341BDC04F11404C4F1200532
:1055F00000FA05F320FA04F001FA05F240EA02008D
:1056000001F0004221F0004110EBD37021FA04F6C2
:1056100042EB06015EEA430E08BF20EAD37070BD7C
:10562000C4F10C04C4F1200500FA04F320FA05F0DB
:1056300001FA04F240EA020001F0004110EBD370DD
:1056400041F100015EEA430E08BF20EAD37070BD4D
:10565000C4F1200500FA05F24EEA020E20FA04F326
:1056600001FA05F243EA020321FA04F001F00041D5
:1056700021FA04F220EA020000EBD3705EEA430E46
:1056800008BF20EAD37070BD94F0000F0FD101F075
:105690000046400041EB010111F4801F08BF013CAE
:1056A000F7D041EA060195F0000F18BF704703F0EC
:1056B0000046520043EB030313F4801F08BF013D73
:1056C000F7D043EA0603704794EA0C0F0CEA13552F
:1056D00018BF95EA0C0F0CD050EA410618BF52EAE9
:1056E0004306D1D181EA030101F000414FF00000EF
:1056F00070BD50EA410606BF1046194652EA4306FD
:1057000019D094EA0C0F02D150EA013613D195EA70
:105710000C0F05D152EA03361CBF104619460AD1B8
:1057200081EA030101F0004141F0FE4141F47001C2
:105730004FF0000070BD41F0FE4141F4780170BDB2
:1057400070B54FF0FF0C4CF4E06C1CEA11541DBF17
:105750001CEA135594EA0C0F95EA0C0F00F0A7F819
:10576000A4EB050481EA030E52EA03354FEA013146
:1057700000F088804FEA03334FF0805545EA131359
:1057800043EA12634FEA022245EA111545EA106521
:105790004FEA00260EF000419D4208BF964244F1B8
:1057A000FD0404F5407402D25B084FEA3202B61AD7
:1057B00065EB03055B084FEA32024FF480104FF4AB
:1057C000002CB6EB020E75EB030E22BFB61A75461F
:1057D00040EA0C005B084FEA3202B6EB020E75EBB2
:1057E000030E22BFB61A754640EA5C005B084FEA1A
:1057F0003202B6EB020E75EB030E22BFB61A7546E7
:1058000040EA9C005B084FEA3202B6EB020E75EBF1
:10581000030E22BFB61A754640EADC0055EA060EB2
:1058200018D04FEA051545EA16754FEA06164FEAF5
:10583000C30343EA52734FEAC2025FEA1C1CC0D1A1
:1058400011F4801F0BD141EA00014FF000004FF02E
:10585000004CB6E711F4801F04BF01430020B4F1EF
:10586000FD0C88BFBCF5E06F3FF6AFAEB5EB030CA7
:1058700004BFB6EB020C5FEA500C50F1000041EBA4
:10588000045170BD0EF0004E4EEA113114EB5C0471
:10589000C2BFD4EB0C0541EA045170BD41F4801144
:1058A0004FF0000E013C90E645EA060E8DE60CEA4C
:1058B000135594EA0C0F08BF95EA0C0F3FF43BAF69
:1058C00094EA0C0F0AD150EA01347FF434AF95EA20
:1058D0000C0F7FF425AF104619462CE795EA0C0F04
:1058E00006D152EA03353FF4FDAE1046194622E7D1
:1058F00050EA410618BF52EA43067FF4C5AE50EAAB
:1059000041047FF40DAF52EA43057FF4EBAE12E79A
:105910004FF0FF3C06E000BF4FF0010C02E000BF7B
:105920004FF0010C4DF804CD4FEA410C7FEA6C5C5E
:105930004FEA430C18BF7FEA6C5C1BD001B050EA01
:10594000410C0CBF52EA430C91EA030F02BF90EAEC
:10595000020F0020704710F1000F91EA030F58BFAB
:10596000994208BF90422CBFD8176FEAE37040F00D
:10597000010070474FEA410C7FEA6C5C02D150EAAB
:10598000013C07D14FEA430C7FEA6C5CD6D152EA66
:10599000033CD3D05DF8040B704700BF844610462B
:1059A00062468C461946634600E000BF01B5FFF72A
:1059B000B7FF002848BF10F1000F01BD4DF808EDFA
:1059C000FFF7F4FF0CBF012000205DF808FB00BFCB
:1059D0004DF808EDFFF7EAFF34BF012000205DF825
:1059E00008FB00BF4DF808EDFFF7E0FF94BF012072
:1059F00000205DF808FB00BF4DF808EDFFF7CEFF73
:105A000094BF012000205DF808FB00BF4DF808EDB1
:105A1000FFF7C4FF34BF012000205DF808FB00BF82
:105A20004FEA410212F5001215D211D56FF47873C6
:105A3000B3EB625212D94FEAC12343F0004343EA69
:105A4000505311F0004F23FA02F018BF4042704744
:105A50004FF00000704750EA013005D111F00040CE
:105A600008BF6FF0004070474FF00000704700BF64
:105A70004FEA4102B2F1E04324BFB3F5001CDCF170
:105A8000FE5C0DD901F0004C4FEAC0024CEA5070A8
:105A9000B2F1004F40EB830008BF20F001007047D7
:105AA00011F0804F21D113F13872BCBF01F00040DA
:105AB000704741F480114FEA5252C2F11802C2F10C
:105AC000200C10FA0CF320FA02F018BF40F001008D
:105AD0004FEAC1234FEAD32303FA0CFC40EA0C003F
