:1000000000800020BD010000D90C0000D90C0000C8
:10001000D90C0000D90C0000D90C0000A50C000080
:10002000A50C0000A50C0000A50C0000D90C0000D8
:10003000D90C0000A50C0000D90C0000950C0000A4
:10004000D90C0000D90C0000D90C0000D90C00001C
:10005000D90C0000D90C0000D90C0000D90C00000C
:10006000D90C0000D90C0000D90C0000D90C0000FC
:10007000D90C0000D90C0000D90C0000D90C0000EC
:10008000D90C0000D90C0000D90C0000D90C0000DC
:10009000D90C0000D90C0000D90C0000D90C0000CC
:1000A00001390000F5380000D90C0000D90C00001F
:1000B000D90C0000D90C0000D90C0000D90C0000AC
:1000C000D90C0000D90C0000D90C0000D90C00009C
:1000D000D90C0000D90C0000D90C0000D90C00008C
:1000E000D90C0000D90C0000D90C0000D90C00007C
:1000F000D90C00002D1A0000D90C0000A51D00002D
:10010000D90C000069200000D90C0000D90C0000B7
:10011000D90C0000D90C0000D90C0000D90C00004B
:10012000D90C0000D90C0000D90C0000D90C00003B
:10013000D90C0000D90C0000D90C0000D90C00002B
:10014000D90C0000D90C0000D90C0000D90C00001B
:10015000113A0000293A0000413A0000593A0000E3
:10016000D90C000029230000D90C0000D90C000094
:10017000D90C0000D90C0000D90C0000D90C0000EB
:10018000D90C0000D90C0000D90C0000D90C0000DB
:10019000D90C0000D90C0000D90C0000B10E0000F1
:1001A000010F0000890F000045100000C910000079
:1001B000D90C0000D90C0000B12E00004F4B4CF2BE
:1001C000205210B51A804DF628121A8000BF00BFC9
:1001D00000F085FD4A4B4FF010621A60494A9A6060
:1001E000494ADA60494B1A6812F4807204D14849CE
:1001F0000A604FF4A8521A60464B1A7802F00802BF
:10020000D2B21AB11A7842F008021A700023424A98
:100210004248434C02E019599950043399188142DD
:10022000F9D3404B404A002101E043F8041B9342BC
:10023000FBD33E4B00221A603D4B3E4A802103F81F
:10024000011B9342FBD13C4B0A221A703B4B2422E8
:100250001A70A02203F8012C394A137803F0020324
:10026000DBB2002BF9D0364A137803F01003DBB26F
:10027000002BF9D1324A137803F00C03082BFAD182
:10028000304B03221A7040225A702D4A137803F023
:100290002003DBB2002BF9D0294A137803F0400386
:1002A000DBB2002BF9D0284A284B1A60284B2022B9
:1002B0001A70234A137803F00C030C2BFAD1254B48
:1002C00002221A60244A43F8442C244B4BF67F3216
:1002D0001A60072243F8042C62B601F06EF90C4B49
:1002E0001B68DC0702D51E4800F00CFF05F04AFE33
:1002F00000F0FCFC03F066FCFEE700BF0E200540AA
:1003000030800440823F04000100002B10D00340E5
:1003100014D0034002D007400084FF1F308FFF1F1E
:1003200030C00000308FFF1F0096FF1F08ED00E077
:1003300000E400E05FE400E00050064001400640B9
:10034000064006400440064000000311448004407B
:100350000040064048800440C010050014E000E062
:1003600000DD6850FFFFFFFFFFFFFFFFFFFFFFFF04
:10037000FFFFFFFFFFFFFFFFFFFFFFFFFFFFFFFF8D
:10038000FFFFFFFFFFFFFFFFFFFFFFFFFFFFFFFF7D
:10039000FFFFFFFFFFFFFFFFFFFFFFFFFFFFFFFF6D
:1003A000FFFFFFFFFFFFFFFFFFFFFFFFFFFFFFFF5D
:1003B000FFFFFFFFFFFFFFFFFFFFFFFFFFFFFFFF4D
:1003C000FFFFFFFFFFFFFFFFFFFFFFFFFFFFFFFF3D
:1003D000FFFFFFFFFFFFFFFFFFFFFFFFFFFFFFFF2D
:1003E000FFFFFFFFFFFFFFFFFFFFFFFFFFFFFFFF1D
:1003F000FFFFFFFFFFFFFFFFFFFFFFFFFFFFFFFF0D
:10040000FFFFFFFFFFFFFFFFFFFFFFFFFEFFFFFFFD
:1004100008B548F63070074BC1F6FF701B1A062B63
:1004200000D808BD40F20003C0F20003002BF8D052
:100430009847F6E7338FFF1F08B548F6307048F647
:100440003073C1F6FF70C1F6FF731B1A9B1003EBEC
:10045000D373591000D108BD40F20002C0F200026F
:10046000002AF8D09047F6E710B548F63074C1F688
:10047000FF74237873B9FFF7CBFF40F20003C0F29B
:1004800000032BB14CF23000C0F20000AFF300804B
:100490000123237010BD00BF08B540F20003C0F275
:1004A00000034BB14CF2300048F63471C0F200004A
:1004B000C1F6FF71AFF3008048F63070C1F6FF70EF
:1004C00003682BB140F20003C0F2000303B1984768
:1004D000BDE80840FFF7B0BFF0B5304830490368C9
:1004E0001B06FCD40B6813F08002F8D172B62D4BBA
:1004F0001978002950D02C4908684F688E68CD685B
:100500000C6938181431801909684019001940180D
:10051000C0F34E00254940F400400860C86A0F6BE4
:100520004E6B8D6BCC6B38184031801909684019BF
:1005300000194018C0F34E001D4940F40040086007
:1005400001F10811143151F8140C51F8107C51F8D4
:100550000C6C51F8085C51F8044C09683818801983
:10056000401900194018C0F34E00124940F40040F1
:100570000860C86A0F6B4E6B8D6BCC6B38184031BE
:1005800080190968401900194018C0F34E000A4943
:1005900040F4004008601A7062B6F0BD24B0034019
:1005A00024B00B404C8FFF1F38B003402CB00340E9
:1005B00030B003402CB00B4030B00B40224B6022D7
:1005C0001A70E1225A70214B214A1978214B0829CF
:1005D00001D1012102E00A2907D13921116013223A
:1005E0001A601D4B19605A600BE00C291A4901D1A1
:1005F000352000E03D20106012221A60174B086081
:100600001A60174B17495B78174A03B101230B6037
:1006100013600E4B154A5978154B012901D88021DA
:100620000CE0042901D8842108E0082901D885219B
:1006300004E0102901D8862100E0872111601960AB
:10064000074B01221A707047004007400484FF1FC7
:1006500008B003400CB0034008B00B400CB00B4096
:100660004C8FFF1F20B0034020B00B4024B003404C
:1006700024B00B400D4B5A7858B1AAB901215970DA
:100680001B7823B10A4B1A6003F500231A60FFF7A9
:1006900095BF4AB158701B78002BF8D0044B1860F6
:1006A00003F500231860F2E7704700BF4C8FFF1F6F
:1006B00024B003400C2810B503D91023102807D804
:1006C00009E00A2806D8082894BF08230A2302E074
:1006D000184600E00C23DCB2084A0949201A907041
:1006E0000878834209D013780C7013B1054B0022AF
:1006F0001A60BDE81040FFF761BF10BD4C8FFF1FAF
:100700000484FF1F24B0034010B5114B1B7804462E
:100710000BB1FFF7E1FE012C0E4A01D8002302E0E5
:10072000042C02D8042313600EE0082C03D8052300
:100730001360082308E0102C03D80623136010234D
:1007400002E0072313602023034A537010BD00BF4B
:100750004C8FFF1F24B003400484FF1F0D282DE998
:10076000F0410FD9172801D80E380AE0A0F11A037A
:10077000052B01D8093804E0A0F12203062B50D83C
:100780001838C0B2284B1C5C284B1B780BB1FFF704
:10079000A3FE72B6220617D4254D244E01272C60E5
:1007A000F77062B672B62B6813F0800F1F4B04D03F
:1007B000204A10680022DA7026E0F378002BEED091
:1007C00062B602F0AFFAEDE704F040071A4D174E9B
:1007D000FFB204F03F044FF00108184B1A6817B13C
:1007E00022F0100201E042F010021A602C6086F83C
:1007F000048062B672B62B6813F0800F0B4B09D0E1
:100800000F4A106800221A7162B69B7840FA03F012
:10081000BDE8F0813379002BDFD062B602F082FAB6
:10082000E8E70020BDE8F08138B900004C8FFF1FD9
:1008300000B0034010B0034000B00B400CB00B40C0
:1008400010B00B400B4B1A6842F480521A600A4BEE
:100850005A780A4B0AB1802200E0C0221A7040F692
:10086000FF739842A8BF1846054B20EAE070188035
:10087000704700BF2C8004404C8FFF1F21C00C40EC
:1008800000C00C4010B5441E01E002F001FA14F85B
:10089000010F0028F9D110BD08B540F6C41000F0D2
:1008A0001BFF002000F05AFFBDE8084001F0A2B88D
:1008B00030B5074C9DF80C506072A17220460E2195
:1008C000E27223736573BDE8304001F000B800BFE9
:1008D0000684FF1F034BD874197503F10E0007211E
:1008E00000F0F5BF0684FF1F70B5094E0023C55CFC
:1008F000084AF4180133062B6571F8D182F82010EC
:1009000002F115000C21BDE8704000F0E0BF00BF0F
:100910001B84FF1F0684FF1F2DE9F04188B001F002
:1009200039F8042840F3858001F03EF8074601F0CD
:100930003BF85FFA80F801F037F8064601F034F82A
:10094000002504460CE001F02FF80DF805000135F4
:10095000202D05D117F0FF0706D0802F69D139E08F
:10096000EBB24345EFD3F5E7F0B2022813D00628E7
:1009700021D000285DD1E4B20A2C5AD19DF8003074
:100980009DF801201A422C4B01D1012201E04FF0C9
:10099000FF321A604DE014F0FF0F4AD19DF800308D
:1009A0009DF801201A42244B01D1012201E04FF0B1
:1009B000FF325A603DE0E4B2012C3AD19DF80120AB
:1009C0009DF800301A421C4B16BF4FF0FF329C605E
:1009D0009A602EE0F6B2022E02D0032E29D116E044
:1009E00014F0FF0F25D1144B0122DA609DF8082086
:1009F000303A1A619DF80920303A5A619DF80A2070
:100A0000303A9A619DF80B20303ADA6111E014F027
:100A1000FF0402D0042C0CD108E09DF80020064B06
:100A200002F00402D2B21AB1012201E0024B00220C
:100A30001A6208B0BDE8F081548FFF1F83784F2BF6
:100A400002D1C3784B2B28E0232B0FD1C3784D2B39
:100A500001D0002070470379572BFAD14379492BF5
:100A6000F7D183793A2BF4D1C37915E03E2B01D12C
:100A7000C37811E02B2BECD1C378432BE9D1037958
:100A80004D2BE6D14379472BE3D18379532BE0D12A
:100A9000C3793A2BDDD1037A202BDAD101207047BC
:100AA00010B5441E01E002F0F3F814F8010F00281D
:100AB000F9D110BD2DE9F04701F1C303A8B023F02F
:100AC000070302AFADEB030D8B1D23F0070302AD4F
:100AD000ADEB030D804601F1FF3A02AE0C4601F189
:100AE000BC0901F0BBFA42465146304606F0A2F876
:100AF0004046214601F06CFA4FF00B0801F073FA02
:100B000003E04FF47A7000F043FD01F077FA20B96A
:100B100008F1FF3818F0FF08F3D101F06FFA8046B2
:100B2000A8B928464946224A334606F083F82846A3
:100B3000FFF7B6FF28E001F06BFA3B1CC2B21D497B
:100B400003EB080006F0D0F808F1010801E04FF0CF
:100B5000000801F053FA10B1B8F1960FEBD1384606
:100B6000FFF76CFF3B1C804600932846B8F1000F4E
:100B70000CD104F1BA01104A334606F05BF828465E
:100B8000FFF78EFF01F06AFA40460BE004F1AF0177
:100B90000A4A334606F04EF82846FFF781FF01F077
:100BA0005DFA012007F19807BD46BDE8F08700BF58
:100BB0004FB9000079B900007CB90000A5B9000068
:100BC00030B5C9B003460C46144A1821684606AD34
:100BD00006F030F8234628464FF48371104A06F099
:100BE00029F8002400E00134635D002BFBD1B4F54B
:100BF000827FF8DC0B480B21FFF75CFF08B900206F
:100C000009E068461721FFF755FF0028F7D028466E
:100C10002146FFF74FFF49B030BD00BFC3B9000008
:100C2000D2B90000D6B9000010B5184C4FF47A7054
:100C300000F0AEFC0421204601F0CAF94FF4FA702E
:100C400000F0A6FC0421204601F0C2F94FF4FA702E
:100C500000F09EFC0421204601F0BAF94FF4FA702E
:100C600000F096FC2046042101F0B2F90621084864
:100C700001F0AEF901F0B7F940F6B83000F088FCA9
:100C800020460421BDE81040FFF714BFE2B9000080
:100C9000E7B90000024B1A6801321A60704700BFC2
:100CA0000090FF1F38B50B4C25462368580301D52B
:100CB00001F03AFB2B68590501D500F0B7FE2B680F
:100CC0001A0501D501F06EF82368DB04EDD501F0BB
:100CD000CBF9EAE73480044008B5FFF7E3FF024BA5
:100CE00010221A80704700BF002005407047034A59
:100CF0001368181810601846704700BF2884FF1F3B
:100D0000002070474FF0FF3070474FF400534B60A6
:100D100000207047012070474FF0FF307047FEE71A
:100D2000FEE7012070477047EFF313839BB9EFF3A1
:100D3000108098B9EFF3058323B10F2B04D9084A2B
:100D4000985C01E04FF48070EFF311833BB198425F
:100D500028BF184670474FF0FF307047184670475D
:100D6000F0E300E0002300E00133C25C002AFBD185
:100D70001846704710B50023B0FBF2F402FB1400D4
:100D8000092801D8303000E03730C85420460CB173
:100D90000133F1E7CA185470224605E0885CCC5C48
:100DA0008C54C8540132013B9A42F7DB084610BD0F
:100DB000031E10B50C4603DBBDE81040FFF7DABF99
:100DC0002D2001F8010B5842FFF7D4FF204610BD3B
:100DD000F0B50F4687B016461C463A4633460546E0
:100DE000074901A805F080FF284604F07BFA024677
:100DF0000B46204601A905F077FF204607B0F0BD5D
:100E0000EEB90000084B4FF400021A604FF08072F8
:100E10001A604FF000721A604FF080621A604FF053
:100E200000621A60704700BF08E100E0212830B579
:100E300021D8042A1FD8DFE802F00709050B0300B8
:100E40000B2306E00A2304E0082302E00C2300E061
:100E50000923094A02EBC002526872B61468074DB2
:100E600024F47024146044F0807444EA034345F889
:100E70002010136062B630BDF8B90000788FFF1FF4
:100E8000094B03EBC0035B6872B61A6822F08772E5
:100E900022F4803242F080721A60044B002243F840
:100EA000202062B6704700BFF8B90000788FFF1F9E
:100EB000114B10B51C68E0041C6004D50F4BDA68B8
:100EC0000AB1DB689847A10404D50C4B1A690AB132
:100ED0001B699847A20604D5084B1A6E0AB11B6E0F
:100EE0009847E30606D5054BD3F8842012B1D3F812
:100EF0008430984710BD00BFA0900440788FFF1F3A
:100F00001F4B10B51C68E0031C6004D51D4B1A680C
:100F10000AB11B689847A10304D51A4B5A680AB155
:100F20005B689847E20704D5164B1A6C0AB11B6C34
:100F30009847A30704D5134B5A6C0AB15B6C9847CA
:100F4000200704D50F4B9A6C0AB19B6C9847610738
:100F500004D50C4BDA6C0AB1DB6C9847220304D53C
:100F6000084B5A6E0AB15B6E9847630306D5054B72
:100F7000D3F8802012B1D3F88030984710BD00BF5D
:100F8000A0A00440788FFF1F2C4B10B51C682007D1
:100F90001C6004D52A4B5A6A0AB15B6A9847E1067D
:100FA00004D5274B9A6A0AB19B6A9847620604D512
:100FB000234BDA6A0AB1DB6A9847230604D5204B33
:100FC0001A6B0AB11B6B9847A00604D51C4B5A6BD1
:100FD0000AB15B6B9847E10704D5194BDA6B0AB18C
:100FE000DB6B9847A20704D5154B9A6D0AB19B6D30
:100FF0009847630704D5124BDA6D0AB1DB6D984749
:10100000A00504D50E4BDA6E0AB1DB6E9847E105F8
:1010100004D50B4B1A6F0AB11B6F9847620504D5B4
:10102000074B5A6F0AB15B6F9847230504D5044BF1
:101030009A6F0AB19B6F984710BD00BFA0B00440E3
:10104000788FFF1F1E4B10B51C68E0071C6004D58D
:101050001C4B9A680AB19B689847210604D5194B26
:101060005A690AB15B699847E20604D5154B9A693B
:101070000AB19B699847630704D5124BDA690AB134
:10108000DB699847200704D50E4B1A6A0AB11B6A20
:101090009847A10704D50B4B9A6B0AB19B6B9847F5
:1010A000A20604D5074B1A6D0AB11B6D984763065B
:1010B00004D5044B5A6D0AB15B6D984710BD00BF53
:1010C000A0C00440788FFF1F094B10B51C68A20711
:1010D0001C6004D5074B9A6E0AB19B6E9847E307D4
:1010E00004D5044BDA6F0AB1DB6F984710BD00BF1F
:1010F000A0D00440788FFF1F014B1868704700BFD5
:1011000000D00340044B054900221A600A60044ADB
:10111000106010221A60704714D0034004D00340BE
:1011200000D00340002810B50FDB02024FF480739B
:1011300047F6FF7400E00A46A24204D9013B012BA6
:10114000C0EB0201F7D1120A11E0404202024FF453
:10115000807348F2FF0400E00A46A24204D9013B32
:10116000012BC0EB0201F7D1120AC2F58072013BDC
:10117000024942EA03220A6010BD00BF0CD00340BE
:1011800018B1102828BF102000E00120014B187072
:10119000704700BF2C84FF1F10B500234FF4377237
:1011A00042FA03F4A14202D80133072BF8D1164AC0
:1011B00042FA03F202EB5102B2FBF1F101394FF6B0
:1011C000FF72914228BF1146C21E012A06D80F4A5B
:1011D0000F4C0020106020600E480FE0421F012AD3
:1011E00006D9092804D00A2802D01438032809D8BF
:1011F000094A0A4C002010602060094843F00803A7
:101200000160136010BD00BF006CDC020090034061
:101210000490034008900340008003400480034092
:1012200008800340212810B518D80D4A52F83030F4
:1012300093F880423CB1012211B183F8802010BDA7
:1012400083F8002110BD02EBC00043681A6811B199
:1012500042F0030201E022F002021A6010BD00BF5A
:10126000F8B90000212805D8034B53F8303093F823
:101270000002704700207047F8B90000212816D8F6
:101280000B4A02EBC00301295B6852F8302004D1FD
:1012900082F880124FF4A27208E0002082F88002E7
:1012A00011B94FF4807201E040F203121A607047E6
:1012B000F8B90000282838B50A4604464E4B0FD12D
:1012C0001B780B2B03D8C3F10C039A4003E00C2BC3
:1012D00001D00C3B1A411046BDE83840FFF7B2BAC6
:1012E00019780125002A05FA01F301DC002102E04A
:1012F0009A4205D32946FFF795FF2046294676E016
:10130000C31E012B01D83D4B06E0192801D020282F
:1013100001D13B4B00E03B4B1B680133534323FAA5
:1013200001F3E11E1D2959D8DFE801F00F151B213B
:101330005858272D58585858585858585833393FE6
:101340004558515858585858584B2F4A13604FF425
:1013500051722E4B40E02E4A13604FF451722D4BC8
:101360003AE02D4A136040F244422C4B34E02C4AC0
:10137000136040F244422B4B2EE02B4A136040F2A4
:1013800044422A4B28E02A4A136040F24442294B47
:1013900022E0294A136040F24442284B1CE0284ACC
:1013A000136040F24442274B16E0274A136040F294
:1013B0004442264B10E0264A136040F24442254B3B
:1013C0000AE0254A13604FF45172244B04E0244A8A
:1013D0001360244B4FF451721A6038BD7F2A2046A7
:1013E000D4BF00210121FFF71DFF20460121BDE8E8
:1013F0003840FFF743BF00BF2C84FF1F0890034015
:1014000008800B4008800340109003403090044057
:101410001890034034900440488003401CC00440AE
:101420003080034010C00440208003400CB00440D2
:101430002880034010B004403880034014C00440AA
:101440004080034018C004401080034004B00440B2
:101450001880034008B0044010800B4048A00440AE
:1014600018800B404CA004402DE9F04107460E4681
:1014700090460824012505EA08013846FFF7D2FE08
:1014800001213046FFF7CEFE002130466D00FFF708
:10149000C9FE013CEDB2EED1BDE8F0812DE9F0418D
:1014A00007460E4690460824802505EA080138467E
:1014B000FFF7B8FE01213046FFF7B4FE00213046A9
:1014C000FFF7B0FE6D08013CEFD1BDE8F08112B925
:1014D0001A46FFF7C9BF1A46FFF7E0BF2DE9F041F2
:1014E00080460F4608240025012638460121FFF7D3
:1014F00099FE4046FFF7B6FE00B13543002138465D
:101500007600FFF78FFE013CF6B2EED12846BDE82B
:10151000F0812DE9F04180460F4608240025802601
:1015200038460121FFF77EFE4046FFF79BFE00B1E3
:10153000354300213846FFF775FE7608013CEFD1B0
:101540002846BDE8F0810AB9FFF7C8BFFFF7E1BF41
:1015500072B60C4B0C491A680C4BD3F888300968EA
:1015600062B6490102D5322A88BF0133C2F53B4237
:101570007F323021B2FBF1F24FF47A7000FB03208E
:10158000704700BF18E000E004ED00E0788FFF1F17
:1015900070B50446FFF7DCFF05466CB140F2E73654
:1015A000FFF7D6FF401BB04203D9013C04D005F53C
:1015B0007A7501F0B7FBF3E770BD10B5FFF722FCB9
:1015C000154B164A164C00204BF6FF7118605960F7
:1015D0002823136093601361936113629362136312
:1015E0009363092222600F4C20606160A360236135
:1015F00044F8042C0C4C20600C4801600C490B6032
:101600008B600C4B1A60FEF7D9FF0420FFF7C0FF78
:10161000BDE8104001F0A6B9048003400C800340EF
:10162000008003400490034004800B4008800B407E
:101630000C800B4000800B4070B5072405464C43DE
:1016400003E0013C01D1002070BD2B78002BF8D1C4
:1016500001E0013CF7D02B78002BFAD0FFF778FFA0
:10166000064601E0013CEED02B78002BFAD1FFF7C3
:101670006FFF801B70BD70B5072405464C4303E027
:10168000013C01D1002070BD2B78002BF8D001E087
:10169000013CF7D02B78002BFAD1FFF759FF064613
:1016A00001E0013CEED02B78002BFAD0FFF750FF81
:1016B000801B70BD21280BD8064B53F8300000F575
:1016C000007011B11146FFF7B7BF1146FFF7D3BF46
:1016D00000207047F8B90000194B1A6842F4806284
:1016E0001A60184B00221A705A709A70DA701A71C8
:1016F000154B40F213321A604FF451725A60134B7B
:10170000C0F344321A70C0F347125A7000F01F0041
:101710000F4A98720221042313705174D3740D4B35
:1017200088221A703C2203F80D2C0B4B40226FF4D8
:101730004A711A705B184FF400521A60704700BF6C
:10174000348004400490FF1F40A0044000A00640E5
:1017500002A0064010A006402DE400E0134A1378D2
:1017600000F0030103F0EC030B43410748BF43F0D3
:101770001003137000F00F03042B04D10C4B1A78E4
:1017800042F040021A700B4A1378C10603F0EF03CF
:1017900048BF43F010031370054A1378800603F026
:1017A000EF0348BF43F010031370704702A00640D8
:1017B00006A0064005A006400D4B1B68580510B555
:1017C00003D410BD01F0AEFA00E00A4C2379094AB7
:1017D000002BF7D108494FF400500860074908482A
:1017E0000B7040F20311016041601370537010BD23
:1017F000348004400490FF1F84E100E003A0064011
:1018000040A0044038B5094B04461D79002DFCD199
:1018100020460121FFF732FD20462946FFF702FD51
:10182000034B53F83420014B9A6038BD0490FF1FDE
:10183000F8B900001C4B1B685A052DE9F04106461B
:1018400030D51A4A93680BB1012119709478174D5D
:10185000174FDFF8648001343F2C88BF002415E067
:10186000FFF762FA40280DDC3B781B060ED5EB78BB
:1018700001333F2B88BF0023EA18127B88F8002031
:10188000EB7003E0FF2801DD01F04CFAEA78074B2A
:10189000A242E5D01A19167301221A719C70054BE9
:1018A000BC221A70BDE8F081348004400490FF1F10
:1018B00004A0064003A0064007A0064000F00F0069
:1018C000092801D8303000E03730FFF7B3BF2DE9E9
:1018D000F84F254B1B6807465805894642D5234BD0
:1018E0009B680BB101221A70204C3E46A34632E0A1
:1018F000A5789BF8038001353F2D88BF0025A845BA
:1019000007D0631916F8012B1A7301232371A570F0
:1019100021E0174BDFF860A0BC221A70FFF704FA31
:10192000402810DC9AF80030190610D5E37801330E
:101930003F2B88BF00230BEB0302117B0D4A117074
:101940008BF8033003E0FF2801DD01F0EBF9E378C9
:101950004345E3D0D5E707EB09039E42C8D3044BC8
:10196000BC221A70BDE8F88F348004400490FF1F39
:1019700003A0064007A0064004A0064010B5044C92
:1019800001E001F0CFF92379002BFAD110BD00BF9F
:101990000490FF1F034A10785378984238BF4030B4
:1019A000C01A70470490FF1F084A11785378994273
:1019B00008D001333F2B88BF0023D11891F84C0089
:1019C000537070474FF0FF30704700BF0490FF1F07
:1019D000074A11785378994207D001333F2B88BFCB
:1019E0000023D31893F84C0070474FF0FF30704736
:1019F0000490FF1F094B1B685B050ED5084B1A7836
:101A000002F0CB021A70074A402111701A7842F096
:101A100034021A70044B5A781A70704734800440AC
:101A200003A0064011A006400490FF1FF0B5304B04
:101A30001B7813F0300F21D072B62E4B197831B9C4
:101A40000F3B40221B782C4B1A7062B616E062B630
:101A50002A4B2B4C1A7858781D46531C3F2B88BFB5
:101A600000238342267803D0EA1882F84C601A4695
:101A7000013911F0FF01F0D1204B1A70214B1B7876
:101A800018465BB2002B1EDA19490B781B061AD5D3
:101A90001A4A1B4E97781C4DD378BB420AD00133AB
:101AA0003F2B88BF00230C78D418247B34702C780B
:101AB000072CF2D9114AD3700D4B1B781A0602D5A8
:101AC000104B7C221A7000F04003DBB273B1084B5C
:101AD0001B7803F04003DBB243B1084B00221A71BC
:101AE0009B6803B11A70074B3C221A70F0BD00BF0F
:101AF00004A0064016A0064011A006400490FF1F57
:101B000007A0064003A0064014A0064038B5451EB5
:101B100007E00A2C02D10D20FFF78CFE2046FFF7CC
:101B200089FE15F8014F002CF3D138BD10B50446DD
:101B30000009FFF7C3FE2046BDE81040FFF7BEBE18
:101B400010B50446000AFFF7F1FF2046BDE810403B
:101B5000FFF7ECBF10B50446000EFFF7E7FF200CBF
:101B6000FFF7E4FF200AFFF7E1FF2046BDE8104041
:101B7000FFF7DCBF144B1A6842F400621A60134A84
:101B80000023137053709370D3701371104A40F296
:101B9000133111604FF4517151600E4AC0F344315A
:101BA0001170C0F3471100F01F00517090729370D4
:101BB0001374094B2C221A70084B40221A70084BE0
:101BC0004FF400421A607047348004409090FF1F29
:101BD0000CB0044000B0064003B006402FE400E023
:101BE00004E100E0134A137800F0030103F0EC0372
:101BF0000B43410748BF43F01003137000F00F037D
:101C0000042B04D10C4B1A7842F040021A700B4A94
:101C10001378C10603F0EF0348BF43F010031370BD
:101C2000054A1378810603F0EF0348BF43F0100321
:101C30001370704702B0064006B0064005B006407B
:101C40000D4B1B68180510B503D410BD01F06AF8E0
:101C500000E00A4C2379094A002BF7D108494FF4D8
:101C600000400860074908480B7040F2031101600A
:101C700041601370537010BD348004409090FF1F7A
:101C800084E100E003B006400CB004401A4B1B682E
:101C90001A052DE9F04106462BD5184D184FAC78A2
:101CA000DFF864800134272C88BF002415E0FFF79B
:101CB0003BF840280DDC3B781B060ED5EB78013352
:101CC000272B88BF0023EA18527988F80020EB7090
:101CD00003E0FF2801DD01F025F8EA78074BA24276
:101CE000E5D01A19567101221A719C70054BAC226D
:101CF0001A70BDE8F08100BF348004409090FF1F4F
:101D000004B0064003B0064007B0064038B5451899
:101D1000044603E014F8010BFFF7B8FFAC42F9D119
:101D200038BD10B5034C01E000F0FCFF2379002B17
:101D3000FAD110BD9090FF1F034A10785378984253
:101D400038BF4030C01A70479090FF1F084A117882
:101D50005378994208D001333F2B88BF0023D11814
:101D600091F82D00537070474FF0FF30704700BF5F
:101D70009090FF1F074A11785378994207D001339A
:101D80003F2B88BF0023D31893F82D0070474FF0E6
:101D9000FF3070479090FF1F014B5A781A707047C0
:101DA0009090FF1F10B5204B1B7803F02003DBB28F
:101DB00073B11E4B1E4A18781378517801333F2BAC
:101DC00088BF00238B4203D0D11881F82D001370F7
:101DD00018490B7818465BB2002B14DA124B1B78AB
:101DE0001B0610D5124A9478D3789C4202D16C23FA
:101DF0000B7008E00133272B88BF0023D1184C79E2
:101E00000A490C70D37000F04003DBB25BB1064BA3
:101E10001B7803F04003DBB22BB1054B00221A7193
:101E2000044B2C221A7010BD04B0064007B00640C7
:101E30009090FF1F03B00640154B1A6842F4805281
:101E40001A60144A0023137053709370D370137187
:101E5000114A40F2133111604FF4517151600F4A31
:101E6000C0F344311170C0F3471100F01F005170EE
:101E70009072937013740A4B2C221A70094B4022F3
:101E80006FF44B711A705B184FF400321A60704790
:101E900034800440FD90FF1F08C0044000C006408D
:101EA00003C0064031E400E0134A137800F0030158
:101EB00003F0EC030B43410748BF43F010031370DA
:101EC00000F00F03042B04D10C4B1A7842F04002AF
:101ED0001A700B4A1378C10603F0EF0348BF43F0B2
:101EE00010031370054A1378800603F0EF0348BF10
:101EF00043F010031370704702C0064006C006404E
:101F000005C006400D4B1B68D80410B503D410BDA6
:101F100000F008FF00E00A4C2379094A002BF7D1B2
:101F200008494FF400300860074908480B7040F238
:101F30000311016041601370537010BD3480044080
:101F4000FD90FF1F84E100E003C0064008C004408C
:101F50001A4B1B68DA042DE9F04106462BD5184DC3
:101F6000184FAC78DFF864800134272C88BF002438
:101F700015E0FEF7D9FE40280DDC3B781B060ED598
:101F8000EB780133272B88BF0023EA18527988F8B1
:101F90000020EB7003E0FF2801DD00F0C3FEEA78CB
:101FA000074BA242E5D01A19567101221A719C7092
:101FB000054BAC221A70BDE8F08100BF34800440AC
:101FC000FD90FF1F04C0064003C0064007C0064046
:101FD00038B54518044603E014F8010BFFF7B8FFC5
:101FE000AC42F9D138BD10B5034C01E000F09AFEC7
:101FF0002379002BFAD110BDFD90FF1F034A107802
:102000005378984238BF4030C01A7047FD90FF1F88
:10201000084A11785378994208D001333F2B88BF82
:102020000023D11891F82D00537070474FF0FF3006
:10203000704700BFFD90FF1F074A117853789942FF
:1020400007D001333F2B88BF0023D31893F82D000E
:1020500070474FF0FF307047FD90FF1F014B5A78DB
:102060001A707047FD90FF1F10B5204B1B7803F0CE
:102070002003DBB273B11E4B1E4A187813785178D7
:1020800001333F2B88BF00238B4203D0D11881F846
:102090002D00137018490B7818465BB2002B14DA28
:1020A000124B1B781B0610D5124A9478D3789C42A9
:1020B00002D16C230B7008E00133272B88BF00236B
:1020C000D1184C790A490C70D37000F04003DBB290
:1020D0005BB1064B1B7803F04003DBB22BB1054B21
:1020E00000221A71044B2C221A7010BD04C0064045
:1020F00007C00640FD90FF1F03C006401FB572B623
:10210000124B70221A70124A412111700F2102F8ED
:10211000011C80221A701A781206FCD562B60D4B8B
:1021200001A918680A22FEF725FE0B48002301AA20
:102130009A5C2AB100EB430101330A2B4A80F6D1A5
:102140000133054A5B00137005B000BD000002407A
:1021500007000240080002402E84FF1F70B50C4BA0
:102160000C4C1A7842F0020504EBC50682F001021D
:10217000706058781A7000280CBF8826C82646EA76
:10218000014180F0010044F83510587070BD00BF67
:102190006C91FF1F0080FF1F431E032B10B510D84A
:1021A00072B6094A02EB8302506808B14168516077
:1021B000064A018832F81340611A22F8131062B6F9
:1021C00010BD002010BD00BF6C91FF1FEC95FF1FDC
:1021D000013803280DD8084B03EB8000436972B621
:1021E000002002E01A885B688018002BFAD162B6E2
:1021F00070470020704700BF6C91FF1F0138032813
:102200000CD872B6064B03EB80004369002001E056
:102210005B680130002BFBD162B67047002070472D
:102220006C91FF1F70B572B61A4E1B4C01239A19A0
:1022300012F8012C02F00802D2B2F2B19900164A4B
:1022400054F831502DB902EB431308305860134B4A
:1022500009E041F0010154F8315075B902EBC103B6
:10226000083058600E4B42F831300E4B93F8242062
:10227000013A83F8242062B670BD0133052BD6D114
:1022800062B6084B002283F82420BDE8704000F0BD
:10229000D5BB00BF08BB00000080FF1F88004000C6
:1022A000C80040006C91FF1F421E032A30B533D88E
:1022B00040011A4B40F01000181872B6184CA318C1
:1022C00093F82530032B09D8DFE803F01302150536
:1022D0000830022310E0083004230DE09200A31818
:1022E000586908B9596101E0DB6A5960A218D162E6
:1022F00011E0032300E00523A21810F0080F82F874
:10230000253001F108030A8843600CBF8823C823E5
:1023100043EA0243036062B630BD00BF0080FF1F86
:102320006C91FF1F00BE70472DE9F74FA94EAA4CD4
:10233000357805F00403DBB2BBB1A84B93F8442019
:102340008AB193F845202AB1013AD2B283F84520E8
:1023500002B900BEA24A13782BB1013BDBB2137065
:102360000BB900F0C3FC0423337005F00802D2B2AD
:10237000002A00F095829B4B1B781D094FEA9309B8
:1023800040F0008204EBC903596854F83930C3F3B4
:102390008303013B0C2B00F2F181DFE813F0A6016F
:1023A000A601EF01EF01EF01EF01EF01EF01C40121
:1023B000EF01EF01EF010D004B6888480A68C36424
:1023C000894B826440F2816592B244F83930012130
:1023D0000023AA4203652361A361417019D8B2F5B5
:1023E000D06F80F02881B2F5817F00F0E18006D8BF
:1023F000802A00F0C180822A40F03C81C1E040F296
:1024000002318A4200F00681B2F5A06F40F03281BD
:1024100034E1B2F5106F10D004D8B2F5086F40F077
:102420002981A2E042F221018A4200F05B8101F59C
:1024300000718A4240F01E8117E190F84A30664DE3
:1024400080F844302B6A180603D5686A083800F013
:10245000F5FA664908358D42F4D1DFF8B0B10025B0
:10246000A846D9460BF1500A55F80B0005E0436821
:10247000009300F0E3FA009B18460028F7D15C4B6C
:1024800049F8050045F80A00E85807E0426800935B
:10249000019200F0D3FA019A009B10460028F5D172
:1024A0005851544BE850544B23F81800534B18F82C
:1024B0000320023A032A08D8DFE802F002040204EB
:1024C000002200E0012203F8082008F10108043589
:1024D000B8F1040FC8D1414BDFF83491002283F8E2
:1024E000242001259846464B05EB0902EB1812F80B
:1024F000012C9B001A7002F00802D2B23AB300F02D
:102500007FFAAB0038B104EB4512083050603D4A09
:1025100044F8332006E044F8330098F824300133BF
:1025200088F8243000F06CFAAB0043F0010338B1B6
:1025300004EBC302083050602B4A44F8332006E015
:1025400044F8330098F82430013388F82430AA0086
:1025500042F00201013542F003020023052D44F848
:10256000313044F83230BED188E090F8443005462E
:1025700005F83C3F0B4686E080F83C3080F83D3063
:102580007EE0B0F84C20042A00D973E080F83C309B
:1025900080F83D301C4B9200D3181B7803F00203E7
:1025A000DBB2002B6CD00546022305F83C1F6AE025
:1025B000B0F84C2002F07F03042B5BDCB0F84A300B
:1025C00003B157E09100104A8A18117821F00201F6
:1025D0004EE000BF802007400080FF1F6C91FF1F6E
:1025E0006192FF1F90200740C80040008080FF1FBD
:1025F0008091FF1F9891FF1FEC95FF1F9191FF1F86
:1026000030C8011088004000C02007407091FF1FB3
:1026100008BB0000B0F84C2002F07F03042B29DC3B
:10262000B0F84A3003B125E09100AF4A8A1811781A
:1026300041F002011CE0B0F84A20B0F84C10AB4B5E
:1026400053F8085CA3F10C00A5B133F80CCC944509
:1026500009D133F80ACC8C4505D1120A032A0CBFE4
:102660002B7803890FE00C33EAE790F84A10A04A70
:10267000117003E09C4B0F221A7033E01D4602E0FC
:10268000022300F13C059B4AB2F84E904B4538BFFF
:102690009946B9F1400F34BFC8464FF0400828466C
:1026A0004146FFF75BFDB9EB0809454403D1B8F19A
:1026B000400F07D016E0B9F1400F34BFC8464FF0C5
:1026C000400800E0C84628464146FFF747FDB9EB01
:1026D0000809454402D1B8F1400F03D1854A156578
:1026E000A2F864900122844B47E0824BB3F8482063
:1026F00042F221039A4212D1804A0023C85C9854C6
:102700000133072BFAD17D4B1B68862B03D1794B04
:102710000F2283F8452000200146FFF71FFD784B6C
:1027200044F839302AE0DFF8CC91D9F85080B8F17C
:10273000000F16D0B9F864A0BAF1400F34BF554667
:10274000402540462946FFF709FDC5EB0A039BB229
:10275000A9F864300BB9402D01D108EB0503654A97
:102760001365644BB3F84820B2F5A06F06D1002280
:1027700083F8492093F84A20624B1A705E4B01227D
:102780001A708AE004EBC90803F00803D8F80420A3
:10279000013DD9B2A2F10800EDB2002945D000F008
:1027A0004DF9544B03EB8500416921B34A684261FE
:1027B00001F10802C8F804205A1992F82520032ACA
:1027C00010D8DFE802F00205080B5D19032307E0CB
:1027D0005D19022304E05D19052301E05D1904235E
:1027E00085F8253018F0080F0A880CBF8823C82305
:1027F00043EA02434FE05A1992F82520032A0BD8E6
:10280000DFE802F04B4B02055D19002301E05D1982
:10281000012385F8253040E018F0080F1D440CBF57
:102820000222032285F8252037E054F839301B0CAA
:1028300022F8083C4BB322F8061C42F8041C2D4A2F
:102840004FEA850E02EB0E0194464A680AB94860C9
:1028500001E04A6D50600CEB0E02DFF898A0506565
:10286000294A32F815105B1822F8153000F0C8F824
:1028700018B10830C8F8040007E09AF8243044F88A
:10288000390001338AF8243007E01D4B1F4A18F045
:10289000080F08BF134644F839300823337047E562
:1028A000E9073DD5134C1448184D21460223037007
:1028B00001F8682B164BA8341D6059601A619A61A3
:1028C0009D60DC60084B0D2119701249FF230B70CD
:1028D00001F8083C0A74104A1370104B9F221A70BA
:1028E0000123037035E000BFC020074018BB000083
:1028F0006292FF1F6C91FF1F94200740F495FF1F09
:10290000C800400098200740EC95FF1F8800400059
:102910000080FF1F882007408C200740842007404C
:102920002B0605D50C4B0D221A70802203F8402C83
:1029300005F00203DBB22BB1084B1A781A700222A1
:1029400003F8082C05F01005EDB215B1044B102268
:102950001A70BDE8FE8F00BFC020074088200740E6
:102960008020074008B5FFF7C9FB00231E491A461F
:102970005A50C8180833882B4260F9D11B4B1A688B
:1029800042F480221A601A4B80221A701978184A71
:102990000906FBD4144B1749C3F307200870C3F38F
:1029A00007401B0E08750B76FF2301F81C3C01F84D
:1029B000143C01F88C3C137843F040031370002161
:1029C000012302F8783C02F80C1C02F8883C0A4B00
:1029D00070226FF4507C1A7063444FF400721A60D6
:1029E000064B10221A7008BD0080FF1F348004407F
:1029F0000C2107409C20074049E400E008210740E3
:102A000072B60C4A1168B1FA81F30B2B02D962B687
:102A1000002070474FF0004020FA03F021EA000147
:102A2000116062B6044948225343C8180022CA50B4
:102A300042607047CC84FF1FA080FF1F0C4B4822D0
:102A4000C31AB3FBF2F30B2B11D80A4A127822B146
:102A5000094A12780AB1FFF7E5BB72B6074A4FF090
:102A6000004121FA03F311681943116062B67047FF
:102A7000A080FF1F9091FF1FB091FF1FCC84FF1F0C
:102A800038B5114C23684BB10F4D28684288811826
:102A900001320C7A01888A4212D30CE00B4B1B786E
:102AA00013B94FF0FF340CE00320FFF775FB2060F3
:102AB0000028E9D1F5E7FFF7C1FF00232B6000E014
:102AC0004280204638BD00BF5492FF1FB091FF1FC7
:102AD00010B50C4C23681BB10A4B1B686BB902E0A4
:102AE000094B1B7813B94FF0FF3010BD0320FFF7DF
:102AF00053FB20600028EFD1F5E75A889B18187A1D
:102B000010BD00BF5492FF1FB091FF1F044B988867
:102B1000044B1B681BB11A885B88D31AC018704716
:102B2000EC95FF1F5492FF1F2DE9F0470E4681469A
:102B30004FF00008DFF868A0184F2AE09AF800303C
:102B40004BB33B684BB90320FFF726FB386010B34B
:102B5000038813B9FFF772FFF5E73C6861882588A1
:102B60006D1AAE4238BF3546083148462A466118CC
:102B700003F010FD6388A944A844761BED18238850
:102B8000ADB2AB42658004D82046FFF757FF002363
:102B90003B60002ED2D14046BDE8F0875492FF1F23
:102BA000B091FF1F10B5094B1B786BB1084C206822
:102BB00018B1FFF743FF002323600320FFF7ECFA6F
:102BC00010B1FFF73BFFF8E710BD00BFB091FF1F4A
:102BD0005492FF1F2DE9F8432B4CDFF8B0800123FE
:102BE0000D462371064647E0A3681BBB47F2095711
:102BF0004FF0010998F8003013B9234A137112E01D
:102C00000420FFF7FBFA072806D884F80490FFF7A2
:102C1000F7FEA06070B92071013F01D0237B33B172
:102C2000194B01221A734FF0FF30BDE8F88300F012
:102C300079F8DFE7A1684888C0F14002954238BFC3
:102C40002A4600F10807002380182373CF19488013
:102C5000AD1A02E0F05CF85401339342FAD1F61851
:102C60004B883F2B06D940230B800420FFF71CFB29
:102C70000023A36005236373002DB5D1024B2846C2
:102C80001D71BDE8F88300BF5492FF1FB091FF1F74
:102C900007B502AB012103F8010D1846FFF79AFFB3
:102CA0000EBD70B50F4B1B78DBB10F4CA56801262C
:102CB00026714DB16B880026667304202B8029464F
:102CC000FFF7F2FAA66009E0FFF79AFE014620B18D
:102CD00004206573FFF7E8FA00E06673024B0022F8
:102CE0001A7170BDB091FF1F5492FF1F38B50C4C84
:102CF00025799DB9A16831B14B8804200B80FFF77D
:102D0000D3FAA56038BDFFF77BFE014620B1042051
:102D1000BDE83840FFF7C8BA0123637338BD00BF70
:102D20005492FF1F7047FFFF0A4B4FF0FF321F29DD
:102D300028BF1F2110B59A60186019714FF4817275
:102D4000002303E002FB0304637001338B42F9D1DB
:102D500010BD00BF6492FF1F30B572B6104B9A6869
:102D60001879B2FA82F1814202D362B6002030BDF6
:102D70004FF0004020FA01F022EA00029A601A7B2C
:102D80000132D2B21A7362B64FF4817041431C68AB
:102D9000012565546018597B914238BF5A7330BD84
:102DA0006492FF1F427872B60378012B02D9013B6F
:102DB00003700AE0064B4FF0004121FA02F19A68D5
:102DC0000A439A601A7B013A1A7362B6704700BFD1
:102DD0006492FF1F30B5C3680EE0187A90420AD1A2
:102DE00058685C7A006950F8245025B940F82410DE
:102DF000087801300870DB68002BEED130BD437AD3
:102E000099424FF0000305D2026952F8210042F8BE
:102E1000213070471846704738B5437A994201D33C
:102E2000002418E0036953F82140002243F82120D0
:102E3000002CF5D02378012B0DD9FFF78DFF054627
:102E400028B10230A11C4FF4807203F0A3FB237859
:102E5000013B23702C46204638BD10B54168427AAC
:102E60004B7A9A420ED872B60268D36813B9D06012
:102E700004E02346DC68002CFBD1D86001231372E8
:102E80000B7262B610BD074B9A7B4AB9064AFF2106
:102E90001170064A4FF0804101201160987370470D
:102EA000002070476492FF1F5EE400E008E100E04C
:102EB000F8B5164B164D1A6842F080721A60154B21
:102EC0001A6842F001021A60134B2E681C690FE069
:102ED000237A63B121682F680B68204698472B68D6
:102EE000E288DB1B1B099342A38088BFE3806469EF
:102EF000002CEDD1064B1A68074B921BD98A120998
:102F00008A429A8288BFDA82F8BD00BFFCED00E0F9
:102F1000041000E0001000E06492FF1F10B50846A6
:102F200014461146FEF7D3FC204610BD084608B5EE
:102F3000FEF780FC012008BDFEF75CBDFEF71EBD5C
:102F4000FEF732BDFEF744BDFEF724BD0846FEF78E
:102F500059BCFEF731BC480800F1B76000F5584095
:102F6000B0FBF1F0FEF7B8BB480800F1B76010B550
:102F700000F55840B0FBF1F01446FEF7ADFB2046DB
:102F8000BDE81040FEF7EABB044B00221A711A7329
:102F9000034A4FF47A7199601A6070477C92FF1F60
:102FA00068BB000010B5084614461146FEF7AEFE99
:102FB000204610BD084608B5FEF768FE012008BD92
:102FC000FEF7EABEFEF7ADBEFEF7C0BEFEF7D2BE0C
:102FD000FEF7B2BEFEF734BE480800F1B76000F558
:102FE0005840B0FBF1F0FEF7C5BD480800F1B760EE
:102FF00010B500F55840B0FBF1F01446FEF7BAFDED
:103000002046BDE81040FEF7EDBDFFFF044B002257
:103010001A711A73034A4FF47A7199601A607047F3
:103020008C92FF1FA0BB000010B508461446114645
:10303000FEF7CEFF204610BD084608B5FEF788FF14
:10304000012008BDFFF70AB8FEF7CDBFFEF7E0BFCD
:10305000FEF7F2BFFEF7D2BFFEF754BF480800F1FB
:10306000B76000F55840B0FBF1F0FEF7E5BE480848
:1030700000F1B76010B500F55840B0FBF1F0144610
:10308000FEF7DAFE2046BDE81040FEF70DBFFFFF59
:10309000044B00221A711A73034A4FF47A71996033
:1030A0001A6070479C92FF1FD8BB0000014B036061
:1030B000704700BF10BC00000369D3F84422B2F58A
:1030C000817F09D8D3F844229818013280F83C1146
:1030D000C3F8442201207047012303710020704788
:1030E000036930B5D3F84442B4F5817F1CD8D3F8D6
:1030F0004442D3F84452C4F5817401345B19A242AE
:1031000003F59E7502D9012303712246002302E0D4
:10311000CC5CEC5401339342FAD10369D3F84412E6
:103120005118C3F8441202E0012303710022104633
:1031300030BD002202710273064A417310B502606D
:103140004FF47A74044A84604FF4187404FB01212C
:10315000016110BD10BC0000D084FF1FF0B59DF8C8
:1031600014409DF818509DF8206029B94C4FD7F8AD
:1031700000C04CF0400C06E0012906D1484FD7F8BA
:1031800000C04CF0800CC7F800C0002780F84B72DC
:1031900080F84822476932B920233B7003681A70CF
:1031A000C3691A7014E0002C0CBF202228223A7048
:1031B000076801D0A34201D25A0000E062003A70D1
:1031C000C26924B1A34201D2640000E05C00147023
:1031D0009DF81C3040F20362002B40F2646440F220
:1031E000032308BF4FF4197308BF224671B9012D9C
:1031F00005D12C4A80F849521360536018E02A4ADE
:1032000080F84912136042F8043C11E001290FD103
:10321000032D06D1254B80F849521A6043F8042C3F
:1032200006E0022280F84922214A1360043213602A
:1032300043680A2E1BD8DFE806F01A06080A0C0EAF
:103240001012141618001F2212E01D2210E0852211
:103250000EE014220CE045220AE00D2208E00B22C9
:1032600006E0092204E0022202E0002200E0272218
:103270001A70836904221A7090F8482283680AB988
:10328000802200E0C0221A7011B94FF0807203E072
:10329000012903D14FF00072064B1A60F0BD00BF48
:1032A0003480044000A004400CA0044004D004403A
:1032B00028B0044000E100E02DE9F8431C46C36853
:1032C0001B7803F02003DBB207460E469046002B26
:1032D0005CD1002C40F2032540F2036340F26469A4
:1032E00008BF4FF4197518BF994641BB012A11D187
:1032F0001220002C14BF02210021FDF7BFFF132074
:10330000002C14BF02210021FDF7B8FF87F8498285
:10331000214B38E01020002C14BF02210021FDF7C2
:10332000ADFF1120002C14BF02210021FDF7A6FFE4
:103330001A4B87F849621D6043F8045C29E00129B3
:1033400027D1002C14BF02240024032A0FD11D20F2
:103350002146FDF793FF1E202146FDF78FFF104BFE
:1033600087F84982C3F8009043F8049C11E01A20C2
:103370002146FDF783FF1F202146FDF77FFF022333
:1033800087F84932074B1D605D6002E00020BDE810
:10339000F8830120BDE8F88300A004400CA004409D
:1033A00004D0044028B004400369490083F83C116C
:1033B00003690122C3F844220022027183F84B22E0
:1033C0007047D0F8443210B53BB3C36812221A706C
:1033D00083681A7802F02002D2B20AB1B42209E05E
:1033E000C468227802F02002D2B2002AF9D180F813
:1033F0004822B0221A70012380F84B320023C0F813
:103400004032836880F84A12F0221A70D0F84022C5
:103410000369801890F83C211A7010BD30B54AB38A
:10342000C0F850220022C0F83421C0F83821C26808
:10343000122414708268147804F02004E4B20CB1F1
:10344000B42409E0C5682C7804F02004E4B2002C10
:10345000F9D180F84842B024147080F84A32022230
:10346000836880F84B22F0221A704900036941F00A
:103470000101197030BD036993F84B32043B032BF3
:1034800007D8DFE803F004020B0402207047042091
:1034900070470079003018BF012070470320704743
:1034A00090F84B326BB190F84B32052B09D090F865
:1034B0004B32062B05D090F84B02C31F584258419F
:1034C00070470120704770B504460D46FEF740F87E
:1034D00006462046FFF7E4FFD0B9002DF9D0FEF7ED
:1034E00037F8801BA842F4D312E094F84B32022B39
:1034F00012D094F84B32032B0ED0A023013B7FF463
:10350000FDAF94F84B02D0F1010038BF002070BD30
:1035100094F84B32012BE8D1042384F84B32ECE7CA
:1035200010B504460AB9002010BDFFF777FF20460A
:103530000299FFF7C8FF0028F5D0D4F8380110BD74
:1035400038B5044615460069FFF73BFF2069294658
:10355000FFF7B9FF2046BDE83840FFF78CBFD0F831
:103560003411D0F838219142034608D2D0F83421E2
:103570008118013291F83000C3F8342170474FF0C0
:10358000FF307047D0F83421D0F838319A4205D254
:10359000D0F83431C01890F8300070474FF0FF3049
:1035A0007047D0F83411D0F838219142034608D240
:1035B000D0F834218118013291F83000C3F8342159
:1035C000704700207047D0F83421D0F838319A4243
:1035D00005D2D0F83431C01890F830007047002080
:1035E000704738B5C16883680D781A78044602F0D0
:1035F0002000C0B2002800F0AC8002F01002D2B26D
:10360000002A4DD094F84B22012A1CD115F0010557
:10361000D4F8402206D002B927E0062284F84B22D3
:1036200080220DE10132C4F84022D4F844128A42CB
:1036300002D384F84B522CE0D4F840222369A2181C
:1036400092F83C21FCE094F84B22022A1DD105F0AF
:103650001002D2B23AB1072284F84B2280221A70AB
:10366000E36812221FE1EA0701D50522D6E703220B
:1036700084F84B22D4F85022012A01D1E82200E03C
:10368000E0221A7023691B780BE194F84B22042A7C
:10369000C6D194F84A22012A00D1C1E7B022CFE076
:1036A000D4F83811D4F850220231914200F0FD8054
:1036B00094F84B22042A04D194F85522002A00F0F1
:1036C000F480D4F83821D4F8503201329A4280F094
:1036D000EF8094F84B32042B40F0F38094F855328D
:1036E000002B40F0E580ECE084F84B32A368B02278
:1036F0001A7023691978D4F83831B3F5817F07D867
:10370000D4F83831E218013382F83010C4F8383177
:1037100094F84A32012B06D11023013B7FF4FDAF10
:10372000A36880221A7094F84B3207E0D4F838313D
:10373000E118013381F83020C4F8383194F84B3265
:10374000042B40F0AE8094F85532002B00F0C2807C
:10375000A7E005F01003DBB233B110230B7005F0C6
:103760004003DBB203B99CE015F0400150D094F85F
:103770004B32092B04D1D4F85832002B40F0AE80E4
:1037800015F004051DD0082384F84B320023C4F83B
:103790004432D4F85C3203B19847D4F844320BB9C0
:1037A00084F83C31A368D0221A7023691A78520831
:1037B00084F84C2294F83C211A700123C4F840325A
:1037C0006FE094F8492284F854520AB9122002E0BA
:1037D000012A02D11120454903E0022A03D14449BC
:1037E0001E20032203E0032A03D141491F20FDF7D5
:1037F0001DFB092384F84B320023C4F83831A36839
:10380000C0221A7023691B785B0884F84C3248E0A8
:1038100012F010021ED015F0010513D1D4F8402289
:10382000D4F844329A4207D2D4F84032E218013335
:1038300092F83C51C4F8403223691D70A368D0222D
:103840001A702EE0A368C0221A7023691B7884F8CE
:103850004B1226E084F8542294F849220AB9122027
:1038600002E0012A02D11120204903E0022A03D1FB
:103870001F491E20032203E0032A03D11C491F20F5
:10388000FDF7D4FA23691978D4F83831B3F5817F7C
:1038900007D8D4F83831E218013382F83010C4F870
:1038A0003831E36802221A7038BDE8221A7008E73E
:1038B00094F84B220023042A84F855327FF414AF85
:1038C00014E723691A78D4F83831B3F5817F7FF68D
:1038D0002DAF33E7012384F85532E2E70022C4F824
:1038E0003421D4F8380198474AE700BFA9390000CD
:1038F0009D39000001480121FFF773BE3087FF1F8B
:1039000001480021FFF76DBED084FF1F10B5C368CA
:103910001B7813F0200304461ED180F84B3290F838
:1039200049320BB912200AE0012B01D1112006E027
:10393000022B01D11E2002E0032B02D11F20FDF734
:103940009FFAD4F85832002B27D00022C4F8342133
:10395000D4F83801984710BD90F854320133DBB2E7
:10396000012B80F8543213D890F84832012B0FD134
:1039700010BD122008E01120012B05D01E20022BC3
:1039800002D0032B09D11F20BDE81040FDF778BA03
:1039900094F84932002BEED1EBE710BD014801212C
:1039A000FFF7B4BF3087FF1F01480021FFF7AEBF0C
:1039B000D084FF1F0369D3F83801D3F83431C01A1B
:1039C000704770470069FFF7CABD0069FFF7DABDAD
:1039D00070B50C4C0C4E0D4D00212046FFF7A9FB95
:1039E0002A4631462046143402F0B6FA0121204618
:1039F000FFF79FFB204631462A46BDE8704002F0A3
:103A0000ABBA00BFAC92FF1FAD3000000084FF1FB7
:103A100008B5034B01221A60024B1B68984708BD8A
:103A20000C710340D492FF1F08B5034B01221A60AA
:103A3000024B5B68984708BD1C710340D492FF1F7E
:103A400008B5034B01221A60024B9B68984708BDDA
:103A50002C710340D492FF1F08B5034B01221A605A
:103A6000024BDB68984708BD3C710340D492FF1FAE
:103A7000054B1A6842F400021A60044B00221A60D7
:103A8000034B01221A7470473C80044000700340CD
:103A9000D492FF1F054B01221A60054B1A6822F4CD
:103AA00000021A60034B00221A7470470070034032
:103AB0003C800440D492FF1FF0B54478104D114F64
:103AC00023015A194260104A9E18866004F1440688
:103AD0000673066947F8246000249C50595103215D
:103AE0009950037B5A11920002F1604202F5614243
:103AF00003F01F03012101FA03F31360F0BD00BFBF
:103B000000710340D492FF1F08710340F8B50D4BBC
:103B10001B7C06460F460BB9FFF7AAFF0024094D90
:103B200005F11102A25C42B97470304639462C1975
:103B3000FFF7C2FF01206074F8BD0134042CEED100
:103B40000020F8BDD492FF1F037B0122591103F01E
:103B50001F0302FA03F3094A42F821308268002366
:103B600013604178064A511811324B74995C21B99F
:103B70000133042BFAD1FFF78DBF704780E100E0DD
:103B8000D492FF1F037810B504460BB1FFF7DCFF9A
:103B90000023237010BD037870B504460D46164609
:103BA0001BB1FFF7D1FF002323702561204631466A
:103BB000FFF7ACFF10B10123237000E020702078E4
:103BC00070BD00BFF7B50D200121FDF757FBFCF7D5
:103BD00063FE00F07DF900F0A2FC0028FBD1A24CAE
:103BE000A24D00F00DFD26462368052B00F2A980AA
:103BF000DFE803F003082D35626D9D48FCF742FEB7
:103C000001232AE09B48FCF73DFEFCF785FE2B686C
:103C1000012B12D1984A994B126830321A70984A87
:103C2000126830325A70974A126830329A70964A47
:103C300012683032DA7000232B60904B1B78312BE6
:103C400001D102232360FA20FDF7A2FC7CE08F481B
:103C5000FCF718FE00F0B4FE0323336074E08C48D8
:103C6000FCF710FEFA20FDF793FC00F04BFE834BAF
:103C70003128187101D104232360FCF74DFE2B6815
:103C8000012B12D17C4A7D4B126830321A707C4A6B
:103C9000126830325A707B4A126830329A707A4A0F
:103CA00012683032DA7000232B60744B1B78302B93
:103CB0004AD10023236047E07648FCF7E3FDFCF798
:103CC000B3FF10B97448FCF7DDFD0523C5E7734861
:103CD000FCF7D8FD7368B3F5F07F12DB674FBB6864
:103CE0008BB16F48FCF7CEFD6E496F4803F012F9B7
:103CF00007F10C006C49FCF763FF00236360BB60B5
:103D000001E001336360FCF707FE2B68012B12D141
:103D1000594A5A4B126830321A70594A1268303276
:103D20005A70584A126830329A70574A12683032C4
:103D3000DA7000232B60514B1B78302B83D100238A
:103D400080E75A48FCF79EFDFEF7E0FE18B1FEF74B
:103D500097FE84F807016420FDF71AFC544B2027D6
:103D60001F601E20FDF714FC524B1F6094F80731B2
:103D7000622B09D15048FCF785FD02200146FCF773
:103D8000A9FD002384F8073196F80731772B0BD172
:103D90003A4FBB78787E39787A78FF780097FCF7CD
:103DA00087FD002384F8073194F80731692B09D186
:103DB00030200346009001460246FCF779FD0023BF
:103DC00084F8073194F807316D2B07D100F080F8A3
:103DD0003A48FCF757FD002384F8073196F807317D
:103DE0006E2B0FD100F09BFB074638B93448FCF727
:103DF00049FD00F005FC84F8077103E03148FCF749
:103E000041FDEFE794F80731612B14D11B4B1A7871
:103E1000312A06D130222C481A701A71FCF732FD73
:103E200006E0312229481A70FCF72CFD00F0C8FD8D
:103E3000002384F8073194F80731302B06D10E4A5D
:103E4000012313602B60002384F8073196F80731B3
:103E5000312B7FF4C9AE084A0023136001222A6087
:103E600084F80731C0E600BFEC92FF1F608FFF1F90
:103E70003CBC000047BC0000648FFF1F9089FF1FFF
:103E8000688FFF1F6C8FFF1F708FFF1F53BC0000D8
:103E900089BC000051BC00005BBC000087BC000076
:103EA00090BC000028BC0000F492FF1FADBC0000D5
:103EB00088F00F4084F00F40C6BC0000E0BC00005A
:103EC000F6BC00000ABD00001ABD00002CBD0000B9
:103ED0001FB5074B00220320597B009201920292EA
:103EE000039018691346FFF739F905B000BD00BF0C
:103EF000AC92FF1F70B50D4C03460D462046194687
:103F00001646FFF751FA29462046FFF7D5F8314605
:103F10002046FFF7D1F8012120460022FFF710FBD1
:103F200020690021BDE87040FFF7CDBAAC92FF1FB9
:103F30002DE9F341174C07460D46204639461E46EB
:103F40009046FFF731FA29462046FFF7B5F80021E1
:103F50000A4600252046FFF7F3FA01233246394688
:103F600000952069FFF7DCFA20692946FFF7ABFAD4
:103F70002369D3F83821D3F834319A4206D107E0C7
:103F80002069FFF70EFB08F805000135B542F7DBA5
:103F9000BDE8FC81AC92FF1F08B56B48FCF772FCD2
:103FA000682019210122FFF7A5FF68201A210322AA
:103FB000FFF7A0FF68201B210822FFF79BFF682066
:103FC0001C210822FFF796FF68201D210022FFF721
:103FD00091FF68201E210022FFF78CFF68201F211F
:103FE0000022FFF787FF202100226820FFF782FFD1
:103FF000682021210022FFF77DFF68202221002276
:10400000FFF778FF682023210022FFF773FF682065
:1040100024210022FFF76EFF682025210022FFF7F0
:1040200069FF682026210022FFF764FF682027210E
:104030000022FFF75FFF682000222821FFF75AFFC8
:10404000682029210022FFF755FF68202A2100223D
:10405000FFF750FF68202B210022FFF74BFF68205D
:104060002C210022FFF746FF68202D210022FFF7B8
:1040700041FF68202E210022FFF73CFF68202F21FE
:104080000022FFF737FF682030210022FFF732FFC0
:10409000682031210022FFF72DFF68203221002205
:1040A000FFF728FF682033210022FFF723FF682055
:1040B00034210022FFF71EFF682035210022FFF780
:1040C00019FF682037210022FFF714FF68203821EC
:1040D0000022FFF70FFF682063210022FFF70AFF8D
:1040E000682064210022FFF705FF68206521002277
:1040F000FFF700FF682066210022FFF7FBFE682023
:1041000067210022FFF7F6FE682001460022FFF734
:10411000F1FE682069210022FFF7ECFE68206A2189
:104120000022FFF7E7FE68206B210222FFF7E2FE84
:10413000682000226C21FFF7DDFE68207421002238
:10414000BDE80840FFF7D6BE3BBD000007B502AA98
:10415000002302F8013D682075210123FFF7E8FEE6
:104160009DF80700B0F16803584258410EBD37B5BD
:1041700002AD002305F8013D6820192101232A46DC
:10418000FFF7D6FE9DF8074014F1FF3418BF012455
:104190002A4668201A210123FFF7CAFE9DF807303E
:1041A000032B18BF01342A4668201B210123FFF787
:1041B000BFFE9DF80730082B18BF01340DF1070230
:1041C00068201C210123FFF7B3FE9DF80730082B60
:1041D00018BF01340DF10702012368201D21FFF7EC
:1041E000A7FE9DF8073003B10134012368201E218A
:1041F0000DF10702FFF79CFE9DF8073003B1013473
:10420000012368201F210DF10702FFF791FE9DF8A1
:10421000073003B101340123682020210DF107028A
:10422000FFF786FE9DF8073003B1013401236820B3
:1042300021210DF10702FFF77BFE9DF8073003B146
:1042400001340123682022210DF10702FFF770FEDF
:104250009DF8073003B101340123682023210DF1BB
:104260000702FFF765FE9DF8073003B10134012313
:10427000682024210DF10702FFF75AFE9DF8073050
:1042800003B101340123682025210DF10702FFF756
:104290004FFE9DF8073003B1013401236820262129
:1042A0000DF10702FFF744FE9DF8073003B101341A
:1042B0000123682027210DF10702FFF739FE9DF841
:1042C000073003B101340123682028210DF10702D2
:1042D000FFF72EFE9DF8073003B10134012368205B
:1042E00029210DF10702FFF723FE9DF8073003B1E6
:1042F0000134012368202A210DF10702FFF718FE7F
:104300009DF8073003B10134012368202B210DF102
:104310000702FFF70DFE9DF8073003B101340123BA
:1043200068202C210DF10702FFF702FE9DF80730EF
:1043300003B10134012368202D210DF10702FFF79D
:10434000F7FD9DF8073003B10134012368202E21C9
:104350000DF10702FFF7ECFD9DF8073003B10134C2
:10436000012368202F210DF10702FFF7E1FD9DF8E1
:10437000073003B101340123682030210DF1070219
:10438000FFF7D6FD9DF8073003B101340123682003
:1043900031210DF10702FFF7CBFD9DF8073003B186
:1043A00001340123682032210DF10702FFF7C0FD1F
:1043B0009DF8073003B101340123682033210DF14A
:1043C0000702FFF7B5FD9DF8073003B10134012363
:1043D000682034210DF10702FFF7AAFD9DF8073090
:1043E00003B101340123682035210DF10702FFF7E5
:1043F0009FFD9DF8073003B1013401236820372168
:104400000DF10702FFF794FD9DF8073003B1013469
:104410000123682038210DF10702FFF789FD9DF87F
:10442000073003B101340123682063210DF1070235
:10443000FFF77EFD9DF8073003B1013401236820AA
:1044400064210DF10702FFF773FD9DF8073003B1FA
:1044500001340123682065210DF10702FFF768FD93
:104460009DF8073003B101340123682066210DF166
:104470000702FFF75DFD9DF8073003B1013401230A
:10448000682067210DF10702FFF752FD9DF8073004
:1044900003B101346820012301460DF10702FFF743
:1044A00047FD9DF8073003B10134012368206921DD
:1044B0000DF10702FFF73CFD9DF8073003B1013411
:1044C000012368206A210DF10702FFF731FD9DF8F5
:1044D000073003B1013468206B2101230DF107027D
:1044E000FFF726FD9DF80730022B18BF01340DF1B0
:1044F0000702012368206C21FFF71AFD9DF80730A1
:1045000003B101340123682074210DF10702FFF784
:104510000FFD9DF8073003B1013420463EBD08B5BC
:10452000FFF714FE10B10648FCF7ACF9FFF734FDB5
:104530000A20FDF72DF8BDE80840FFF718BE00BFC0
:1045400042BD000070B52D4D00232B606B60AB6049
:1045500041F28836294C68204321012304F10C02E2
:10456000FFF7E6FC68204421012304F10D02FFF768
:10457000DFFC68204521012304F10E02FFF7D8FC7F
:1045800068204621012304F10F02FFF7D1FC6820C7
:104590004721012304F11002FFF7CAFC68204821DB
:1045A000012304F11102FFF7C3FC6B7B2A7B43EA72
:1045B00002222B689B182B60AA7BEB7B43EA02222A
:1045C0006B689B186B602A7C6B7C43EA0222AB68A9
:1045D00001209B18AB60FCF7DBFF013EBAD12268DB
:1045E00041F2883392FBF3F26261626892FBF3F26C
:1045F000A261A26892FBF3F3E36170BDF494FF1F24
:1046000008B5FFF79FFF0248BDE80840FCF73AB93C
:1046100050BD000010B5204C68203B2104F1200261
:104620000123FFF785FC68203C2104F121020123CE
:10463000FFF77EFC68203D2104F122020123FFF7F1
:1046400077FC68203E2104F123020123FFF770FC70
:1046500068203F2104F124020123FFF769FC04F1E3
:104660002502012368204021FFF762FC94F82020F6
:1046700094F8213043EA0223A36294F8222094F8AC
:10468000233043EA0223E36294F8242094F825308F
:1046900043EA0223236310BDF494FF1F2DE9F04782
:1046A000DFF80CA1DAF82C0001F03CFA00F01AFE59
:1046B0000446DAF830000D4601F034FA00F012FE3C
:1046C0000646DAF828000F4601F02CFA00F00AFE40
:1046D0003246804689463B463046394600F056FE13
:1046E000424606460F464B464046494600F04EFEBF
:1046F00002460B463046394600F096FC00F048FB77
:1047000002460B462046294600F06AFF00F0A4F955
:1047100025A3D3E9002300F039FE01F0F9F8CAF827
:104720003400DAF82800404201F0FCF900F0DAFD2C
:104730000446DAF830000D4601F0F4F900F0D2FD3D
:104740000646DAF82C000F4601F0ECF900F0CAFD3D
:104750003246804689463B463046394600F016FED2
:10476000424606460F464B464046494600F00EFE7E
:1047700002460B463046394600F056FC00F008FB76
:1047800002460B462046294600F02AFF00F064F955
:1047900005A3D3E9002300F0F9FD01F0B9F8CAF848
:1047A0003800BDE8F08700BFF6285C8FC2A54C40FA
:1047B000F494FF1F2DE9F8434F4E68204321012355
:1047C00006F10C02FFF7B4FB68204421012306F137
:1047D0000D02FFF7ADFB68204521012306F10E0213
:1047E000FFF7A6FB68204621012306F10F02FFF721
:1047F0009FFB68204721012306F11002FFF798FB79
:1048000006F11102482168200123FFF791FB737B19
:10481000307BB57B347C43EA00207369C01AF37B9C
:10482000F06343EA0525B369ED1A737C356443EA06
:104830000424F369E41A746401F074F92F4901F057
:1048400079FA8146B064284601F06CF92B4901F0F1
:1048500071FA8046F064204601F064F9284901F0BD
:1048600069FA07463065706D00F03CFD0446484625
:104870000D4600F037FD1EA3D3E9002300F086FDAE
:1048800002460B462046294600F0CEFB01F040F8D8
:104890007065B06D00F026FD044640460D4600F000
:1048A00021FD13A3D3E9002300F070FD02460B465F
:1048B0002046294600F0B8FB01F02AF8B065F06DFB
:1048C00000F010FD044638460D4600F00BFD08A32D
:1048D000D3E9002300F05AFD02460B462046294644
:1048E00000F0A2FB01F014F8F065BDE8F88300BF0A
:1048F0007B14AE47E17A643FF494FF1F00008542C9
:10490000000083422DE9F0412B4CFFF783FEFFF7B7
:10491000C5FEE16E606BD4F83880276E666EA56EBA
:1049200001F04AF8254920F0004001F00BFB10B1DE
:104930003120BDE8F0813946404601F03DF81F497D
:1049400020F0004001F0FEFA0028F1D1294630465F
:1049500001F032F8194920F0004001F0F3FA002884
:10496000E6D1FFF727FFA16F606DD4F85880276F5D
:10497000E66D656F01F020F8104920F0004001F06D
:10498000E1FA0028D4D13946404601F015F80B4928
:1049900020F0004001F0D6FA0028C9D1294630465F
:1049A00001F00AF8054920F0004001F0CBFA002898
:1049B000BED13020BDE8F081F494FF1F00004842D2
:1049C00010B50A4CFFF7F6FE636DA367A36D23676E
:1049D000E36D6367FFF71EFEFFF760FE636BE36640
:1049E000A36B2366636EA36610BD00BFF494FF1F24
:1049F00010B50446FFF7C6F8204610BD0348044929
:104A0000044A002300F8083F01F0A6BA8895FF1F6A
:104A1000F14900000084FF1F08461146FEF7DAB88E
:104A20000846FEF735B9FEF73CB9FEF751B8FEF778
:104A300027B8FEF76BB8FFFF044B00221A711A73F8
:104A4000034A4FF47A7199601A607047A895FF1F66
:104A500070BD0000FFFFFFFF2DE9F84F89464FF6BC
:104A6000FF7129F00044C4F20F4180468C424A464F
:104A7000CA461FDD0023C7F6F0739C4200F3C080D6
:104A800014BF0023012300280CBF002103F0010103
:104A9000002940F0B58042F2FB1942F618584B4607
:104AA000CBF6F979C3F6F973C5F24448002AC8BFBA
:104AB0009946ADE04FF6FF73C3F6DB739C4200F3FB
:104AC000BA804FF6FF73C3F61F639C4240F3A48085
:104AD0004FF0FF3B42464B464046494600F056FCED
:104AE00002460B4606460F4600F050FC8EA3D3E963
:104AF000002304460D4600F049FC8DA3D3E90023B2
:104B000000F092FA22462B4600F040FC8AA3D3E93B
:104B1000002300F089FA22462B4600F037FC88A3D8
:104B2000D3E9002300F080FA22462B4600F02EFC49
:104B300085A3D3E9002300F077FA22462B4600F044
:104B400025FC83A3D3E9002300F06EFA32463B46EE
:104B500000F01CFC80A3D3E9002306460F46204644
:104B6000294600F013FC7EA3D3E9002300F05AFA93
:104B700022462B4600F00AFC7BA3D3E9002300F079
:104B800051FA22462B4600F001FC79A3D3E9002319
:104B900000F048FA22462B4600F0F8FB76A3D3E952
:104BA000002300F03FFA22462B4600F0EFFBBBF15A
:104BB000FF3F02460B4663D04BF688543046C0F2A6
:104BC0000004394604EBCB0B00F02EFA4B4642466C
:104BD00000F0DCFBDBE9082300F024FA4B464246F8
:104BE00000F020FA02460B46DBE9000100F01AFA59
:104BF000BAF1000F8046B4BF01F10049894607E0D1
:104C00004046424649464B4600F00EFA80468946E9
:104C100040464946BDE8F88F59A3D3E900234946E9
:104C200000F002FA00230022C3F6F07300F03EFE0B
:104C30000028EDD14CE7494600F0A6F84FF6FF7387
:104C4000C3F6F2739C4206460F462ADC4FF6FF730A
:104C5000C3F6E5739C4258DC02460B4600F0E4F9CB
:104C600000230022C3F6F07300F0DCF94FF0000BD4
:104C700000224FF0804304460D46304639462CE072
:104C80003046394600F0D0F942464B4600F07EFBF4
:104C900002460B464046494600F0C4F98046894624
:104CA000B6E747F6FF73C4F203039C4220DC0023FF
:104CB0000022C3F6F8734FF0020B00F0B3F90023A3
:104CC0000022C3F6F87304460D463046394600F01C
:104CD0005DFB00230022C3F6F07300F0A5F9024645
:104CE0000B462046294600F07BFC80468946F1E6CB
:104CF00000210020CBF6F07132463B464FF0030B0B
:104D000000F06EFC80468946E4E600230022C3F6EC
:104D1000F0734FF0010B00F085F904460D46304664
:104D20003946D6E7AFF3008011DA22E33AAD903F7F
:104D3000EB0D76244B7BA93F513DD0A0660DB13FD2
:104D40006E204CC5CD45B73FFF8300922449C23F3A
:104D50000D5555555555D53F2F6C6A2C44B4A2BFFF
:104D60009AFDDE522DDEAD3F6D9A74AFF2B0B33FC7
:104D7000711623FEC671BC3FC4EB98999999C93F3F
:104D80009C7500883CE4377E21F00041704700BFED
:104D90002DE9F0478AB004460D4600F04FF848F67A
:104DA000AC1AC1F6FF7A9AF90030013306460F4675
:104DB0000FD02046294600F007F950B14FF0000807
:104DC0004FF000092046294642464B4600F050FD70
:104DD00020B9304639460AB0BDE8F0879AF800603D
:104DE0004BF6C853C0F200030122CDE904458DE81B
:104DF0000C000023CDE90245089356B9CDE9068998
:104E0000684600F009F970B1089B8BB9DDE90667C7
:104E1000DFE74046494642464B4600F0E1FB022EA2
:104E2000CDE90601ECD101F0A7F821230360EBE7FF
:104E300001F0A2F8089B0360E8E700BF2DE9F84302
:104E40000027B946C7F6F077C7F6F0790F404F450F
:104E500004460D4602460B460E46804600F09980F9
:104E6000002977DD0F1500F0828026F07F43A7F23E
:104E7000FF3723F47003FA0743F4801344BF4FEA6B
:104E8000D8724FEA48084FF0000C48BF02EB4303CA
:104E900060464FEAD8727F1002EB430316244FEAB4
:104EA00048024FF400114518D60F9D424FEA4202C6
:104EB000DEBFC5EB030368188C444908013C06EBD0
:104EC0004303F0D12026A0464FF000410EE081467A
:104ED0001B1A954288BF013B521B64184846D50FE8
:104EE00049085200013E05EB430315D0984201EBFF
:104EF000080503DB954298BF8342F0D105F00049D5
:104F000005EB0108B9F1004FE1D1B8F1000FA8BFDE
:104F100000F10109DCDADAE7134312D166084FEA3F
:104F20006C031CF0010F03F17F5318BF46F00046DD
:104F300003F50013344603EB075520462946BDE828
:104F4000F883631C08BF0CF1010CE8D004F00103E6
:104F50001C19E3E721F000460643EED041BB0F46A3
:104F60004FEAD826153F4FEA4858002EF8D016F4DD
:104F7000801319D176000133F102FBD5C3F1010191
:104F8000C3F1200228FA02F27F18164308FA03F848
:104F90006BE700F0FBF902460B462046294600F07D
:104FA00043F804460D46C8E7202201210023E9E723
:104FB00002460B4600F036F802460B4600F010FBA6
:104FC00004460D46B9E700BF50EA010201D10220B4
:104FD0007047D0F1010238BF0022B1F1004F08BF85
:104FE0000028F4D021F000434FF6FF71A3F58010A4
:104FF000C7F6DF71884201D804207047B3F5801FDF
:1050000001D2032070470020C7F6F070834214BF1E
:10501000002002F0010070470020704781F000413D
:1050200002E000BF83F0004330B54FEA41044FEA8D
:10503000430594EA050F08BF90EA020F1FBF54EA28
:10504000000C55EA020C7FEA645C7FEA655C00F0C4
:10505000E2804FEA5454D4EB5555B8BF6D420CDD95
:105060002C4480EA020281EA030382EA000083EA18
:10507000010180EA020281EA0303362D88BF30BDB8
:1050800011F0004F4FEA01314FF4801C4CEA11310E
:1050900002D0404261EB410113F0004F4FEA03336D
:1050A0004CEA133302D0524263EB430394EA050FF8
:1050B00000F0A780A4F10104D5F1200E0DDB02FA67
:1050C0000EFC22FA05F2801841F1000103FA0EF2FB
:1050D000801843FA05F359410EE0A5F120050EF1C1
:1050E000200E012A03FA0EFC28BF4CF0020C43FAF2
:1050F00005F3C01851EBE37101F0004507D54FF0FF
:10510000000EDCF1000C7EEB00006EEB0101B1F54E
:10511000801F1BD3B1F5001F0CD349085FEA300094
:105120004FEA3C0C04F101044FEA445212F5800F9F
:1051300080F09A80BCF1004F08BF5FEA500C50F13C
:10514000000041EB045141EA050130BD5FEA4C0C1F
:10515000404141EB010111F4801FA4F10104E9D1A8
:1051600091F0000F04BF01460020B1FA81F308BF9F
:105170002033A3F10B03B3F120020CDA0C3208DD6B
:1051800002F1140CC2F10C0201FA0CF021FA02F146
:105190000CE002F11402D8BFC2F1200C01FA02F1B6
:1051A00020FA0CFCDCBF41EA0C019040E41AA2BFDB
:1051B00001EB0451294330BD6FEA04041F3C1CDAA3
:1051C0000C340EDC04F11404C4F1200220FA04F0C3
:1051D00001FA02F340EA030021FA04F345EA03016D
:1051E00030BDC4F10C04C4F1200220FA02F001FA2F
:1051F00004F340EA0300294630BD21FA04F02946B1
:1052000030BD94F0000F83F4801306BF81F4801149
:105210000134013D4EE77FEA645C18BF7FEA655CBC
:1052200029D094EA050F08BF90EA020F05D054EA8E
:10523000000C04BF1946104630BD91EA030F1EBF93
:105240000021002030BD5FEA545C05D14000494197
:1052500028BF41F0004130BD14F580043CBF01F58A
:10526000801130BD01F0004545F0FE4141F4700170
:105270004FF0000030BD7FEA645C1ABF194610464B
:105280007FEA655C1CBF0B46024650EA013406BF4C
:1052900052EA033591EA030F41F4002130BD00BF0B
:1052A00090F0000F04BF0021704730B54FF48064C8
:1052B00004F132044FF000054FF0000150E700BF49
:1052C00090F0000F04BF0021704730B54FF48064A8
:1052D00004F1320410F0004548BF40424FF0000195
:1052E0003EE700BF42004FEAE2014FEA31014FEAD8
:1052F00002701FBF12F07F4393F07F4F81F0605127
:10530000704792F0000F14BF93F07F4F704730B595
:105310004FF4607401F0004521F0004120E700BF28
:1053200050EA010208BF704730B54FF000050AE0AF
:1053300050EA010208BF704730B511F0004502D5B0
:10534000404261EB41014FF4806404F132045FEAB2
:10535000915C3FF4DCAE4FF003025FEADC0C18BF57
:1053600003325FEADC0C18BF033202EBDC02C2F14D
:10537000200300FA03FC20FA02F001FA03FE40EADF
:105380000E0021FA02F11444C1E600BF70B54FF0DF
:10539000FF0C4CF4E06C1CEA11541DBF1CEA1355C1
:1053A00094EA0C0F95EA0C0F00F0DEF82C4481EA29
:1053B000030621EA4C5123EA4C5350EA013518BF49
:1053C00052EA033541F4801143F4801338D0A0FB36
:1053D00002CE4FF00005E1FB02E506F00042E0FBE3
:1053E00003E54FF00006E1FB03569CF0000F18BFE9
:1053F0004EF0010EA4F1FF04B6F5007F64F5407491
:1054000004D25FEA4E0E6D4146EB060642EAC62123
:1054100041EA55514FEAC52040EA5E504FEACE2E90
:10542000B4F1FD0C88BFBCF5E06F1ED8BEF1004F93
:1054300008BF5FEA500E50F1000041EB045170BD0F
:1054400006F0004646EA010140EA020081EA030153
:10545000B4EB5C04C2BFD4EB0C0541EA045170BD4F
:1054600041F480114FF0000E013C00F3AB8014F1C9
:10547000360FDEBF002001F0004170BDC4F1000412
:10548000203C35DA0C341BDC04F11404C4F1200593
:1054900000FA05F320FA04F001FA05F240EA0200EE
:1054A00001F0004221F0004110EBD37021FA04F624
:1054B00042EB06015EEA430E08BF20EAD37070BDDE
:1054C000C4F10C04C4F1200500FA04F320FA05F03D
:1054D00001FA04F240EA020001F0004110EBD3703F
:1054E00041F100015EEA430E08BF20EAD37070BDAF
:1054F000C4F1200500FA05F24EEA020E20FA04F388
:1055000001FA05F243EA020321FA04F001F0004136
:1055100021FA04F220EA020000EBD3705EEA430EA7
:1055200008BF20EAD37070BD94F0000F0FD101F0D6
:105530000046400041EB010111F4801F08BF013C0F
:10554000F7D041EA060195F0000F18BF704703F04D
:105550000046520043EB030313F4801F08BF013DD4
:10556000F7D043EA0603704794EA0C0F0CEA135590
:1055700018BF95EA0C0F0CD050EA410618BF52EA4A
:105580004306D1D181EA030101F000414FF0000050
:1055900070BD50EA410606BF1046194652EA43065E
:1055A00019D094EA0C0F02D150EA013613D195EAD2
:1055B0000C0F05D152EA03361CBF104619460AD11A
:1055C00081EA030101F0004141F0FE4141F4700124
:1055D0004FF0000070BD41F0FE4141F4780170BD14
:1055E00070B54FF0FF0C4CF4E06C1CEA11541DBF79
:1055F0001CEA135594EA0C0F95EA0C0F00F0A7F87B
:10560000A4EB050481EA030E52EA03354FEA0131A7
:1056100000F088804FEA03334FF0805545EA1313BA
:1056200043EA12634FEA022245EA111545EA106582
:105630004FEA00260EF000419D4208BF964244F119
:10564000FD0404F5407402D25B084FEA3202B61A38
:1056500065EB03055B084FEA32024FF480104FF40C
:10566000002CB6EB020E75EB030E22BFB61A754680
:1056700040EA0C005B084FEA3202B6EB020E75EB13
:10568000030E22BFB61A754640EA5C005B084FEA7B
:105690003202B6EB020E75EB030E22BFB61A754648
:1056A00040EA9C005B084FEA3202B6EB020E75EB53
:1056B000030E22BFB61A754640EADC0055EA060E14
:1056C00018D04FEA051545EA16754FEA06164FEA57
:1056D000C30343EA52734FEAC2025FEA1C1CC0D103
:1056E00011F4801F0BD141EA00014FF000004FF090
:1056F000004CB6E711F4801F04BF01430020B4F151
:10570000FD0C88BFBCF5E06F3FF6AFAEB5EB030C08
:1057100004BFB6EB020C5FEA500C50F1000041EB05
:10572000045170BD0EF0004E4EEA113114EB5C04D2
:10573000C2BFD4EB0C0541EA045170BD41F48011A5
:105740004FF0000E013C90E645EA060E8DE60CEAAD
:10575000135594EA0C0F08BF95EA0C0F3FF43BAFCA
:1057600094EA0C0F0AD150EA01347FF434AF95EA81
:105770000C0F7FF425AF104619462CE795EA0C0F65
:1057800006D152EA03353FF4FDAE1046194622E732
:1057900050EA410618BF52EA43067FF4C5AE50EA0C
:1057A00041047FF40DAF52EA43057FF4EBAE12E7FC
:1057B0004FF0FF3C06E000BF4FF0010C02E000BFDD
:1057C0004FF0010C4DF804CD4FEA410C7FEA6C5CC0
:1057D0004FEA430C18BF7FEA6C5C1BD001B050EA63
:1057E000410C0CBF52EA430C91EA030F02BF90EA4E
:1057F000020F0020704710F1000F91EA030F58BF0D
:10580000994208BF90422CBFD8176FEAE37040F06E
:10581000010070474FEA410C7FEA6C5C02D150EA0C
:10582000013C07D14FEA430C7FEA6C5CD6D152EAC7
:10583000033CD3D05DF8040B704700BF844610468C
:1058400062468C461946634600E000BF01B5FFF78B
:10585000B7FF002848BF10F1000F01BD4DF808ED5B
:10586000FFF7F4FF0CBF012000205DF808FB00BF2C
:105870004DF808EDFFF7EAFF34BF012000205DF886
:1058800008FB00BF4DF808EDFFF7E0FF94BF0120D3
:1058900000205DF808FB00BF4DF808EDFFF7CEFFD4
:1058A00094BF012000205DF808FB00BF4DF808ED13
:1058B000FFF7C4FF34BF012000205DF808FB00BFE4
:1058C0004FEA410212F5001215D211D56FF4787328
:1058D000B3EB625212D94FEAC12343F0004343EACB
:1058E000505311F0004F23FA02F018BF40427047A6
:1058F0004FF00000704750EA013005D111F0004030
:1059000008BF6FF0004070474FF00000704700BFC5
:105910004FEA4102B2F1E04324BFB3F5001CDCF1D1
:10592000FE5C0DD901F0004C4FEAC0024CEA507009
:10593000B2F1004F40EB830008BF20F00100704738
:1059400011F0804F21D113F13872BCBF01F000403B
:10595000704741F480114FEA5252C2F11802C2F16D
:10596000200C10FA0CF320FA02F018BF40F00100EE
:105970004FEAC1234FEAD32303FA0CFC40EA0C00A0
:1059800023FA02F34FEA4303CCE77FEA625307D1DD
:1059900050EA01331EBF4FF0FE4040F44000704714
:1059A00001F0004040F0FE4040F40000704700BFAE
:1059B00080F0004002E000BF81F0004142001FBFC4
:1059C0005FEA410392EA030F7FEA226C7FEA236CCD
:1059D0006AD04FEA1262D2EB1363C1BFD2184140C2
:1059E00048404140B8BF5B42192B88BF704710F058
:1059F000004F40F4000020F07F4018BF404211F0FB
:105A0000004F41F4000121F07F4118BF494292EA62
:105A1000030F3FD0A2F1010241FA03FC10EB0C008E
:105A2000C3F1200301FA03F100F0004302D549421B
:105A300060EB4000B0F5000F13D3B0F1807F06D3C8
:105A400040084FEA310102F10102FE2A51D2B1F1C0
:105A5000004F40EBC25008BF20F0010040EA0300B5
:105A60007047490040EB000010F4000FA2F1010262
:105A7000EDD1B0FA80FCACF1080CB2EB0C0200FAEC
:105A80000CF0AABF00EBC25052421843BCBFD0403A
:105A90001843704792F0000F81F4000106BF80F4B4
:105AA00000000132013BB5E74FEA41037FEA226C77
:105AB00018BF7FEA236C21D092EA030F04D092F042
:105AC000000F08BF0846704790EA010F1CBF002076
:105AD000704712F07F4F04D1400028BF40F00040D3
