:1000000000800020BD010000150900001509000056
:10001000150900001509000015090000E10800009D
:10002000E1080000E1080000E108000015090000F7
:1000300015090000E108000015090000D1080000C2
:100040001509000015090000150900001509000038
:100050001509000015090000150900001509000028
:100060001509000015090000150900001509000018
:100070001509000015090000150900001509000008
:1000800015090000150900001509000015090000F8
:1000900015090000150900001509000015090000E8
:1000A00015090000150900001509000015090000D8
:1000B00015090000150900001509000015090000C8
:1000C00015090000150900001509000015090000B8
:1000D00015090000150900001509000015090000A8
:1000E0001509000015090000150900001509000098
:1000F0001509000015090000150900001509000088
:100100001509000015090000150900001509000077
:100110001509000015090000150900001509000067
:100120001509000015090000150900001509000057
:100130001509000015090000150900001509000047
:100140001509000015090000150900001509000037
:100150001509000015090000150900001509000027
:1001600015090000411500001509000015090000DF
:100170001509000015090000150900001509000007
:1001800015090000150900001509000015090000F7
:10019000150900001509000015090000ED0A00000E
:1001A0003D0B0000C50B0000810C0000050D000098
:1001B0001509000015090000150900004F4B4CF20D
:1001C000205210B51A804DF628121A8000BF00BFC9
:1001D00000F0A3FB4A4B4FF010621A60494A9A6044
:1001E000494ADA60494B1A6812F4807204D14849CE
:1001F0000A604FF4A8521A60464B1A7802F00802BF
:10020000D2B21AB11A7842F008021A700023424A98
:100210004248434C02E019599950043399188142DD
:10022000F9D3404B404A002101E043F8041B9342BC
:10023000FBD33E4B00221A603D4B3E4A802103F81F
:10024000011B9342FBD13C4B0A221A703B4B2422E8
:100250001A70A02203F8012C394A137803F0020324
:10026000DBB2002BF9D0364A137803F01003DBB26F
:10027000002BF9D1324A137803F00C03082BFAD182
:10028000304B03221A7040225A702D4A137803F023
:100290002003DBB2002BF9D0294A137803F0400386
:1002A000DBB2002BF9D0284A284B1A60284B2022B9
:1002B0001A70234A137803F00C030C2BFAD1254B48
:1002C00002221A60244A43F8442C244B4BF67F3216
:1002D0001A60072243F8042C62B600F08CFF0C4B26
:1002E0001B68DC0702D51E4800F02AFD01F0E0FF84
:1002F00000F01AFB00F0D0FAFEE700BF0E20054028
:1003000030800440823F04000100002B10D00340E5
:1003100014D0034002D007400084FF1F2C8AFF1F27
:10032000588300002C8AFF1F1C8CFF1F08ED00E083
:1003300000E400E05FE400E00050064001400640B9
:10034000064006400440064000000311448004407B
:100350000040064048800440C010050014E000E062
:1003600000DD6850FFFFFFFFFFFFFFFFFFFFFFFF04
:10037000FFFFFFFFFFFFFFFFFFFFFFFFFFFFFFFF8D
:10038000FFFFFFFFFFFFFFFFFFFFFFFFFFFFFFFF7D
:10039000FFFFFFFFFFFFFFFFFFFFFFFFFFFFFFFF6D
:1003A000FFFFFFFFFFFFFFFFFFFFFFFFFFFFFFFF5D
:1003B000FFFFFFFFFFFFFFFFFFFFFFFFFFFFFFFF4D
:1003C000FFFFFFFFFFFFFFFFFFFFFFFFFFFFFFFF3D
:1003D000FFFFFFFFFFFFFFFFFFFFFFFFFFFFFFFF2D
:1003E000FFFFFFFFFFFFFFFFFFFFFFFFFFFFFFFF1D
:1003F000FFFFFFFFFFFFFFFFFFFFFFFFFFFFFFFF0D
:10040000FFFFFFFFFFFFFFFFFFFFFFFFFEFFFFFFFD
:1004100008B548F62C20074BC1F6FF701B1A062BB7
:1004200000D808BD40F20003C0F20003002BF8D052
:100430009847F6E72F8AFF1F08B548F62C2048F6A4
:100440002C23C1F6FF70C1F6FF731B1A9B1003EB40
:10045000D373591000D108BD40F20002C0F200026F
:10046000002AF8D09047F6E710B548F62C24C1F6DC
:10047000FF74237873B9FFF7CBFF40F20003C0F29B
:1004800000032BB148F25830C0F20000AFF30080F7
:100490000123237010BD00BF08B540F20003C0F275
:1004A00000034BB148F2583048F63021C0F200004A
:1004B000C1F6FF71AFF3008048F62C20C1F6FF7043
:1004C00003682BB140F20003C0F2000303B1984768
:1004D000BDE80840FFF7B0BFF0B5304830490368C9
:1004E0001B06FCD40B6813F08002F8D172B62D4BBA
:1004F0001978002950D02C4908684F688E68CD685B
:100500000C6938181431801909684019001940180D
:10051000C0F34E00254940F400400860C86A0F6BE4
:100520004E6B8D6BCC6B38184031801909684019BF
:1005300000194018C0F34E001D4940F40040086007
:1005400001F10811143151F8140C51F8107C51F8D4
:100550000C6C51F8085C51F8044C09683818801983
:10056000401900194018C0F34E00124940F40040F1
:100570000860C86A0F6B4E6B8D6BCC6B38184031BE
:1005800080190968401900194018C0F34E000A4943
:1005900040F4004008601A7062B6F0BD24B0034019
:1005A00024B00B40488AFF1F38B003402CB00340F2
:1005B00030B003402CB00B4030B00B40224B6022D7
:1005C0001A70E1225A70214B214A1978214B0829CF
:1005D00001D1012102E00A2907D13921116013223A
:1005E0001A601D4B19605A600BE00C291A4901D1A1
:1005F000352000E03D20106012221A60174B086081
:100600001A60174B17495B78174A03B101230B6037
:1006100013600E4B154A5978154B012901D88021DA
:100620000CE0042901D8842108E0082901D885219B
:1006300004E0102901D8862100E0872111601960AB
:10064000074B01221A707047004007400084FF1FCB
:1006500008B003400CB0034008B00B400CB00B4096
:10066000488AFF1F20B0034020B00B4024B0034055
:1006700024B00B400D4B5A7858B1AAB901215970DA
:100680001B7823B10A4B1A6003F500231A60FFF7A9
:1006900095BF4AB158701B78002BF8D0044B1860F6
:1006A00003F500231860F2E7704700BF488AFF1F78
:1006B00024B003400C2810B503D91023102807D804
:1006C00009E00A2806D8082894BF08230A2302E074
:1006D000184600E00C23DCB2084A0949201A907041
:1006E0000878834209D013780C7013B1054B0022AF
:1006F0001A60BDE81040FFF761BF10BD488AFF1FB8
:100700000084FF1F24B0034010B5114B1B78044632
:100710000BB1FFF7E1FE012C0E4A01D8002302E0E5
:10072000042C02D8042313600EE0082C03D8052300
:100730001360082308E0102C03D80623136010234D
:1007400002E0072313602023034A537010BD00BF4B
:10075000488AFF1F24B003400084FF1F0D282DE9A5
:10076000F0410FD9172801D80E380AE0A0F11A037A
:10077000052B01D8093804E0A0F12203062B50D83C
:100780001838C0B2284B1C5C284B1B780BB1FFF704
:10079000A3FE72B6220617D4254D244E01272C60E5
:1007A000F77062B672B62B6813F0800F1F4B04D03F
:1007B000204A10680022DA7026E0F378002BEED091
:1007C00062B601F0BBFBEDE704F040071A4D174E8F
:1007D000FFB204F03F044FF00108184B1A6817B13C
:1007E00022F0100201E042F010021A602C6086F83C
:1007F000048062B672B62B6813F0800F0B4B09D0E1
:100800000F4A106800221A7162B69B7840FA03F012
:10081000BDE8F0813379002BDFD062B601F08EFBAA
:10082000E8E70020BDE8F081CC7F0000488AFF1F88
:1008300000B0034010B0034000B00B400CB00B40C0
:1008400010B00B400B4B1A6842F480521A600A4BEE
:100850005A780A4B0AB1802200E0C0221A7040F692
:10086000FF739842A8BF1846054B20EAE070188035
:10087000704700BF2C800440488AFF1F21C00C40F5
:1008800000C00C4010B5441E01E001F00DFB14F84F
:10089000010F0028F9D110BDF8B50D20012100F09D
:1008A0000BFB2024074E084D27461E20376000F022
:1008B0008DFC2C6040F6B83000F088FC0348FFF750
:1008C000E1FFF2E784F00F4088F00F40E37F000083
:1008D000024B1A6801321A60704700BFD88AFF1FA6
:1008E00038B50B4C25462368580301D500F028FE87
:1008F0002B68590501D500F00DF82B681A0501D5B4
:1009000000F008F82368DB04EDD500F003F8EAE70F
:100910003480044008B5FFF7E3FF024B10221A8031
:10092000704700BF002005407047034A136818183D
:1009300010601846704700BF0484FF1F00207047F6
:100940004FF0FF3070474FF400534B60002070476A
:10095000012070474FF0FF307047FEE7FEE70120AF
:1009600070477047EFF313839BB9EFF3108098B98A
:10097000EFF3058323B10F2B04D9084A985C01E0FB
:100980004FF48070EFF311833BB1984228BF1846B3
:1009900070474FF0FF30704718467047F0E300E0B3
:1009A000002300E00133C25C002AFBD118467047E7
:1009B00010B50023B0FBF2F402FB1400092801D8A3
:1009C000303000E03730C85420460CB10133F1E735
:1009D000CA185470224605E0885CCC5C8C54C8541C
:1009E0000132013B9A42F7DB084610BD031E10B5E9
:1009F0000C4603DBBDE81040FFF7DABF2D2001F8FD
:100A0000010B5842FFF7D4FF204610BDF0B50F464A
:100A100087B016461C463A4633460546074901A8A4
:100A200001F04EFD284601F0EFFB02460B46204642
:100A300001A901F045FD204607B0F0BDFF7F000091
:100A4000084B4FF400021A604FF080721A604FF0AA
:100A500000721A604FF080621A604FF000621A60F4
:100A6000704700BF08E100E0212830B521D8042AF2
:100A70001FD8DFE802F00709050B03000B2306E08F
:100A80000A2304E0082302E00C2300E00923094ABA
:100A900002EBC002526872B61468074D24F4702449
:100AA000146044F0807444EA034345F82010136056
:100AB00062B630BD08800000508AFF1F094B03EB6F
:100AC000C0035B6872B61A6822F0877222F4803223
:100AD00042F080721A60044B002243F8202062B674
:100AE000704700BF08800000508AFF1F114B10B5EF
:100AF0001C68E0041C6004D50F4BDA680AB1DB689F
:100B00009847A10404D50C4B1A690AB11B69984790
:100B1000A20604D5084B1A6E0AB11B6E9847E3066D
:100B200006D5054BD3F8842012B1D3F8843098470A
:100B300010BD00BFA0900440508AFF1F1F4B10B58E
:100B40001C68E0031C6004D51D4B1A680AB11B68C1
:100B50009847A10304D51A4B5A680AB15B689847B5
:100B6000E20704D5164B1A6C0AB11B6C9847A30711
:100B700004D5134B5A6C0AB15B6C9847200704D517
:100B80000F4B9A6C0AB19B6C9847610704D50C4BCC
:100B9000DA6C0AB1DB6C9847220304D5084B5A6E15
:100BA0000AB15B6E9847630306D5054BD3F88020E6
:100BB00012B1D3F88030984710BD00BFA0A0044008
:100BC000508AFF1F2C4B10B51C6820071C6004D5F1
:100BD0002A4B5A6A0AB15B6A9847E10604D5274B4B
:100BE0009A6A0AB19B6A9847620604D5234BDA6A6F
:100BF0000AB1DB6A9847230604D5204B1A6B0AB169
:100C00001B6B9847A00604D51C4B5A6B0AB15B6B53
:100C10009847E10704D5194BDA6B0AB1DB6B9847AB
:100C2000A20704D5154B9A6D0AB19B6D98476307CF
:100C300004D5124BDA6D0AB1DB6D9847A00504D5D7
:100C40000E4BDA6E0AB1DB6E9847E10504D50B4B0B
:100C50001A6F0AB11B6F9847620504D5074B5A6F8C
:100C60000AB15B6F9847230504D5044B9A6F0AB10C
:100C70009B6F984710BD00BFA0B00440508AFF1F73
:100C80001E4B10B51C68E0071C6004D51C4B9A680D
:100C90000AB19B689847210604D5194B5A690AB1D5
:100CA0005B699847E20604D5154B9A690AB19B69BE
:100CB0009847630704D5124BDA690AB1DB69984794
:100CC000200704D50E4B1A6A0AB11B6A9847A10780
:100CD00004D50B4B9A6B0AB19B6B9847A20604D5BF
:100CE000074B1A6D0AB11B6D9847630604D5044B78
:100CF0005A6D0AB15B6D984710BD00BFA0C004409B
:100D0000508AFF1F094B10B51C68A2071C6004D550
:100D1000074B9A6E0AB19B6E9847E30704D5044BC4
:100D2000DA6F0AB1DB6F984710BD00BFA0D0044056
:100D3000508AFF1F014B1868704700BF00D0034066
:100D4000044B054900221A600A60044A1060102210
:100D50001A60704714D0034004D0034000D0034011
:100D6000002810B50FDB02024FF4807347F6FF74C2
:100D700000E00A46A24204D9013B012BC0EB02016C
:100D8000F7D1120A11E0404202024FF4807348F298
:100D9000FF0400E00A46A24204D9013B012BC0EB4C
:100DA0000201F7D1120AC2F58072013B024942EA00
:100DB00003220A6010BD00BF0CD0034018B11028F8
:100DC00028BF102000E00120014B1870704700BFC1
:100DD0000884FF1F10B500234FF4377242FA03F462
:100DE000A14202D80133072BF8D1164A42FA03F286
:100DF00002EB5102B2FBF1F101394FF6FF72914261
:100E000028BF1146C21E012A06D80F4A0F4C0020E7
:100E1000106020600E480FE0421F012A06D9092801
:100E200004D00A2802D01438032809D8094A0A4CE9
:100E3000002010602060094843F00803016013603F
:100E400010BD00BF006CDC02009003400490034022
:100E50000890034000800340048003400880034062
:100E6000212810B518D80D4A52F8303093F8804236
:100E70003CB1012211B183F8802010BD83F800211C
:100E800010BD02EBC00043681A6811B142F00302C2
:100E900001E022F002021A6010BD00BF08800000CD
:100EA000212805D8034B53F8303093F800027047DF
:100EB0000020704708800000212816D80B4A02EB5A
:100EC000C00301295B6852F8302004D182F88012F7
:100ED0004FF4A27208E0002082F8800211B94FF4AA
:100EE000807201E040F203121A607047088000002F
:100EF000282838B50A4604464E4B0FD11B780B2BD9
:100F000003D8C3F10C039A4003E00C2B01D00C3B37
:100F10001A411046BDE83840FFF794BC1978012506
:100F2000002A05FA01F301DC002102E09A4205D310
:100F30002946FFF795FF2046294676E0C31E012B80
:100F400001D83D4B06E0192801D0202801D13B4BA8
:100F500000E03B4B1B680133534323FA01F3E11ECE
:100F60001D2959D8DFE801F00F151B215858272DEE
:100F700058585858585858585833393F4558515868
:100F800058585858584B2F4A13604FF451722E4BF3
:100F900040E02E4A13604FF451722D4B3AE02D4A37
:100FA000136040F244422C4B34E02C4A136040F270
:100FB00044422B4B2EE02B4A136040F244422A4B12
:100FC00028E02A4A136040F24442294B22E0294A91
:100FD000136040F24442284B1CE0284A136040F260
:100FE0004442274B16E0274A136040F24442264B06
:100FF00010E0264A136040F24442254B0AE0254A9D
:1010000013604FF45172244B04E0244A1360244BC4
:101010004FF451721A6038BD7F2A2046D4BF002198
:101020000121FFF71DFF20460121BDE83840FFF7F1
:1010300043BF00BF0884FF1F0890034008800B4097
:101040000880034010900340309004401890034003
:1010500034900440488003401CC00440308003406A
:1010600010C00440208003400CB00440288003409E
:1010700010B004403880034014C004404080034056
:1010800018C004401080034004B00440188003409E
:1010900008B0044010800B4048A0044018800B406A
:1010A0004CA004402DE9F04107460E469046082426
:1010B000012505EA08013846FFF7D2FE0121304636
:1010C000FFF7CEFE002130466D00FFF7C9FE013C60
:1010D000EDB2EED1BDE8F0812DE9F04107460E46B4
:1010E00090460824802505EA08013846FFF7B8FE37
:1010F00001213046FFF7B4FE00213046FFF7B0FE75
:101100006D08013CEFD1BDE8F08112B91A46FFF736
:10111000C9BF1A46FFF7E0BF2DE9F04180460F46F0
:1011200008240025012638460121FFF799FE404694
:10113000FFF7B6FE00B13543002138467600FFF7D1
:101140008FFE013CF6B2EED12846BDE8F0812DE9D4
:10115000F04180460F4608240025802638460121AC
:10116000FFF77EFE4046FFF79BFE00B135430021AE
:101170003846FFF775FE7608013CEFD12846BDE8FA
:10118000F0810AB9FFF7C8BFFFF7E1BF72B60C4B99
:101190000C491A680C4BD3F88830096862B64901CB
:1011A00002D5322A88BF0133C2F53B427F3230215B
:1011B000B2FBF1F24FF47A7000FB0320704700BFDE
:1011C00018E000E004ED00E0508AFF1F70B504460F
:1011D000FFF7DCFF05466CB140F2E736FFF7D6FFBC
:1011E000401BB04203D9013C04D005F57A7500F0EC
:1011F000A5FEF3E770BD10B5FFF722FC154B164AAC
:10120000164C00204BF6FF711860596028231360BC
:101210009360136193611362936213639363092272
:1012200022600F4C20606160A360236144F8042CAD
:101230000C4C20600C4801600C490B608B600C4B1F
:101240001A60FFF7BBF90420FFF7C0FFBDE81040AC
:1012500000F094BC048003400C80034000800340F5
:101260000490034004800B4008800B400C800B402E
:1012700000800B4070B5072405464C4303E0013C59
:1012800001D1002070BD2B78002BF8D101E0013C8A
:10129000F7D02B78002BFAD0FFF778FF064601E055
:1012A000013CEED02B78002BFAD1FFF76FFF801BAB
:1012B00070BD70B5072405464C4303E0013C01D1E5
:1012C000002070BD2B78002BF8D001E0013CF7D056
:1012D0002B78002BFAD1FFF759FF064601E0013CBD
:1012E000EED02B78002BFAD0FFF750FF801B70BD9B
:1012F00021280BD8064B53F8300000F5007011B1CF
:101300001146FFF7B7BF1146FFF7D3BF0020704764
:10131000088000001FB572B6124B70221A70124A74
:10132000412111700F2102F8011C80221A701A78D5
:101330001206FCD562B60D4B01A918680A22FFF708
:1013400037FB0B48002301AA9A5C2AB100EB43014A
:1013500001330A2B4A80F6D10133054A5B00137032
:1013600005B000BD00000240070002400800024036
:101370000A84FF1F70B50C4B0C4C1A7842F0020522
:1013800004EBC50682F00102706058781A700028DC
:101390000CBF8826C82646EA014180F0010044F8C7
:1013A0003510587070BD00BFDC8AFF1F0080FF1F22
:1013B000431E032B10B510D872B6094A02EB830204
:1013C000506808B141685160064A018832F81340FC
:1013D000611A22F8131062B610BD002010BD00BFC4
:1013E000DC8AFF1F088CFF1F013803280DD8084B2B
:1013F00003EB8000436972B6002002E01A885B6844
:101400008018002BFAD162B670470020704700BFE9
:10141000DC8AFF1F013803280CD872B6064B03EB99
:1014200080004369002001E05B680130002BFBD1A4
:1014300062B6704700207047DC8AFF1F70B572B635
:101440001A4E1B4C01239A1912F8012C02F00802C3
:10145000D2B2F2B19900164A54F831502DB902EBCC
:10146000431308305860134B09E041F0010154F870
:10147000315075B902EBC103083058600E4B42F889
:1014800031300E4B93F82420013A83F8242062B6C1
:1014900070BD0133052BD6D162B6084B002283F80C
:1014A0002420BDE8704000F0D5BB00BF18810000CB
:1014B0000080FF1F88004000C8004000DC8AFF1F3A
:1014C000421E032A30B533D840011A4B40F01000B9
:1014D000181872B6184CA31893F82530032B09D8A6
:1014E000DFE803F0130215050830022310E008308E
:1014F00004230DE09200A318586908B9596101E06E
:10150000DB6A5960A218D16211E0032300E00523D1
:10151000A21810F0080F82F8253001F108030A889C
:1015200043600CBF8823C82343EA0243036062B6CA
:1015300030BD00BF0080FF1FDC8AFF1F00BE704768
:101540002DE9F74FA94EAA4C357805F00403DBB21C
:10155000BBB1A84B93F844208AB193F845202AB137
:10156000013AD2B283F8452002B900BEA24A1378EC
:101570002BB1013BDBB213700BB900F0C3FC0423A9
:10158000337005F00802D2B2002A00F095829B4B1E
:101590001B781D094FEA930940F0008204EBC90350
:1015A000596854F83930C3F38303013B0C2B00F224
:1015B000F181DFE813F0A601A601EF01EF01EF01D1
:1015C000EF01EF01EF01C401EF01EF01EF010D00A9
:1015D0004B6888480A68C364894B826440F281651D
:1015E00092B244F8393001210023AA4203652361F5
:1015F000A361417019D8B2F5D06F80F02881B2F59F
:10160000817F00F0E18006D8802A00F0C180822A24
:1016100040F03C81C1E040F202318A4200F0068194
:10162000B2F5A06F40F0328134E1B2F5106F10D006
:1016300004D8B2F5086F40F02981A2E042F22101FE
:101640008A4200F05B8101F500718A4240F01E8100
:1016500017E190F84A30664D80F844302B6A18063E
:1016600003D5686A083800F0F5FA664908358D42F6
:10167000F4D1DFF8B0B10025A846D9460BF1500AE5
:1016800055F80B0005E04368009300F0E3FA009B77
:1016900018460028F7D15C4B49F8050045F80A00C8
:1016A000E85807E042680093019200F0D3FA019AEB
:1016B000009B10460028F5D15851544BE850544B2C
:1016C00023F81800534B18F80320023A032A08D8CD
:1016D000DFE802F002040204002200E0012203F825
:1016E000082008F101080435B8F1040FC8D1414BB6
:1016F000DFF83491002283F8242001259846464BD8
:1017000005EB0902EB1812F8012C9B001A7002F08D
:101710000802D2B23AB300F07FFAAB0038B104EB62
:101720004512083050603D4A44F8332006E044F842
:10173000330098F82430013388F8243000F06CFA34
:10174000AB0043F0010338B104EBC3020830506032
:101750002B4A44F8332006E044F8330098F824304C
:10176000013388F82430AA0042F00201013542F02A
:1017700003020023052D44F8313044F83230BED145
:1017800088E090F84430054605F83C3F0B4686E07B
:1017900080F83C3080F83D307EE0B0F84C20042AE0
:1017A00000D973E080F83C3080F83D301C4B92004B
:1017B000D3181B7803F00203DBB2002B6CD0054674
:1017C000022305F83C1F6AE0B0F84C2002F07F03CA
:1017D000042B5BDCB0F84A3003B157E09100104AAB
:1017E0008A18117821F002014EE000BF80200740E6
:1017F0000080FF1FDC8AFF1FD18BFF1F9020074056
:10180000C80040008080FF1FF08AFF1F088BFF1F69
:10181000088CFF1F018BFF1F30C80110880040009B
:10182000C0200740E08AFF1F18810000B0F84C205C
:1018300002F07F03042B29DCB0F84A3003B125E025
:101840009100AF4A8A18117841F002011CE0B0F80B
:101850004A20B0F84C10AB4B53F8085CA3F10C00D5
:10186000A5B133F80CCC944509D133F80ACC8C459A
:1018700005D1120A032A0CBF2B7803890FE00C3321
:10188000EAE790F84A10A04A117003E09C4B0F223F
:101890001A7033E01D4602E0022300F13C059B4A2A
:1018A000B2F84E904B4538BF9946B9F1400F34BF5E
:1018B000C8464FF0400828464146FFF75BFDB9EBAC
:1018C0000809454403D1B8F1400F07D016E0B9F13B
:1018D000400F34BFC8464FF0400800E0C8462846D5
:1018E0004146FFF747FDB9EB0809454402D1B8F17D
:1018F000400F03D1854A1565A2F864900122844BFC
:1019000047E0824BB3F8482042F221039A4212D1B9
:10191000804A0023C85C98540133072BFAD17D4BD1
:101920001B68862B03D1794B0F2283F845200020BA
:101930000146FFF71FFD784B44F839302AE0DFF805
:10194000CC91D9F85080B8F1000F16D0B9F864A046
:10195000BAF1400F34BF5546402540462946FFF7AF
:1019600009FDC5EB0A039BB2A9F864300BB9402D01
:1019700001D108EB0503654A1365644BB3F84820B1
:10198000B2F5A06F06D1002283F8492093F84A20CF
:10199000624B1A705E4B01221A708AE004EBC90890
:1019A00003F00803D8F80420013DD9B2A2F10800E1
:1019B000EDB2002945D000F04DF9544B03EB850002
:1019C000416921B34A68426101F10802C8F8042064
:1019D0005A1992F82520032A10D8DFE802F00205F0
:1019E000080B5D19032307E05D19022304E05D196C
:1019F000052301E05D19042385F8253018F0080F50
:101A00000A880CBF8823C82343EA02434FE05A19CF
:101A100092F82520032A0BD8DFE802F04B4B020591
:101A20005D19002301E05D19012385F8253040E0B0
:101A300018F0080F1D440CBF0222032285F8252050
:101A400037E054F839301B0C22F8083C4BB322F82D
:101A5000061C42F8041C2D4A4FEA850E02EB0E01CB
:101A600094464A680AB9486001E04A6D50600CEB40
:101A70000E02DFF898A05065294A32F815105B185D
:101A800022F8153000F0C8F818B10830C8F8040082
:101A900007E09AF8243044F8390001338AF82430FA
:101AA00007E01D4B1F4A18F0080F08BF134644F803
:101AB00039300823337047E5E9073DD5134C144806
:101AC000184D21460223037001F8682B164BA834E9
:101AD0001D6059601A619A619D60DC60084B0D21A0
:101AE00019701249FF230B7001F8083C0A74104A60
:101AF0001370104B9F221A700123037035E000BF52
:101B0000C020074028810000D28BFF1FDC8AFF1F06
:101B100094200740108CFF1FC80040009820074009
:101B2000088CFF1F880040000080FF1F88200740AE
:101B30008C200740842007402B0605D50C4B0D2236
:101B40001A70802203F8402C05F00203DBB22BB19F
:101B5000084B1A781A70022203F8082C05F01005B9
:101B6000EDB215B1044B10221A70BDE8FE8F00BF14
:101B7000C0200740882007408020074008B5FFF7B5
:101B8000C9FB00231E491A465A50C8180833882B2F
:101B90004260F9D11B4B1A6842F480221A601A4B3A
:101BA00080221A701978184A0906FBD4144B174979
:101BB000C3F307200870C3F307401B0E08750B76AC
:101BC000FF2301F81C3C01F8143C01F88C3C13780D
:101BD00043F0400313700021012302F8783C02F81F
:101BE0000C1C02F8883C0A4B70226FF4507C1A706F
:101BF00063444FF400721A60064B10221A7008BD3D
:101C00000080FF1F348004400C2107409C200740C7
:101C100049E400E00821074072B60C4A1168B1FAA5
:101C200081F30B2B02D962B6002070474FF00040C1
:101C300020FA03F021EA0001116062B6044948224B
:101C40005343C8180022CA5042607047A884FF1F3F
:101C5000A080FF1F0C4B4822C31AB3FBF2F30B2BDF
:101C600011D80A4A127822B1094A12780AB1FFF74C
:101C7000E5BB72B6074A4FF0004121FA03F3116841
:101C80001943116062B67047A080FF1F008BFF1FD1
:101C9000208BFF1FA884FF1F38B5114C23684BB160
:101CA0000F4D28684288811801320C7A01888A42D7
:101CB00012D30CE00B4B1B7813B94FF0FF340CE040
:101CC0000320FFF775FB20600028E9D1F5E7FFF757
:101CD000C1FF00232B6000E04280204638BD00BFDA
:101CE000C48BFF1F208BFF1F10B50C4C23681BB14A
:101CF0000A4B1B686BB902E0094B1B7813B94FF014
:101D0000FF3010BD0320FFF753FB20600028EFD108
:101D1000F5E75A889B18187A10BD00BFC48BFF1FC7
:101D2000208BFF1F044B9888044B1B681BB11A883B
:101D30005B88D31AC0187047088CFF1FC48BFF1F25
:101D40002DE9F0470E4681464FF00008DFF868A005
:101D5000184F2AE09AF800304BB33B684BB9032088
:101D6000FFF726FB386010B3038813B9FFF772FF43
:101D7000F5E73C68618825886D1AAE4238BF354664
:101D8000083148462A46611800F0BEFA6388A94423
:101D9000A844761BED182388ADB2AB42658004D809
:101DA0002046FFF757FF00233B60002ED2D140466C
:101DB000BDE8F087C48BFF1F208BFF1F10B5094BB8
:101DC0001B786BB1084C206818B1FFF743FF002364
:101DD00023600320FFF7ECFA10B1FFF73BFFF8E7B1
:101DE00010BD00BF208BFF1FC48BFF1F2DE9F843E0
:101DF0002B4CDFF8B08001230D462371064647E0E7
:101E0000A3681BBB47F209574FF0010998F800304F
:101E100013B9234A137112E00420FFF7FBFA0728D5
:101E200006D884F80490FFF7F7FEA06070B920711F
:101E3000013F01D0237B33B1194B01221A734FF0BC
:101E4000FF30BDE8F88300F079F8DFE7A168488843
:101E5000C0F14002954238BF2A4600F1080700232E
:101E600080182373CF194880AD1A02E0F05CF85453
:101E700001339342FAD1F6184B883F2B06D9402301
:101E80000B800420FFF71CFB0023A3600523637372
:101E9000002DB5D1024B28461D71BDE8F88300BF67
:101EA000C48BFF1F208BFF1F07B502AB012103F876
:101EB000010D1846FFF79AFF0EBD70B50F4B1B784A
:101EC000DBB10F4CA568012626714DB16B88002649
:101ED000667304202B802946FFF7F2FAA66009E01A
:101EE000FFF79AFE014620B104206573FFF7E8FA78
:101EF00000E06673024B00221A7170BD208BFF1F39
:101F0000C48BFF1F38B50C4C25799DB9A16831B140
:101F10004B8804200B80FFF7D3FAA56038BDFFF78C
:101F20007BFE014620B10420BDE83840FFF7C8BA67
:101F30000123637338BD00BFC48BFF1F7047FFFFD1
:101F400081F0004102E000BF83F0004330B54FEA6A
:101F500041044FEA430594EA050F08BF90EA020FD7
:101F60001FBF54EA000C55EA020C7FEA645C7FEA6A
:101F7000655C00F0E2804FEA5454D4EB5555B8BF8D
:101F80006D420CDD2C4480EA020281EA030382EAFE
:101F9000000083EA010180EA020281EA0303362D90
:101FA00088BF30BD11F0004F4FEA01314FF4801C63
:101FB0004CEA113102D0404261EB410113F0004F75
:101FC0004FEA03334CEA133302D0524263EB43032C
:101FD00094EA050F00F0A780A4F10104D5F1200ECA
:101FE0000DDB02FA0EFC22FA05F2801841F1000125
:101FF00003FA0EF2801843FA05F359410EE0A5F1F9
:1020000020050EF1200E012A03FA0EFC28BF4CF029
:10201000020C43FA05F3C01851EBE37101F00045DF
:1020200007D54FF0000EDCF1000C7EEB00006EEBEC
:102030000101B1F5801F1BD3B1F5001F0CD3490876
:102040005FEA30004FEA3C0C04F101044FEA4452CD
:1020500012F5800F80F09A80BCF1004F08BF5FEA54
:10206000500C50F1000041EB045141EA050130BD34
:102070005FEA4C0C404141EB010111F4801FA4F1D7
:102080000104E9D191F0000F04BF01460020B1FA2C
:1020900081F308BF2033A3F10B03B3F120020CDA64
:1020A0000C3208DD02F1140CC2F10C0201FA0CF042
:1020B00021FA02F10CE002F11402D8BFC2F1200CA7
:1020C00001FA02F120FA0CFCDCBF41EA0C0190405D
:1020D000E41AA2BF01EB0451294330BD6FEA0404A6
:1020E0001F3C1CDA0C340EDC04F11404C4F1200291
:1020F00020FA04F001FA02F340EA030021FA04F3A3
:1021000045EA030130BDC4F10C04C4F1200220FAF9
:1021100002F001FA04F340EA0300294630BD21FA37
:1021200004F0294630BD94F0000F83F4801306BFFD
:1021300081F480110134013D4EE77FEA645C18BFF1
:102140007FEA655C29D094EA050F08BF90EA020F88
:1021500005D054EA000C04BF1946104630BD91EA80
:10216000030F1EBF0021002030BD5FEA545C05D183
:102170004000494128BF41F0004130BD14F58004C2
:102180003CBF01F5801130BD01F0004545F0FE4136
:1021900041F470014FF0000030BD7FEA645C1ABF6B
:1021A000194610467FEA655C1CBF0B46024650EAA2
:1021B000013406BF52EA033591EA030F41F40021CE
:1021C00030BD00BF90F0000F04BF0021704730B554
:1021D0004FF4806404F132044FF000054FF0000129
:1021E00050E700BF90F0000F04BF0021704730B5EA
:1021F0004FF4806404F1320410F0004548BF4042BF
:102200004FF000013EE700BF42004FEAE2014FEA13
:1022100031014FEA02701FBF12F07F4393F07F4FEE
:1022200081F06051704792F0000F14BF93F07F4F20
:10223000704730B54FF4607401F0004521F0004163
:1022400020E700BF50EA010208BF704730B54FF0E9
:1022500000050AE050EA010208BF704730B511F0EE
:10226000004502D5404261EB41014FF4806404F126
:1022700032045FEA915C3FF4DCAE4FF003025FEAA8
:10228000DC0C18BF03325FEADC0C18BF033202EB30
:10229000DC02C2F1200300FA03FC20FA02F001FA8A
:1022A00003FE40EA0E0021FA02F11444C1E600BF29
:1022B00070B548F24C3648F24C35C0F20006C0F218
:1022C0000005761BB61007D0043D002455F8043FE6
:1022D00001349847A642F9D148F2503648F24C35BD
:1022E000C0F20006C0F20005761B06F029F8B61011
:1022F00008D0043D002455F8043F01349847A64215
:10230000F9D170BD70BD00BF032A2DE9F00F09D8C7
:102310002AB10023CC5CC45401339342FAD1BDE806
:10232000F00F7047830702440ED0441C4D1C15F873
:10233000017C04F00306234601342946013504F8E4
:10234000027C002EF3D100E0034611F003046DD0AF
:10235000D71A0D1B032F2E6819DDC4F1040C4FEAA8
:10236000C4081C1D4FEACC0C55F8047FC4EB0209CD
:10237000234604310434B9F1030F26FA08FA07FAA8
:102380000CFB3E464BEA0A0744F8087CECDC9A4218
:10239000C5D901330131013211F8014C013301314A
:1023A000934203F8024CF7D1B9E70C68403340314F
:1023B00043F8404C51F83C4C43F83C4C51F8384CF5
:1023C00043F8384C51F8344C43F8344C51F8304C05
:1023D00043F8304C51F82C4C43F82C4C51F8284C15
:1023E00043F8284C51F8244C43F8244C51F8204C25
:1023F00043F8204C51F81C4C43F81C4C51F8184C35
:1024000043F8184C51F8144C43F8144C51F8104C44
:1024100043F8104C51F80C4C43F80C4C51F8084C54
:1024200043F8084C51F8044C43F8044CD41A3F2CA0
:10243000BBDC11E00C681033103143F8104C51F83C
:102440000C4C43F80C4C51F8084C43F8084C51F82C
:10245000044C43F8044CD41A0F2CEBDC032C96DD0F
:102460001C1D0D1D55F8047C161B234629460434FB
:102470000435032E44F8087CF4DC88E70CB4F0B58E
:102480009DB022AC0E4602A96FF0004554F8042B13
:102490004FF4027704952346079502964FF6FF7591
:1024A000ADF814700696ADF81650019400F030F8AF
:1024B000029B00221A701DB0BDE8F04002B07047C8
:1024C0000EB448F2AC43F0B59CB021ACC1F6FF733A
:1024D000064602A954F8042B6FF0004518684FF423
:1024E00002772346049507954FF6FF750296ADF8DF
:1024F00014700696ADF81650019400F009F8029B8E
:1025000000221A701CB0BDE8F04003B0704700BF55
:102510002DE9F04FC9B089461446119300260F905B
:1025200002F002FB0027CDE91E6700681C90FEF751
:1025300037FAB9F80C3003F080031BB21D9023B1B9
:10254000D9F81030002B01F0DD800DF1E00B48F2DE
:102550009C15D84648F2981648F294170A9448F207
:1025600090140023C0F20005C0F20006C0F200077C
:10257000C0F2000412931A9320930C9318951996A5
:1025800016971794CDF8ACB02D932C93CDF82490DA
:102590000A9D2B78252B18BF002B00F0B9806A1CF0
:1025A000164601323378252B18BF002BF8D10A9C30
:1025B000371B10D02C9C0A9801342D9D072C88E8DD
:1025C00081003D442C94D8BF08F108082D957EDC8D
:1025D0000C9CE4190C943378002B00F0D387751C05
:1025E000777800234FF0FF390D9320208DF88B3042
:1025F0002B2108932B460A950133A7F12002582A74
:1026000000F24882DFE812F0EC0246024602DB02EA
:10261000460246024602460246024602E1028600A1
:1026200046025D008A004602A900AF00AF00AF007D
:10263000AF00AF00AF00AF00AF00AF0046024602F0
:10264000460246024602460246024602460246024A
:10265000C000840146028401460246024602460248
:10266000BC0146024602C20146024602460246023A
:102670004602DF0146024602EC01460246024602DD
:1026800046024602460246024602460246027102DF
:1026900058028401840184016B02580246024602FA
:1026A0003C024602B50285029A020B024602110262
:1026B0004602C70246024602F5020D9E119276427C
:1026C0000D96089F47F0040708971F7894E70F9826
:1026D0002BAA099903F016FB48B9D84678E70F985A
:1026E0002BAA099903F00EFB002800F07083DDF897
:1026F0002490B9F80C300C9C03F040031BB2002B63
:1027000018BF4FF0FF340C940C9849B0BDE8F08F1F
:102710000A9E60E78DF88B101F786DE71C4614F851
:10272000017B2A2F01F06681A7F13002092A84BFBC
:1027300023464FF000093FF660AF4FF0000914F850
:10274000017B09EB890902EB4909A7F13002092A4B
:102750002346F4D949EAE9794FE7089E46F0800616
:1027600008961F7848E71C460022A7F1300614F8A7
:10277000017B02EB8202A7F130052346092D06EB0F
:102780004202F2D90D9238E7089C0A9344F01004F3
:102790000894089DAD0640F19481119EF31D23F02D
:1027A000070303F108041194D3E9002314461D46DE
:1027B000002A73F10006C0F2FF8554EA05004FF0CD
:1027C00001030CBF00220122B9F1000FA2BF089E35
:1027D00026F080060896B9F1000F18BF42F00102FA
:1027E000002A00F05C83012B00F09F84022B00F094
:1027F0007A840DF1DF00BC46E108072604EA0602F0
:1028000041EA4571EE080C46354603463032013840
:1028100054EA0507D2B21A70EED1089C67461493A9
:10282000E40700F1BD85C3EB0B050E959DF88B30D9
:102830000E9ECDF840904E45B8BF4E464FF0000971
:102840000B96CDF86C902BB1DDF82C9009F10109B5
:10285000CDF82C90089B13F00203139302D00B9C2D
:1028600002340B94089D15F08405159540F0D7812E
:102870000D9C0B9D661B002E40F3D181102E48F25B
:10288000701A2D9DC0F2000A2C9C28DD21974FF074
:1028900010095746B2460F9E04E0AAF1100ABAF199
:1028A000100F19DD01341035072C88E880022C94B4
:1028B00008F108082D95F0DD304609992BAAD84675
:1028C00003F020FA00287FF412AFAAF1100A2D9D20
:1028D000BAF1100F2C9CE5DC5646BA46219F013414
:1028E000C8F800A0072CC8F8046035442C942D9536
:1028F000D8BF08F1080840F393810F982BAA0999D3
:1029000003F000FA00287FF4F2AE2D9DD84687E14F
:10291000089C0A93210740F17C85119DE91D21F057
:10292000070101F1080611960E684D6830462946E8
:10293000CDE91E013046294603F0BAF80128304699
:1029400040F04B8500220023294604F069FF00284F
:1029500040F065879DF88B300324169E0B9400256C
:10296000089CDDF85C90109524F08004472FD8BFB8
:102970004E4603251496002608940E951B9662E792
:10298000089F47F0080708971F7835E6089C0A93C8
:1029900044F010040894089D15F0200300F0BF8057
:1029A000119E0023F21D22F0070202F10804119487
:1029B000D2E9004554EA05060CBF0022012200219D
:1029C0008DF88B1000E7089C0A9344F010040894DB
:1029D000089DAD0640F1E480119E0123F21DE2E75F
:1029E000089D48F2A014C0F200040A93A9061A94A4
:1029F00040F10981119EF31D23F0070303F1080440
:102A00001194D3E90045089EF60700F1DB8354EAF0
:102A100005004FF002030CBF00220122CFE7089F00
:102A200047F0200708971F78E6E5119E00248DF8EF
:102A30008B400A9336681496119E351D149E002E05
:102A400000F0DC86B9F1000F1498C0F2A886214688
:102A50004A4602F057FB002800F04187149E10946C
:102A6000801B0E90484540F3A285119529EAE97430
:102A7000109D0B949DF88B30CDF838901B95E2E6B5
:102A80001F781A466C2F00F08A85089E46F01006C3
:102A90000896B1E50A93002F00F074850124002305
:102AA0002EAD0B948DF8B8700E948DF88B30149574
:102AB000002510951B95CDE6089D0A93AD063FF5C0
:102AC0006CAE089DEC0640F1AD84119E043656F8BC
:102AD000043C11961C461A46DD172B4668E6089CF6
:102AE00044F0400408941F7886E50A934FF00109EA
:102AF000119B0022119C2EAECDF82C901B68043443
:102B0000CDF8389011948DF88B2014968DF8B8304C
:102B1000CEE7089D0A9315F020037FF441AF089C8F
:102B200014F0100200F08C84119D2E1D11962A685D
:102B30001446003218BF0122002540E70A93782787
:102B4000119B48F2B416089DC0F200061C1D11949A
:102B50001A6845F002050895002530231446521BDB
:102B60008DF88C3018BF01228DF88D701A960223D3
:102B700025E7089F0A93BA0640F18084DDF8449067
:102B80000C9A09F1040959F8043CD117CDF8449086
:102B90001A605960FCE4089D0A93AD063FF51CAF2E
:102BA000089CE40640F18584119D2E1D11962A682B
:102BB00001231446003218BF01220025FFE6089FBA
:102BC00047F0010708971F7816E5119C119D2468AE
:102BD0002A1D002C0D94FFF670AD1F7811920BE5A5
:102BE0009DF88B20002A40F0F5838DF88B001F782C
:102BF00002E5089D48F2B416C0F200060A93A90641
:102C00001A963FF5F7AE089DEA0640F12B84119E17
:102C10000025043656F8043C11961C46F3E62D9D1B
:102C20009DF88B308BB12C9C0DF18B03C8F80030D4
:102C300001230134C8F80430072C1D442C94D8BF5C
:102C400008F108082D9500F3E681139E86B12C9CAF
:102C500023ABC8F8003002230134C8F80430072C35
:102C60001D442C94D8BF08F108082D9500F3DE818F
:102C7000159B802B00F02781109C0E9BC3EB040951
:102C8000B9F1000F42DDB9F1100F2C9CD8BF984E5E
:102C900027DD974E4FF0100A109737460F9E04E03D
:102CA000A9F11009B9F1100F19DD01341035072C05
:102CB00088E880042C9408F108082D95F0DD304652
:102CC00009992BAAD84603F01DF800287FF40FAD10
:102CD000A9F110092D9DB9F1100F2C9CE5DC3E46A1
:102CE000109F013488E84002072C4D442C94D8BF33
:102CF00008F108082D9509DD0F982BAA099903F012
:102D000001F800287FF4F3AC2D9DD846089EF1050C
:102D100062D42C9C0E9F0134149E072C3D4488E8FD
:102D2000C0002D952C9400F3678108F10808DDF8A8
:102D3000209019F0040F3FD00D9C0B9FE61B002E36
:102D40003ADD102E48F2701A2C9CC0F2000A20DDE9
:102D50001027DDF83C9002E0103E102E19DD013402
:102D60001035072CC8F800A0C8F8047008F108084E
:102D70002C942D95F0DD484609992BAAD84602F0EF
:102D8000C1FF00287FF4B3AC103E2D9D102E2C9C6B
:102D9000E5DC0134C8F800A0072CC8F8046035440D
:102DA0002C942D9508DD0F982BAA099902F0AAFF03
:102DB00000287FF49CAC2D9D0C9C0B9F0D9EB74270
:102DC000ACBFE419A4190C94002D7FF488AC002347
:102DD000D8462C93FFF7DCBB652F40F3C380DDE9B9
:102DE0001E010022002304F011FD002800F02981BB
:102DF0002C9C48F2D013C0F20003C8F80030013414
:102E00000123072CC8F804301D442C942D95D8BFFD
:102E100008F1080800F35583249B129FBB4204DB92
:102E2000DDF8209019F0010F81D02C9C1D9E0134FB
:102E30001C9F072C3544C8F80460C8F80070D8BF40
:102E400008F108082D952C9400F34884129C671E05
:102E5000002F7FF76CAF102F2C9C40F3C6814FF0F2
:102E60001009234EDDF83CA003E0103F102F40F383
:102E7000BD8101341035072C88E840022C9408F1FC
:102E800008082D95F1DD504609992BAAD84602F085
:102E900039FF00287FF42BAC2D9D2C9CE5E7002BFF
:102EA00040F0B580089CE0075CBF0E93CDF850B0B1
:102EB0007FF5BCAC48AB302203F8412DC3EB0B05CA
:102EC00014930E95B2E40D9C0B9EC6EB0409B9F168
:102ED000000F7FF7D1AEB9F1100F2C9CD8BF044E74
:102EE00029DD034E4FF0100A139737460F9E06E078
:102EF00080810000A9F11009B9F1100F19DD01342A
:102F00001035072C88E880042C9408F108082D95CA
:102F1000F0DD304609992BAAD84602F0F3FE0028CE
:102F20007FF4E5ABA9F110092D9DB9F1100F2C9C90
:102F3000E5DC3E46139F013488E84002072C4D44EF
:102F40002C94D8BF08F108082D957FF795AE0F98FF
:102F50002BAA099902F0D6FE00287FF4C8AB2D9D5C
:102F6000D84689E6129C012C2C9C40F3CD8101347B
:102F7000149E01350123072CC8F80430C8F80060FE
:102F8000D8BF08F108082D952C9400F3CF810134A7
:102F90001D9E1C9F072C3544C8F80460C8F80070BB
:102FA000D8BF08F108082C942D9500F3CB81DDE9FA
:102FB0001E010022002304F029FC002840F0C480F8
:102FC000129F0134149E7B1EC8F80430721C072C1B
:102FD000C8F800201D442C942D9500F3E78008F1DB
:102FE00008080134209F072C27AB3D4488E888005F
:102FF0002D952C947FF799AE0F982BAA099902F082
:1030000081FE00287FF473ABD8462D9D8FE60E928B
:10301000CDF850B00AE40F982BAA099902F072FE7D
:1030200000287FF464AB2D9DD8460EE60F982BAA9E
:10303000099902F067FE00287FF459AB2D9DD84610
:1030400016E6249F002F40F34782129EDDF86C9015
:10305000149C4E45A8BF4E46129F002E04EB070A53
:103060000FDD2C9CAD1914980134C8F80460072CAE
:10307000C8F80000D8BF08F108082D952C9400F37B
:103080009C831B9C26EAE676A71B002F40F3D38087
:10309000102F2C9CD8BFB14E40F3B880AF4E4FF0EC
:1030A0001009CDF838A0BA4637460F9E05E0AAF1C0
:1030B000100ABAF1100F40F3A58001341035072C27
:1030C00088E880022C9408F108082D95EFDD304641
:1030D00009992BAAD84602F015FE00287FF407AB09
:1030E0002D9D2C9CE3E71A9E0DF1DF01C246CDF821
:1030F0002C904FF00F08230904EA080243EA0573F5
:10310000B2184FEA151C1C4665461278084601396C
:1031100054EA05090270ECD1C0EB0B031490D046C1
:10312000DDF82C900E93FFF781BB002D08BF0A2C11
:1031300080F0168148AB303403F8414DC3EB0B05EA
:1031400014930E95FFF772BB129E771E002F7FF728
:1031500048AF102F814EC4BF4FF01009DDF83CA0DE
:1031600003DC1AE0103F102F17DD01341035072C57
:1031700088E840022C9408F108082D95F2DD5046AD
:1031800009992BAAD84602F0BDFD00287FF4AFAA0A
:10319000103F2D9D102F2C9CE7DC013488E8C000E7
:1031A000072C3D442C942D957FF719AF0F982BAA2F
:1031B000099902F0A7FD00287FF499AAD8462D9D11
:1031C0002C9C0EE70022022354EA05013FF4F7ABE2
:1031D000089E30238DF88D7001228DF88C3046F0DA
:1031E000020602230896FFF7EABB5C4E0134C8F8DA
:1031F0000060072CC8F804703D442C942D957FF78F
:1032000094ADF9E63E465746DDF838A0013488E82B
:10321000C000072C3D442C94D8BF08F108082D9518
:1032200009DD0F982BAA099902F06CFD00287FF4A4
:103230005EAA2D9DD846249B129C149EDDF86C90AE
:10324000A34206EB090742DB089EF2073FD4129C1B
:10325000C7EB0A06E31AB342B8BF1E46002E0EDDC6
:103260002C9CAD19C8F800700134C8F80460072C14
:103270002D952C94D8BF08F1080800F3A98226EAFE
:10328000E6769F1B002F7FF752AD102F2C9CACDDF4
:103290004FF01009314EDDF83CA002E0103F102F36
:1032A000A4DD01341035072C88E840022C9408F185
:1032B00008082D95F2DD504609992BAAD84602F050
:1032C00021FD00287FF413AA2D9D2C9CE6E71D9E6E
:1032D0002C9CAD191C9E0134072CC8F800601D9E63
:1032E000C8F80460D8BF08F108082D952C94AEDD0D
:1032F0000F982BAA099902F005FD00287FF4F7A981
:10330000249BD8462D9DA2E7089EF3073FF52FAEDC
:103310000134149E01350123072CC8F80430C8F885
:1033200000602D952C947FF75AAE3FE70F982BAA9B
:10333000099902F0E7FC00287FF4D9A92D9DD84611
:103340002C9C24E60F982BAA099902F0DBFC00289C
:103350007FF4CDA92D9DD8462C9C28E680810000C5
:103360000DF1DF06204629460A22002304F0A8FAC0
:10337000B246204629460023013E02F130040A22CB
:103380008AF8004004F09CFA04460D4654EA050011
:10339000E8D1CAEB0B03CDF850A00E93FFF746BA65
:1033A000302A00F02382C0EB0B04302214900E94DC
:1033B00003F8012CFFF73ABA644265EB45052D236B
:1033C00054EA05018DF88B300CBF00220122012345
:1033D000FFF7FAB91F78FFF70FB9294602F068FB2B
:1033E000002840F0FF80089E4FF00309189C199DAB
:1033F00026F08006CDF82C90472FD8BF2C46109091
:10340000149408969DF88B30CDF838901B90FFF7F8
:103410001ABA119CE11D21F0070101F1080511956F
:10342000FFF782BA089C600640F14E81119E043677
:1034300036F9044C11962246E5172B46FFF7B8B92A
:10344000089C14F0400300F0C280119E134634889B
:103450000025043654EA050011960CBF0022012213
:10346000FFF7ADBA089C630640F14481119E002528
:10347000043636F8044C1196FFF7C5BA089CE306EB
:103480000ED4089F7E060BD5DDF844900C9C09F104
:10349000040959F8043CCDF844901C80FFF778B833
:1034A000119D0C9E043555F8043C11951E60FFF7E4
:1034B0006FB8089C600640F18480119E0123348817
:1034C000C6E70F982BAA099902F01CFC00287FF48C
:1034D0000EA92D9DD8469FE42C9C48F2D013C0F233
:1034E0000003C8F8003001340123072CC8F8043069
:1034F0001D442C942D95D8BF08F1080800F31281C3
:103500003FB9129E2EB9DDF8209019F0010F3FF45B
:103510000EAC1D9E2C9CAD191C9E0134072CC8F8C6
:1035200000601D9EC8F80460D8BF08F108082D95FA
:103530002C9400F322817F42002F40F31881102F3A
:10354000AD4EC4BF4FF01009DDF83CA004DCF8E03C
:10355000103F102F40F3F58001341035072C88E818
:1035600040022C9408F108082D95F1DD5046099988
:103570002BAAD84602F0C6FB00287FF4B8A82D9DE0
:103580002C9CE5E72D9BDDF82490002B3FF4B1A89F
:103590000F9849462BAA02F0B5FBFFF7AAB8089D81
:1035A0000133577845F020050895FFF725B80E9EA2
:1035B0009DF88B3026EAE67611950B961B94FFF763
:1035C00042B9119C251D11952268FFF7F1BA119C93
:1035D000251D119522681446003218BF01220025CE
:1035E000FFF7EDB9B9F1FF3F27F0200A08BF4FF010
:1035F000060907D0BAF1470F04D1B9F1000F08BF8F
:103600004FF00109089C002D44F480741394C0F21B
:10361000C18000241094BAF1460251425141002960
:1036200040F00281BAF1450F40F0728109F10104C6
:1036300002210194324600912B4624A90F98029151
:1036400025A9039126A9049100F09AFA041914906F
:10365000304600220023294604F0D8F850B9269BB2
:103660009C4298BF1C4605D9302203F8012BA34287
:103670002693FAD1149DBAF1470FC5EB04041294B6
:1036800000F00081652F40F3DD81662F249A00F061
:103690007081129CA242C0F22E81089DE90700F1C0
:1036A0007F81672722EAE2760E920B961B92109C8E
:1036B000002C00F0DE80139D2D2300268DF88B302A
:1036C00010960895FFF7C0B8119C251D1195236829
:1036D0001C461A46DD172B46FFF76AB80F982BAA2F
:1036E000099902F00FFB00287FF401A82D9DD84610
:1036F000FFF7ACBB119C251D1195236800251C46C6
:10370000FFF781B90F98402101F030FAC9F80000A5
:10371000C9F81000002800F088814023C9F814304F
:10372000FEF713BF0F982BAA099902F0EBFA0028B5
:103730007EF4DDAF249FD8462D9D002F7FF4E9AEA7
:10374000DFE6013488E8C000072C3D442C94D8BF44
:1037500008F108082D950ADD0F982BAA099902F0A7
:10376000D1FA00287EF4C3AF2D9DD8462C9C149E20
:103770000134129FC8F800603BE50F982BAA099905
:1037800002F0C0FA00287EF4B2AF249FD8462D9DE7
:103790002C9CD0E62D2405F1004510943BE71094B5
:1037A000FDF7FEF89DF88B3011951B9420EAE07927
:1037B0000E90CDF82C90FFF746B80F982BAA0999D8
:1037C00002F0A0FA00287EF492AF2D9DD84658E46E
:1037D0000F982BAA099902F095FA00287EF487AF7A
:1037E000249BD846129F2D9DFB1A48E5149EC6EBDC
:1037F0000B060E96FFF71AB880810000B9F1060F8C
:1038000034BF4B46062348F2C81423EAE376C0F2DD
:1038100000040E930B9611951494FFF749B92D23CC
:103820008DF88B30FFF798B803200090324624A81B
:103830002B46029026AC25A8CDF804900390049462
:103840000F98079100F09CF9BAF1470F079914906F
:1038500002D1089CE30712D5149800EB0904002953
:103860003FF4F6AE0378302B00F0A280249BE418DE
:10387000EEE6139E9DF88B300896FEF7E4BF269B7C
:103880001B1A1293249BDD1C1A4602DB9945BFF6D6
:1038900000AF023F013B8DF89C70002B2493C0F2D7
:1038A000B7802B228DF89D20092B33DC30228DF838
:1038B0009E2028AA30338DF89F30129C27ABD31A54
:1038C0002093012C23440E9340F389800E9B002407
:1038D0001B9401330E9323EAE3750B95E7E629EA7F
:1038E000E97410900B949DF88B301195CDF83890B9
:1038F0001B90FEF7A8BF002A129CD4BFC2F102039E
:1039000001231B19672723EAE3750E930B95CDE678
:1039100002208AE746F267600DF1AA05C6F26660EA
:1039200080FB0364D9172A46013DC1EBA40101EBDA
:103930008104A3EB44040B46092B04F13001117000
:10394000EEDC0DF1AB003033A842194602F8013C21
:1039500075D90DF19D04134601E013F8011B834254
:1039600004F8011FF9D10DF59079C2EB4902F63A3E
:10397000A3E7002A29DDB9F1000F08D1089EF4075A
:1039800005D422EAE2790E92CDF82C908EE609F168
:10399000010902EB09030E9323EAE3740B9485E615
:1039A000571C0E970E9B672723EAE3730B937DE664
:1039B000304600220023294603F028FF00287FF428
:1039C00055AFC9F10103249351E7B9F1000F24D198
:1039D000089DE80721D401260B960E9666E6089D01
:1039E00015F001037FF472AF0E9E1B9326EAE67674
:1039F0000B965CE6119D5F7823462A1D1192D5F83F
:103A00000090B9F1000FB8BF4FF0FF39FEF7F4BDD9
:103A10002D225B428DF89D2046E709F102060E96A5
:103A200026EAE679CDF82C9040E6DDF83C804FF0B0
:103A3000FF370C230C97C8F80030FEF765BE0DF178
:103A40009E023AE7249B25E72DE9F04F8146036962
:103A500083B00D69002001919D4200F38E80EA1C25
:103A600001F11404013D09F1140892008B184A4435
:103A70001F1D59685068013103F022FB06460028DB
:103A800041D04FF0000E424623467046A24653F8FE
:103A9000041B14681FFA81FC4FEA114BA1B206FB0C
:103AA0000CEC091806FB0BFE0EEB1C4E1FFA8CFCEF
:103AB000CCEB01011FFA8EF04FEA1E4EC0EB144012
:103AC0001FFA81FC00EB21404CEA004100149F42A8
:103AD00042F8041BDBD22B1D544609EB83035A68C2
:103AE0008AB91A1D98450CD252F8042C4AB9043BE5
:103AF00001E012682AB9013D98451A46A3F1040372
:103B0000F7D3C9F810504846019901F0CBFD0028C1
:103B100032DB013643464FF0000C54F8040B1968B1
:103B20001FFA80FA000C8AB2C0EB1141CAEB020204
:103B3000A742944401EB2C421FFA8CFC4CEA024150
:103B40004FEA224C43F8041BE7D22B1D09EB8303F9
:103B50005A688AB91A1D98450CD252F8042C4AB9F1
:103B6000043B01E012682AB9013D98451A46A3F1C9
:103B70000403F7D3C9F81050304603B0BDE8F08F06
:103B80002DE9F04F9FB0456A0646CDE904232B9CF2
:103B9000002D00F0AC822B685BB16A6801251946E4
:103BA00005FA02F59D605A6001F030FB736A00224D
:103BB0001A60DDF81490B9F1000F39DB002323609F
:103BC00000231A46C7F6F073C7F6F07209EA03033A
:103BD000934217D0DDE90445002200232046294600
:103BE00003F014FE00282AD02A9A012313602C9B8C
:103BF000002B00F0DC80AE4B581E2C990B601FB0E0
:103C0000BDE8F08F2A9948F2E010049A42F20F734F
:103C1000C0F200000B60002A00F0A8802C9B002B53
:103C2000EDD0C378002B00F0B08000F10803E4E78A
:103C300029F000490123CDF814902360C0E71DABA3
:103C40003046009322461CAB01932B46C9F30A571A
:103C500001F036FE8346002F40F09980DDF8708039
:103C60006FF482631D9F47449F42C0F265820498AF
:103C70004FF60E43CFF6FF7307F21242DB1B20FA1A
:103C800002F209FA03F01043FEF79CFA013F012209
:103C90001A92A1F1F87100230022C3F6F873FEF71F
:103CA00053F97DA3D3E9002303F048FB7CA3D3E9B8
:103CB0000023FEF74BF9044638460D46FEF792FA0C
:103CC00079A3D3E9002303F039FB02460B462046D3
:103CD0002946FEF73BF904460D4603F0C9FD294687
:103CE000002200230990204603F09AFD002840F0AE
:103CF00010820998162800F2F78148F20821DDE9C0
:103D00000423C0F2000101EBC001D1E9000103F07E
:103D1000A5FD002800F019820999002214920139AA
:103D20000991C7EB0807013F00F1018200210B97C1
:103D30001091099A002AC0F2E3810B9B0020139294
:103D40009B1811900B932899092935D8012405292E
:103D500002DD002404392891289A931E032B2DD8C4
:103D6000DFE813F07503720333025D0348F2D412E7
:103D700048F2E013C9F31300C0F20002C0F20003DE
:103D800000280CBF1046184648E7C31C35E725F04D
:103D90007F43002223F47003204643F07F53A7F2B1
:103DA000FF37DDF8708043F440111A9273E748F250
:103DB000D010C0F2000022E700232893746A002389
:103DC000194630464FF0FF322993636001230C926D
:103DD000129301F0E5F9736A0C99159120601B6844
:103DE0000D931D9B002BC0F2C58009990E2900F38D
:103DF000C180299848F20823C0F200030C99C20F31
:103E000009980029CCBF002202F0010203EBC00395
:103E1000D3E90001CDE90601002A40F06584DDE91F
:103E2000044502460B460D9F2046294603F0B0FB91
:103E300003F01EFD8046FEF7D5F9DDE9062303F009
:103E40007DFA02460B4620462946FEF77DF80C9A7D
:103E500008F1300307F8013B012A04460D465CD007
:103E600000230022C4F2240303F068FA0022002396
:103E700004460D4603F0CAFC002840F024810D984A
:103E80000C990A9600F1020900EB010ACDF810B076
:103E9000DDE9066719E000BF61436F63A787D23F82
:103EA000B3C8608B288AC63FFB799F501344D33F29
:103EB000D181000003F042FA0022002304460D469F
:103EC00003F0A4FC002840F02C8532463B462046F7
:103ED000294603F05DFBCB4603F0CAFC8046FEF7A3
:103EE00081F932463B4603F029FA02460B4620464A
:103EF0002946FEF729F800230022D14508F1300EAB
:103F0000C4F2240309F801EC09F1010904460D4645
:103F1000D0D15F460A9EDDF810B022462B462046DF
:103F20002946FEF713F804460D462246DDE9060150
:103F30002B4603F075FC002800F04085099A17F81D
:103F400001AC1B920D9A02E013F801AC1F467B1ED8
:103F5000BAF1390F40F01A859342F5D10D924FF026
:103F6000310A0D9930221B980A700130099083F8AC
:103F700000A0A8E01298002840F0E98010AC94E876
:103F800030040B9B002BC8BF002C09DDA342A8BF47
:103F9000234610980B99E41AC01A1090C91A0B9175
:103FA000119A002A1ADD129B002B00F05784002D75
:103FB00010DD51462A46304601F0C8FA5A4682467C
:103FC0003046514601F024FA59460746304601F082
:103FD0001DF9BB461198421B40F07A8401213046FE
:103FE00001F00CFA13990029804605DD4146304660
:103FF000139A01F0ABFA8046289A012A40F3CC804C
:104000000025139A0120002A40F064830B9943187D
:1040100013F01F0300F09682C3F12002042A40F33C
:104020003E85C3F11C03109AE418C918D2180B91ED
:104030001092109A002A04DD5946304601F0D8FA51
:1040400083460B9B002B05DD414630461A4601F0A6
:10405000CFFA80461498002840F01F83289A0C98C5
:10406000022AD4BF002301230028C8BF0023002B4D
:1040700000F023820C9B002B40F019824146052260
:10408000304601F0DFF880465846414601F00AFB11
:10409000002840F30C820D9F00250999312301313E
:1040A00007F8013B09913046414601F0AFF8BAF1FB
:1040B000000F08D0554518BF002D40F05382304600
:1040C000514601F0A3F85946304601F09FF800220E
:1040D0003A702A9A09994B1C13602C9B002B00F014
:1040E00046821F600D988AE50123149319E610207B
:1040F00000F02CFD7062456085600560C56058E584
:1041000010990020099A1390891A53421091119323
:1041100019E60998FEF766F822462B4603F076FB6F
:1041200000287FF4E6AD099B013B0993E1E57F425E
:10413000002010970B90FCE54FF6EE300499CFF677
:10414000FF70C01B01FA00F09EE51490E9E5289984
:10415000012940F3DE830C981199431E9942A8BFB0
:10416000C3EB010506DA1198002513991A1A119369
:10417000891813910C9A002AC0F2F883109C0C9BAA
:10418000109A30460121D21810920B9AD2180B9235
:1041900001F034F98246F4E6049B002B7FF430AF43
:1041A000059BC3F31302002A40F03D840025C7F6A7
:1041B000F0751D40002D3FF424AF109801250B9998
:1041C0000130109001310B911BE7012112912998C8
:1041D000002840F33E8382460E288CBF002404F062
:1041E000010415900C90756A0023BAF1170F6B60EB
:1041F00009D9012204235B00104603F114010132A6
:104200005145F8D968603046696800F0C9FF736AA3
:1042100028601B680D93002C3FF4E3AD0999002939
:1042200040F3A88101F00F0248F20823C0F2000316
:104230000F1103EBC203FA06D3E9004540F18B816D
:1042400048F2F823DDE90401C0F2000307F00F078C
:104250004FF00308D3E9082303F09AF9CDE90E01E2
:104260009FB148F2F829C0F20009FB072046294611
:1042700007D5D9E9002308F1010803F05FF80446E7
:104280000D467F1009F10809EFD1DDE90E01224644
:104290002B4603F07DF9CDE90E01149951B10023AD
:1042A000DDE90E010022C3F6F07303F0B9FA00282D
:1042B00040F0DC824046FDF795FFDDE90E2303F078
:1042C0003DF800230022C4F21C03FDF73FFE0C9AC8
:1042D0000446A1F15075002A00F0CC80099BDDF85E
:1042E00030901B931298002800F07A8148F208233E
:1042F0000021C0F20003002003EBC903C3F6E07104
:104300000D9F53E9022303F043F922462B46FDF7A4
:104310001BFECDE91601DDE90E0103F0A9FA804686
:10432000FDF760FF08F130085FFA88FA02460B4695
:10433000DDE90E01FDF708FE07F801AB04460D4666
:104340002246DDE916012B4603F088FA002840F0EA
:104350009E83002122462B460020C3F6F071FDF714
:10436000F3FD02460B46DDE9160103F077FA00285B
:1043700040F08A83B9F1010F7FF733AD0D99B8464C
:10438000CDF838B089441896CB46DDE916670FE0C2
:1043900000210020C3F6F071FDF7D6FD32463B4602
:1043A00003F03EFA002840F0E582D84500F0E982AB
:1043B00000230022C4F224033046394602F0BEFF37
:1043C00000230022C4F2240306460F462046294655
:1043D00002F0B4FF0D46044603F04AFA8146FDF7A9
:1043E00001FF09F130095FFA89FA02460B462046BF
:1043F0002946FDF7A9FD32463B4608F801ABC14608
:1044000004460D4603F00CFA22462B460028BFD086
:104410001B984746DDF838B0189E099053E60122F4
:104420001292299B099A9A18159202F1010ABAF17F
:10443000000F40F30282BAF10E0F8CBF002404F08B
:104440000104CDF830A0CEE600211291E9E7002367
:104450001293BCE64046FDF7C5FEDDE90E2302F0EF
:104460006DFF00230022C4F21C03FDF76FFD04461C
:10447000A1F1507500230022C4F21403DDE90E01FE
:10448000FDF762FD22462B46CDE90E0103F0E6F969
:104490008046002840F0A0802246DDE90E0105F1AB
:1044A000004303F0BDF900283FF49BACC2462998B5
:1044B00000250D9FC0430990F5E5129A002A40F0AF
:1044C0003E8100240C9D0D9F02E000F0BBFE834660
:1044D00041465846FFF7B8FA0A220023594600F130
:1044E000300C07F804C001343046AC42EDDB0D9FC0
:1044F00000250C980128ACBF3F180137594601220E
:104500003046CDF80CC001F073F84146834601F007
:10451000C9F8DDF80CC0002840F33F8217F8012CE1
:104520000D9902E013F8012C1F467B1E392A40F03A
:104530006F828B42F6D10D9A3123099913700131A4
:104540000991B0E51C231098E4180B99C01810903D
:10455000C9180B916DE5DDE904234FF00208CDE9A0
:104560000E237DE63046294600F050FEA7E50D9863
:10457000FFF745BB099B5C42002C00F0A28104F0D0
:104580000F0248F20823C0F20003DDE9040103EB47
:10459000C203D3E9002302F0D1FE2411CDE90E01BC
:1045A00000F0688248F2F8254FF00208C0F20005DA
:1045B00002460B46E7071046194607D5D5E9002302
:1045C00008F1010802F0BAFE02460B4608356410F5
:1045D000F0D1CDE90E2360E64FF00008C2465AE55F
:1045E00009F1FF321692169848F20821C0F2000134
:1045F00022462B460D9F01EBC001D1E9000102F0DC
:104600009DFECDE91801DDE90E0103F031F9804688
:10461000FDF7E8FD08F1300802460B46DDE90E0122
:10462000FDF792FCB9F1010F07F8018B04460D4626
:1046300020D00D9A531E9046994400230022C4F2C4
:10464000240302F07BFE0D46044603F011F9824676
:10465000FDF7C8FD0AF1300A02460B4620462946FE
:10466000FDF772FC08F801AFC845E6D1169B044679
:104670000D46FF1800230022C3F6E073DDE91801A0
:10468000FDF764FC22462B4603F0CAF8002800F030
:10469000268117F801AC0D9A59E45846414601F0BD
:1046A00001F80028BFF6DAAC59460A22304600234A
:1046B00000F0C8FD0999129A01390991834652BB4D
:1046C0001598159A002803DC2899022900F3EC813B
:1046D0000C92F6E6D8F8103008EB8303186900F066
:1046E00041FEC0F1200091E40C9B002B40F063815F
:1046F00000230022C4F21403DDE9060102F01EFECD
:10470000DDE9042303F0A0F8DDF83080C24600287C
:104710007FF4CDAEBFE4002351460A22304600F0BC
:1047200091FD15990029CCBF0023012382462898CA
:104730000228D8BF0023002B40F0AD810C91002C43
:1047400005DD51463046224600F052FF8246D146F2
:10475000002D40F047810D9B55460C9804995C1C38
:1047600018180C9001F001010A9141465846FFF7D4
:104770006BF929460746584600F094FF4A464146E1
:104780008246304600F0ACFF631E0B9307F1300306
:104790000493C3680246002B3DD0012330461146E6
:1047A000039300F033FD039B2898184303D10A9923
:1047B000002900F05481BAF1000FC0F2B880289AA5
:1047C0005AEA020203D10A98002800F0B080002BB8
:1047D00000F32C810C9B2746049A9C4204F8012C80
:1047E00000F0318159460A220023304600F02AFDAC
:1047F0004D45834617D029460A220023304600F053
:1048000021FD49460A22002301340546304600F0C6
:1048100019FD8146A9E711465846039200F042FF70
:10482000039A0346BAE7294630460A22002300F0DD
:1048300009FD01340546814697E7BAF10E0FCDF820
:1048400030A08CBF00230123756A1C4000236B60DD
:10485000D9E4012315930C932993F5E75946304683
:10486000119A00F073FE8346FFF7B8BB0C9A002A3A
:104870003FF4F0AD159B002B7FF7B3AA0023002275
:10488000C4F22403DDE90E0102F058FDCDE90E016A
:1048900008F10100099901391B91FDF7A3FC0246BB
:1048A0000B46DDE90E0102F049FD00230022C4F2AF
:1048B0001C03FDF74BFBDDF854900446A1F1507545
:1048C00010E5DDE904014FF00208CDE90E01E4E452
:1048D0005946304600F03AFE8346FFF77FBB002181
:1048E000DDE918230020C3F6E071FDF72DFB224619
:1048F0002B4602F0B3FF00283FF473AA3B461F4645
:10490000013B17F8012C302AF9D01B990991FFF7C8
:10491000DABB1A9A002A7FD003F23343119D109C10
:104920002EE45F460A9EDDF810B0FFF7CCBBDDF841
:1049300010C0002B644613DD594601223046CDF8E5
:104940000CC000F055FE4146834600F0ABFEDDF89A
:104950000CC0002840F39180392C07F1310C76D03F
:104960000B9FCA4607F801CBFFF79DBB109B9C1A13
:10497000002305E4DDF838B04F460D9A189EFFF786
:10498000E6BADDF838B0189EFFF72BBA0D920AF19F
:10499000010A1B9A0992FFF7EABA03D11CF0010F32
:1049A0007FF4BCAD3B461F46013B17F8012C302A73
:1049B000F9D0FFF778BB4FF0000877E5DDE9060195
:1049C00022462B4602F022FF00283FF47CAB18F071
:1049D000010F3FF478AB099B17F801AC0D9A1B93BC
:1049E000FFF7B5BADAF80410304600F0D9FBDAF870
:1049F00010300AF10C019A1C920004460C30FDF7AD
:104A000083FC30462146012200F0F2FD8146A2E6F9
:104A100001321A70FFF747BB1C9B119D109CC3F11C
:104A20003603FFF7ADBB049DFFF7EBBADDF810C00E
:104A3000BCF1390F0BD00B9F0CF1010CCA4607F8E3
:104A400001CBFFF730BBDDF810C0CA4656E50B9F1F
:104A50003923CA461A460D9907F8013B65E5DDF88A
:104A600010C0BCF1390FF2D0BAF1000FC8BF07F186
:104A7000310C75E74FF002080FE47FF471AF1CF0C2
:104A8000010F3FF46DAF67E70D9AFFF760BA1B9B0C
:104A90000993FFF718BB15990C91FFF7EBBA3FF498
:104AA000C8AAC3F13C034EE50C92FFF7E3BA00BF7E
:104AB00010B514463AB148F2E8111046C0F20001B0
:104AC00001F032F820B948F2E410C0F2000010BD45
:104AD00048F2E4112046C0F2000101F025F8002858
:104AE000F1D048F2B0112046C0F2000101F01CF8EC
:104AF00048F2E413C0F2000300280CBF184600205F
:104B000010BD00BF48F2A050C1F6FF70704700BF53
:104B100048F2A053C1F6FF73186A70470048704707
:104B2000C485FF1F0020704700487047E485FF1FC1
:104B300048F2AC430A46C1F6FF7301461868FFF716
:104B4000B7BF00BF00487047E485FF1F48F2AC4381
:104B50000146C1F6FF73186800F008B848F2AC438C
:104B60000146C1F6FF73186801F02CBF2DE9F04F24
:104B700001F10B04162C83B0074630D924F007044A
:104B8000E30F8C422CBF194643F0010100292FD1BD
:104B9000384600F001FBB4F5FC7F2ED24FEAD40C6E
:104BA00048F21C66C1F6FF7606EBCC02D36893424E
:104BB00000F01182596803F10808DA68384621F0DC
:104BC000030499681B195C68CA6044F00104916091
:104BD0005C6000F0E3FA404603B0BDE8F08F0023CC
:104BE00010248C422CBF194643F001010029CFD07C
:104BF0000C234FF000083B60EDE75FEA542C04BF44
:104C00004FEAD40C4FEA4C0540F08F8048F21C6606
:104C1000C1F6FF7606EB8505EB689D4206D10DE0F7
:104C2000002A80F25581DB689D4207D0596821F047
:104C300003010A1B0F2AF3DD0CF1FF3C0CF1010C00
:104C400048F21C623369C1F6FF7202F1080E734527
:104C500008BFD2F8049022D0586820F00300011B4E
:104C60000F2900F384810029C2F814E0C2F810E093
:104C700066DAB0F5007F80F04E81C1084FF0010880
:104C800002EBC100891008FA01F851688568D86004
:104C900048EA0109C2F804909D60EB60836001223C
:104CA0004FEAAC0302FA03F34B4554D819EA030F59
:104CB0000DD193402CF0030C19EA030F0CF1040CF6
:104CC00005D15B000CF1040C19EA030FF9D006EBD7
:104CD000CC09E0464846C268904207D15BE1002912
:104CE00080F28381D268904200F05581556825F0AA
:104CF0000305291B0F29F2DD90461319D56844F0EE
:104D0000010058F8084F41F0010C50603846C3F8D4
:104D100004C0E560AC6073613361C3F80CE0C3F8B4
:104D200008E0595000F03AFA55E7BCF1040F00F2E0
:104D3000DE804FEA941C0CF1380C4FEA4C0565E715
:104D40001A1803F108083846536843F0010353600A
:104D500000F024FA3FE7B5686B6823F0030A544576
:104D600004D8C4EB0A030F2B00F3A48048F6D4390F
:104D7000D6F80814C1F6FF7905EB0A020131D9F81B
:104D80000030234408BF03F1100B06D003F5805315
:104D90000F3323F47F6323F00F0B384659460192FB
:104DA00000F0AEFE019A411C804600F0688182420C
:104DB00000F23181D9F8043042455B44C9F804302F
:104DC00000F06681D6F8081448F21C60C1F6FF7046
:104DD000013117BFC2EB0802C0F808849B18C9F85C
:104DE000043018F0070338461FBFC3F10802C3F5AB
:104DF0008053904403F1080208EB0B0308BF4FF403
:104E000080521B051B0DC3EB020B594600F078FEC8
:104E1000431C00F04981C8EB0001594441F00101F5
:104E2000D9F80430B54248F6D432C6F808805B445D
:104E3000C1F6FF72C8F80410C9F8043018D0BAF1EE
:104E40000F0F40F20B81AAF10C00696820F00700F7
:104E50004FF0050C05EB000E0F2801F0010140EAB0
:104E600001016960CEF804C0CEF808C000F22081CC
:104E700048F6D432D9F82C10C1F6FF72B5688B42CF
:104E8000D9F8301088BFD36248F6D432C1F6FF7229
:104E90008B4288BF13636A6822F003029442C4EB1A
:104EA000020301D80F2B05DC38464FF0000800F054
:104EB00075F990E62A1943F0010344F001043846DD
:104EC0006C6005F108085360B26000F067F982E693
:104ED0005918DA689C6838464D6803F1080845F0AF
:104EE0000105E26094604D6000F058F973E6BCF192
:104EF000140F9CBF0CF15B0C4FEA4C057FF686AE9D
:104F0000BCF1540F00F293804FEA143C0CF16E0C8C
:104F10004FEA4C057AE6420A042A75D9142A9CBF46
:104F200002F15B094FEA490508D9542A00F2C98009
:104F30004FEA103909F16E094FEA490506EB85057C
:104F400048F21C68C1F6FF78AA68AA4279D0516875
:104F500021F00301884202D292689542F7D1D068CD
:104F6000D6F80490D8609A60D360836097E61D19E4
:104F700041F00106556144F00104156138465C605A
:104F800003F10808C5F80CE0C5F808E06E60695048
:104F900000F004F91FE608F10108083018F0030FCB
:104FA0007FF499AE4A461CF0030FA2F108010CF100
:104FB000FF3C00F09E8012688A42F4D072685B0069
:104FC00093423FF6C8AE002B3FF4C5AE1A4200F044
:104FD0009580C4467BE603F108025B699A4208BFEC
:104FE0000CF1020C3FF42CAEE4E590465519D36861
:104FF000384658F8082F6968D36041F001019A607B
:10500000696000F0CBF8E6E54FEA901909F138093C
:105010004FEA490592E7B54248F21C63C1F6FF73B7
:105020003FF4C8AE9D686A6822F0030236E7BCF51B
:10503000AA7F19D84FEAD43C0CF1770C4FEA4C0503
:10504000E4E50125D8F804104FEAA909104605FA4D
:1050500009F545EA0109C8F8049083E701234546AC
:10506000C8F80430002219E740F254539C450BD88D
:105070004FEA944C0CF17C0C4FEA4C05C6E5B56840
:105080006A6822F0030209E7FC254FF07E0CBDE5BB
:105090001105090D00297FF495AEB2680BEB0A01EA
:1050A00041F001015160E3E601214FF0000BB7E64A
:1050B000384605F10801019201F084FC019A536819
:1050C000D6E6B2F5AA7F06D84FEAD03909F17709BA
:1050D0004FEA490532E740F25451FC258A424FF02D
:1050E0007E099EBF4FEA904909F17C094FEA4905C4
:1050F00024E7726822EA0302726060E75B0008F14D
:10510000040863E78307C9B270B440D0541E002A74
:105110003FD003788B4221D0431C04E004B30278D3
:10512000013C8A421AD013F0030F184603F1010321
:10513000F4D1032C16D8651E94B103788B420DD0A0
:10514000421C002302E004788C4207D09D421046A6
:1051500003F1010302F10102F5D1002070BC704798
:105160002046FBE741EA012646EA064602460430AD
:1051700013687340A3F1013525EA030313F0803F60
:1051800003D1043C032CF1D8D5E71046D3E71446ED
:10519000CFE71046E2E700BF704700BF704700BF8F
:1051A00070B50646446A0D465CB1E2689AB152F8A1
:1051B0002500E0B1016842F8251000220261C260BA
:1051C00070BD1020FFF7C2FC0023044670624360EC
:1051D00083600360C36021223046042101F070FB2C
:1051E000736AE060DA68002AE1D1002070BD012313
:1051F0003046194603FA05F4621D920001F060FB87
:105200000028F2D045608460D7E700BF30B504467F
:10521000456A83B055B139B1636A4A68DB6853F8AF
:105220002200086043F8221003B030BD1020019125
:10523000FFF78CFC01996062456085600560C56080
:10524000E9E700BF2DE9F0478846D1F810A082B009
:10525000814601F1140500242F680134BEB23F0CD1
:1052600002FB063602FB07F303EB1643B6B206EB6E
:1052700003461B0CA24545F8046BEDDC53B1D8F88E
:10528000082092450ADA08EB8A020AF10101C8F8FF
:1052900010105361404602B0BDE8F087D8F8041002
:1052A000484601930131FFF77BFFD8F8102008F141
:1052B0000C010232920004460C30FDF725F84146FD
:1052C0004846A046FFF7A2FF019BDCE72DE9F84323
:1052D00048F639651F46C3F6E305083306460C4613
:1052E000904685FB0310DB17C3EB6000012837DD18
:1052F000012500216D000131A842FBDC3046FFF79B
:105300004FFF089B43610123B8F1090F0146036178
:1053100022DD04F1090944444D4615F8013B0A22F7
:105320003046303BFFF78EFFA5420146F5D109EB31
:105330000804083C47450CDDC8EB0707E71914F8DB
:10534000013B0A223046303BFFF77CFFBC4201465E
:10535000F5D10846BDE8F8830A344FF00908E9E7BB
:105360000021CBE7034600201A0C01D11B041020BA
:1053700013F07F4F01D108301B0213F0704F01D1A1
:1053800004301B0113F0404F01D102309B00002B71
:1053900002DB5B0001D4202070470130704700BF62
:1053A0000368024613F0070007D0D9071FD49807F7
:1053B0001FD49B0802201360704799B209B91B0CD7
:1053C000102013F0FF0F01D108301B0A190701D17B
:1053D00004301B09990701D102309B08D90704D476
:1053E0005B0801D120207047013013607047002016
:1053F00070475B0801201360704700BF10B50C4672
:105400000121FFF7CDFE01224461026110BD00BF02
:105410002DE9F04F0C460E6985B015691746AE426E
:1054200004DA32463C462E460F461546A36806EB84
:10543000050861689845C8BF0131FFF7B1FE00EB70
:10544000880900F1140309F11409019000204B456B
:1054500003D243F8040B9945FBD807EB850504EB11
:1054600086061437143514341436AF4257D2019AD5
:10547000CDF80890A946CDF80C8002F1180CA04692
:1054800057F8044BA0B2F0B14246ACF1040300243B
:1054900052F8041B1D681FFA81FA090C1FFA85FBDC
:1054A0002D0C00FB0ABA00FB0151544401EB1441DE
:1054B000A4B244EA01450C0C964243F8045BE7D8D9
:1054C0001C6057F8044C240C21D05CF8041C4246A4
:1054D000634600250846B2F800A0000C89B29B463E
:1054E00004FB0A00451941EA054143F8041C53F83E
:1054F000040B52F8041B1FFA80FA090C04FB01A1EB
:1055000001EB15410D0C9642E5D8CBF80010B945DA
:105510000CF1040CB4D8DDF80890DDF80C80B8F17B
:10552000000F0BDD59F8043CA9F104091BB105E09B
:1055300059F8043D13B9B8F10108F9D1019B184697
:10554000C3F8108005B0BDE8F08F00BF12F0030370
:105550002DE9F041144680460F4628D1A4101AD0F8
:10556000D8F82450002D2ED0AE682EB936E0641045
:1055700011D0356895B12E46E007F8D53946324648
:105580004046FFF745FF394605464046FFF73EFED9
:1055900064102F46EDD13846BDE8F08131463246E1
:1055A0004046FFF735FF306006460560E4E748F205
:1055B000F8125D1EC0F20002002352F82520FFF70A
:1055C00041FE0746CAE71020FFF7C0FA0023054650
:1055D000C8F82400436083600360C360404640F223
:1055E0007121FFF70BFF0023A86006460360C3E7A5
:1055F0002DE9F84F93460A690F464FEA6B158B6801
:1056000005EB020A81460AF1010649689E4203DD64
:105610005B0001319E42FBDC4846FFF7C1FD002DD7
:10562000804600F114040ADD00231A46013344F8D1
:10563000042BAB42FAD108EB830303F1140438695D
:1056400007F1140507EB800014301BF01F0B1CD072
:10565000CBF120030022296801FA0BF10A4344F838
:10566000042B55F8042BA84222FA03F2F3D8226047
:105670000AB10AF102064846013E3946C8F81060F0
:10568000FFF7C4FD4046BDE8F88F55F8043BA8423B
:1056900044F8043BEFD955F8043BA84244F8043BD6
:1056A000F3D8E8E703460A69006930B4801A0FD1DD
:1056B000043203F1140592009B1889180433043155
:1056C00053F8042D51F8044DA24203D19D42F7D363
:1056D00030BC7047944294BF01204FF0FF30F7E791
:1056E0002DE9F84F8B460446114658469146FFF780
:1056F000D9FF051E61D0BCBF5B46CB462046B8BF74
:105700009946DBF80410ACBF4FF000084FF00108D9
:10571000FFF746FDDBF8107009F11405D9F81030D9
:105720000BF1140600240BEB870C09EB83090CF139
:10573000140C09F1140900F1140AC0F80C8056F891
:10574000048B534655F804AB32461FFA88F1091909
:105750001FFA8AFBCBEB01014FEA1A44C4EB184451
:1057600004EB214489B241EA04412414A94543F8D9
:10577000041B9A46E3D8B445984614D952F8045B02
:10578000A9B22D0C0C1905EB2445A4B244EA05413D
:105790002C14944543F8041BF0D8F343634423F0DE
:1057A000030304334344043B21B953F8042D013F60
:1057B000002AFAD00761BDE8F88F20462946FFF796
:1057C000EFFC012345610361BDE8F88F0023C7F6B4
:1057D000F0730B40A3F15073002B02DD194600203B
:1057E00070475B4200211B15132B0BDD322B02DDB2
:1057F0000123184670470122C3F1330302FA03F371
:10580000184670474FF40022002042FA03F1704717
:105810002DE9F84300F1140806698946043600EBC7
:1058200086063446374654F8045B2846FFF79AFD4F
:105830000A28C0F12003C9F8003018DCB045C0F1D7
:105840000B0125FA01F738BF54F8084C47F07F5791
:1058500047F4401334BF24FA01F10021153005FA52
:1058600000F541EA050210461946BDE8F88300211B
:10587000B04502D254F8081C371FB0F10B0418D001
:1058800005FA04F5C0F12B00474545F07F5521FA94
:1058900000F645F4401545EA060388BF57F8045C56
:1058A00001FA04F18CBF25FA00F0002040EA010261
:1058B000D9E745F07F550A4645F44013D3E700BFCA
:1058C0002DE9F04383B001211D4614460A9FFFF7DE
:1058D00067FCC5F30A5625F07F43A94623F47003FD
:1058E00080460EB143F480130193002C24D002A80B
:1058F00040F8084D6846FFF753FD019B002831D161
:10590000009AC8F81420002B0CBF01240224C8F808
:105910001830C8F81040E6B908EB8403A0F2324012
:1059200038601869FFF71EFD0B9BC0EB4410186030
:10593000404603B0BDE8F08301A8FFF731FD012325
:105940001C46C8F81030019BC8F814302030002ED7
:10595000E2D00B9AA6F23349C0F1350348443860CF
:105960001360E5E7C0F12001009A03FA01F123FA80
:1059700000F30A430193C8F81420C4E72DE9F0436B
:1059800083B0884669460646FFF742FF0D46044647
:1059900001A94046FFF73CFF2F460B460246D8F8C8
:1059A00010109946306926469046C1EB000E9DE8DE
:1059B0000300401A00EB4E110029C9BF05EB015747
:1059C000A3EB015924463D46DCBF12464B46204618
:1059D000294601F0DDFD03B0BDE8F083172810B5BE
:1059E00004460CDD00210020C3F6F07100230022E4
:1059F000C4F2240301F0A2FC013CF7D110BD48F22F
:105A0000F813C0F2000303EBC003D3E9040110BD97
:105A100070B40139156902F114034E11013602EB1D
:105A20008505143500EB8606AB420CD2014653F8CF
:105A3000044B9D4241F8044BF9D8AB1A153B23F0B7
:105A400003030433C018864204D9002340F8043B02
:105A50008642FBD870BC704730B44B11046900F12A
:105A600014029C42B8BF234600DB11DC043300EB78
:105A70008300031D9A4218D253F8043C2BB982428A
:105A800013D250F8043D002BF9D0012030BC7047F0
:105A900011F01F01EAD000EB8304646924FA01F5D8
:105AA00005FA01F1A142F0D1E0E70020EEE700BFE6
:105AB00050EA010201D102207047D0F1010238BF43
:105AC0000022B1F1004F08BF0028F4D021F00043BC
:105AD0004FF6FF71A3F58010C7F6DF71884201D839
